{
	"contracts/arr.sol": {
		"arrayDem": {
			"abi": [
				{
					"inputs": [
						{
							"internalType": "uint256",
							"name": "",
							"type": "uint256"
						}
					],
					"name": "age",
					"outputs": [
						{
							"internalType": "uint256",
							"name": "",
							"type": "uint256"
						}
					],
					"stateMutability": "view",
					"type": "function"
				},
				{
					"inputs": [],
					"name": "getArray",
					"outputs": [
						{
							"internalType": "uint256[5]",
							"name": "",
							"type": "uint256[5]"
						}
					],
					"stateMutability": "view",
					"type": "function"
				},
				{
					"inputs": [],
					"name": "getLength",
					"outputs": [
						{
							"internalType": "uint256",
							"name": "",
							"type": "uint256"
						}
					],
					"stateMutability": "view",
					"type": "function"
				},
				{
					"inputs": [
						{
							"internalType": "uint256",
							"name": "index",
							"type": "uint256"
						},
						{
							"internalType": "uint256",
							"name": "data",
							"type": "uint256"
						}
					],
					"name": "insertElement",
					"outputs": [],
					"stateMutability": "nonpayable",
					"type": "function"
				},
				{
					"inputs": [
						{
							"internalType": "uint256",
							"name": "index",
							"type": "uint256"
						}
					],
					"name": "readElement",
					"outputs": [
						{
							"internalType": "uint256",
							"name": "",
							"type": "uint256"
						}
					],
					"stateMutability": "view",
					"type": "function"
				}
			],
			"devdoc": {
				"kind": "dev",
				"methods": {},
				"version": 1
			},
			"evm": {
				"assembly": "    /* \"contracts/arr.sol\":62:666  contract arrayDem{... */\n  mstore(0x40, 0x80)\n  callvalue\n  dup1\n  iszero\n  tag_1\n  jumpi\n  0x00\n  dup1\n  revert\ntag_1:\n  pop\n  dataSize(sub_0)\n  dup1\n  dataOffset(sub_0)\n  0x00\n  codecopy\n  0x00\n  return\nstop\n\nsub_0: assembly {\n        /* \"contracts/arr.sol\":62:666  contract arrayDem{... */\n      mstore(0x40, 0x80)\n      callvalue\n      dup1\n      iszero\n      tag_1\n      jumpi\n      0x00\n      dup1\n      revert\n    tag_1:\n      pop\n      jumpi(tag_2, lt(calldatasize, 0x04))\n      shr(0xe0, calldataload(0x00))\n      dup1\n      0x10db3c9f\n      eq\n      tag_3\n      jumpi\n      dup1\n      0x6a504cb7\n      eq\n      tag_4\n      jumpi\n      dup1\n      0x6ba61782\n      eq\n      tag_5\n      jumpi\n      dup1\n      0xbe1c766b\n      eq\n      tag_6\n      jumpi\n      dup1\n      0xd504ea1d\n      eq\n      tag_7\n      jumpi\n    tag_2:\n      0x00\n      dup1\n      revert\n        /* \"contracts/arr.sol\":354:444  function insertElement(uint index, uint data) external{... */\n    tag_3:\n      tag_8\n      0x04\n      dup1\n      calldatasize\n      sub\n      dup2\n      add\n      swap1\n      tag_9\n      swap2\n      swap1\n      tag_10\n      jump\t// in\n    tag_9:\n      tag_11\n      jump\t// in\n    tag_8:\n      stop\n        /* \"contracts/arr.sol\":452:567  function readElement(uint index) public isLengthValid(index) view returns(uint){... */\n    tag_4:\n      tag_12\n      0x04\n      dup1\n      calldatasize\n      sub\n      dup2\n      add\n      swap1\n      tag_13\n      swap2\n      swap1\n      tag_14\n      jump\t// in\n    tag_13:\n      tag_15\n      jump\t// in\n    tag_12:\n      mload(0x40)\n      tag_16\n      swap2\n      swap1\n      tag_17\n      jump\t// in\n    tag_16:\n      mload(0x40)\n      dup1\n      swap2\n      sub\n      swap1\n      return\n        /* \"contracts/arr.sol\":86:104  uint[5] public age */\n    tag_5:\n      tag_18\n      0x04\n      dup1\n      calldatasize\n      sub\n      dup2\n      add\n      swap1\n      tag_19\n      swap2\n      swap1\n      tag_14\n      jump\t// in\n    tag_19:\n      tag_20\n      jump\t// in\n    tag_18:\n      mload(0x40)\n      tag_21\n      swap2\n      swap1\n      tag_17\n      jump\t// in\n    tag_21:\n      mload(0x40)\n      dup1\n      swap2\n      sub\n      swap1\n      return\n        /* \"contracts/arr.sol\":264:346  function getLength() public view returns(uint){... */\n    tag_6:\n      tag_22\n      tag_23\n      jump\t// in\n    tag_22:\n      mload(0x40)\n      tag_24\n      swap2\n      swap1\n      tag_17\n      jump\t// in\n    tag_24:\n      mload(0x40)\n      dup1\n      swap2\n      sub\n      swap1\n      return\n        /* \"contracts/arr.sol\":575:661  function getArray() external view returns(uint[5] memory){... */\n    tag_7:\n      tag_25\n      tag_26\n      jump\t// in\n    tag_25:\n      mload(0x40)\n      tag_27\n      swap2\n      swap1\n      tag_28\n      jump\t// in\n    tag_27:\n      mload(0x40)\n      dup1\n      swap2\n      sub\n      swap1\n      return\n        /* \"contracts/arr.sol\":354:444  function insertElement(uint index, uint data) external{... */\n    tag_11:\n        /* \"contracts/arr.sol\":432:436  data */\n      dup1\n        /* \"contracts/arr.sol\":419:422  age */\n      0x00\n        /* \"contracts/arr.sol\":423:428  index */\n      dup4\n        /* \"contracts/arr.sol\":419:429  age[index] */\n      0x05\n      dup2\n      lt\n      tag_30\n      jumpi\n      tag_31\n      tag_32\n      jump\t// in\n    tag_31:\n    tag_30:\n      add\n        /* \"contracts/arr.sol\":419:436  age[index] = data */\n      dup2\n      swap1\n      sstore\n      pop\n        /* \"contracts/arr.sol\":354:444  function insertElement(uint index, uint data) external{... */\n      pop\n      pop\n      jump\t// out\n        /* \"contracts/arr.sol\":452:567  function readElement(uint index) public isLengthValid(index) view returns(uint){... */\n    tag_15:\n        /* \"contracts/arr.sol\":526:530  uint */\n      0x00\n        /* \"contracts/arr.sol\":506:511  index */\n      dup2\n        /* \"contracts/arr.sol\":173:183  age.length */\n      0x05\n        /* \"contracts/arr.sol\":167:172  index */\n      dup2\n        /* \"contracts/arr.sol\":167:183  index<age.length */\n      lt\n        /* \"contracts/arr.sol\":159:236  require(index<age.length, \"Errored Index out of bound------Please Try AGAIN\") */\n      tag_35\n      jumpi\n      mload(0x40)\n      0x08c379a000000000000000000000000000000000000000000000000000000000\n      dup2\n      mstore\n      0x04\n      add\n      tag_36\n      swap1\n      tag_37\n      jump\t// in\n    tag_36:\n      mload(0x40)\n      dup1\n      swap2\n      sub\n      swap1\n      revert\n    tag_35:\n        /* \"contracts/arr.sol\":549:552  age */\n      0x00\n        /* \"contracts/arr.sol\":553:558  index */\n      dup4\n        /* \"contracts/arr.sol\":549:559  age[index] */\n      0x05\n      dup2\n      lt\n      tag_39\n      jumpi\n      tag_40\n      tag_32\n      jump\t// in\n    tag_40:\n    tag_39:\n      add\n      sload\n        /* \"contracts/arr.sol\":542:559  return age[index] */\n      swap2\n      pop\n        /* \"contracts/arr.sol\":452:567  function readElement(uint index) public isLengthValid(index) view returns(uint){... */\n      pop\n      swap2\n      swap1\n      pop\n      jump\t// out\n        /* \"contracts/arr.sol\":86:104  uint[5] public age */\n    tag_20:\n      0x00\n      dup2\n      0x05\n      dup2\n      lt\n      tag_42\n      jumpi\n      0x00\n      dup1\n      revert\n    tag_42:\n      add\n      0x00\n      swap2\n      pop\n      swap1\n      pop\n      sload\n      dup2\n      jump\t// out\n        /* \"contracts/arr.sol\":264:346  function getLength() public view returns(uint){... */\n    tag_23:\n        /* \"contracts/arr.sol\":305:309  uint */\n      0x00\n        /* \"contracts/arr.sol\":328:338  age.length */\n      0x05\n        /* \"contracts/arr.sol\":321:338  return age.length */\n      swap1\n      pop\n        /* \"contracts/arr.sol\":264:346  function getLength() public view returns(uint){... */\n      swap1\n      jump\t// out\n        /* \"contracts/arr.sol\":575:661  function getArray() external view returns(uint[5] memory){... */\n    tag_26:\n        /* \"contracts/arr.sol\":617:631  uint[5] memory */\n      tag_45\n      tag_46\n      jump\t// in\n    tag_45:\n        /* \"contracts/arr.sol\":650:653  age */\n      0x00\n        /* \"contracts/arr.sol\":643:653  return age */\n      0x05\n      dup1\n      0x20\n      mul\n      mload(0x40)\n      swap1\n      dup2\n      add\n      0x40\n      mstore\n      dup1\n      swap3\n      swap2\n      swap1\n      dup3\n      0x05\n      dup1\n      iszero\n      tag_48\n      jumpi\n      0x20\n      mul\n      dup3\n      add\n      swap2\n    tag_49:\n      dup2\n      sload\n      dup2\n      mstore\n      0x20\n      add\n      swap1\n      0x01\n      add\n      swap1\n      dup1\n      dup4\n      gt\n      tag_49\n      jumpi\n    tag_48:\n      pop\n      pop\n      pop\n      pop\n      pop\n      swap1\n      pop\n        /* \"contracts/arr.sol\":575:661  function getArray() external view returns(uint[5] memory){... */\n      swap1\n      jump\t// out\n    tag_46:\n      mload(0x40)\n      dup1\n      0xa0\n      add\n      0x40\n      mstore\n      dup1\n      0x05\n      swap1\n      0x20\n      dup3\n      mul\n      dup1\n      calldatasize\n      dup4\n      calldatacopy\n      dup1\n      dup3\n      add\n      swap2\n      pop\n      pop\n      swap1\n      pop\n      pop\n      swap1\n      jump\t// out\n        /* \"#utility.yul\":88:205   */\n    tag_51:\n        /* \"#utility.yul\":197:198   */\n      0x00\n        /* \"#utility.yul\":194:195   */\n      dup1\n        /* \"#utility.yul\":187:199   */\n      revert\n        /* \"#utility.yul\":334:411   */\n    tag_53:\n        /* \"#utility.yul\":371:378   */\n      0x00\n        /* \"#utility.yul\":400:405   */\n      dup2\n        /* \"#utility.yul\":389:405   */\n      swap1\n      pop\n        /* \"#utility.yul\":334:411   */\n      swap2\n      swap1\n      pop\n      jump\t// out\n        /* \"#utility.yul\":417:539   */\n    tag_54:\n        /* \"#utility.yul\":490:514   */\n      tag_73\n        /* \"#utility.yul\":508:513   */\n      dup2\n        /* \"#utility.yul\":490:514   */\n      tag_53\n      jump\t// in\n    tag_73:\n        /* \"#utility.yul\":483:488   */\n      dup2\n        /* \"#utility.yul\":480:515   */\n      eq\n        /* \"#utility.yul\":470:533   */\n      tag_74\n      jumpi\n        /* \"#utility.yul\":529:530   */\n      0x00\n        /* \"#utility.yul\":526:527   */\n      dup1\n        /* \"#utility.yul\":519:531   */\n      revert\n        /* \"#utility.yul\":470:533   */\n    tag_74:\n        /* \"#utility.yul\":417:539   */\n      pop\n      jump\t// out\n        /* \"#utility.yul\":545:684   */\n    tag_55:\n        /* \"#utility.yul\":591:596   */\n      0x00\n        /* \"#utility.yul\":629:635   */\n      dup2\n        /* \"#utility.yul\":616:636   */\n      calldataload\n        /* \"#utility.yul\":607:636   */\n      swap1\n      pop\n        /* \"#utility.yul\":645:678   */\n      tag_76\n        /* \"#utility.yul\":672:677   */\n      dup2\n        /* \"#utility.yul\":645:678   */\n      tag_54\n      jump\t// in\n    tag_76:\n        /* \"#utility.yul\":545:684   */\n      swap3\n      swap2\n      pop\n      pop\n      jump\t// out\n        /* \"#utility.yul\":690:1164   */\n    tag_10:\n        /* \"#utility.yul\":758:764   */\n      0x00\n        /* \"#utility.yul\":766:772   */\n      dup1\n        /* \"#utility.yul\":815:817   */\n      0x40\n        /* \"#utility.yul\":803:812   */\n      dup4\n        /* \"#utility.yul\":794:801   */\n      dup6\n        /* \"#utility.yul\":790:813   */\n      sub\n        /* \"#utility.yul\":786:818   */\n      slt\n        /* \"#utility.yul\":783:902   */\n      iszero\n      tag_78\n      jumpi\n        /* \"#utility.yul\":821:900   */\n      tag_79\n      tag_51\n      jump\t// in\n    tag_79:\n        /* \"#utility.yul\":783:902   */\n    tag_78:\n        /* \"#utility.yul\":941:942   */\n      0x00\n        /* \"#utility.yul\":966:1019   */\n      tag_80\n        /* \"#utility.yul\":1011:1018   */\n      dup6\n        /* \"#utility.yul\":1002:1008   */\n      dup3\n        /* \"#utility.yul\":991:1000   */\n      dup7\n        /* \"#utility.yul\":987:1009   */\n      add\n        /* \"#utility.yul\":966:1019   */\n      tag_55\n      jump\t// in\n    tag_80:\n        /* \"#utility.yul\":956:1019   */\n      swap3\n      pop\n        /* \"#utility.yul\":912:1029   */\n      pop\n        /* \"#utility.yul\":1068:1070   */\n      0x20\n        /* \"#utility.yul\":1094:1147   */\n      tag_81\n        /* \"#utility.yul\":1139:1146   */\n      dup6\n        /* \"#utility.yul\":1130:1136   */\n      dup3\n        /* \"#utility.yul\":1119:1128   */\n      dup7\n        /* \"#utility.yul\":1115:1137   */\n      add\n        /* \"#utility.yul\":1094:1147   */\n      tag_55\n      jump\t// in\n    tag_81:\n        /* \"#utility.yul\":1084:1147   */\n      swap2\n      pop\n        /* \"#utility.yul\":1039:1157   */\n      pop\n        /* \"#utility.yul\":690:1164   */\n      swap3\n      pop\n      swap3\n      swap1\n      pop\n      jump\t// out\n        /* \"#utility.yul\":1170:1499   */\n    tag_14:\n        /* \"#utility.yul\":1229:1235   */\n      0x00\n        /* \"#utility.yul\":1278:1280   */\n      0x20\n        /* \"#utility.yul\":1266:1275   */\n      dup3\n        /* \"#utility.yul\":1257:1264   */\n      dup5\n        /* \"#utility.yul\":1253:1276   */\n      sub\n        /* \"#utility.yul\":1249:1281   */\n      slt\n        /* \"#utility.yul\":1246:1365   */\n      iszero\n      tag_83\n      jumpi\n        /* \"#utility.yul\":1284:1363   */\n      tag_84\n      tag_51\n      jump\t// in\n    tag_84:\n        /* \"#utility.yul\":1246:1365   */\n    tag_83:\n        /* \"#utility.yul\":1404:1405   */\n      0x00\n        /* \"#utility.yul\":1429:1482   */\n      tag_85\n        /* \"#utility.yul\":1474:1481   */\n      dup5\n        /* \"#utility.yul\":1465:1471   */\n      dup3\n        /* \"#utility.yul\":1454:1463   */\n      dup6\n        /* \"#utility.yul\":1450:1472   */\n      add\n        /* \"#utility.yul\":1429:1482   */\n      tag_55\n      jump\t// in\n    tag_85:\n        /* \"#utility.yul\":1419:1482   */\n      swap2\n      pop\n        /* \"#utility.yul\":1375:1492   */\n      pop\n        /* \"#utility.yul\":1170:1499   */\n      swap3\n      swap2\n      pop\n      pop\n      jump\t// out\n        /* \"#utility.yul\":1505:1623   */\n    tag_56:\n        /* \"#utility.yul\":1592:1616   */\n      tag_87\n        /* \"#utility.yul\":1610:1615   */\n      dup2\n        /* \"#utility.yul\":1592:1616   */\n      tag_53\n      jump\t// in\n    tag_87:\n        /* \"#utility.yul\":1587:1590   */\n      dup3\n        /* \"#utility.yul\":1580:1617   */\n      mstore\n        /* \"#utility.yul\":1505:1623   */\n      pop\n      pop\n      jump\t// out\n        /* \"#utility.yul\":1629:1851   */\n    tag_17:\n        /* \"#utility.yul\":1722:1726   */\n      0x00\n        /* \"#utility.yul\":1760:1762   */\n      0x20\n        /* \"#utility.yul\":1749:1758   */\n      dup3\n        /* \"#utility.yul\":1745:1763   */\n      add\n        /* \"#utility.yul\":1737:1763   */\n      swap1\n      pop\n        /* \"#utility.yul\":1773:1844   */\n      tag_89\n        /* \"#utility.yul\":1841:1842   */\n      0x00\n        /* \"#utility.yul\":1830:1839   */\n      dup4\n        /* \"#utility.yul\":1826:1843   */\n      add\n        /* \"#utility.yul\":1817:1823   */\n      dup5\n        /* \"#utility.yul\":1773:1844   */\n      tag_56\n      jump\t// in\n    tag_89:\n        /* \"#utility.yul\":1629:1851   */\n      swap3\n      swap2\n      pop\n      pop\n      jump\t// out\n        /* \"#utility.yul\":1857:1961   */\n    tag_57:\n        /* \"#utility.yul\":1922:1928   */\n      0x00\n        /* \"#utility.yul\":1950:1954   */\n      0x05\n        /* \"#utility.yul\":1940:1954   */\n      swap1\n      pop\n        /* \"#utility.yul\":1857:1961   */\n      swap2\n      swap1\n      pop\n      jump\t// out\n        /* \"#utility.yul\":1967:2110   */\n    tag_58:\n        /* \"#utility.yul\":2064:2075   */\n      0x00\n        /* \"#utility.yul\":2101:2104   */\n      dup2\n        /* \"#utility.yul\":2086:2104   */\n      swap1\n      pop\n        /* \"#utility.yul\":1967:2110   */\n      swap3\n      swap2\n      pop\n      pop\n      jump\t// out\n        /* \"#utility.yul\":2116:2214   */\n    tag_59:\n        /* \"#utility.yul\":2181:2185   */\n      0x00\n        /* \"#utility.yul\":2204:2207   */\n      dup2\n        /* \"#utility.yul\":2196:2207   */\n      swap1\n      pop\n        /* \"#utility.yul\":2116:2214   */\n      swap2\n      swap1\n      pop\n      jump\t// out\n        /* \"#utility.yul\":2220:2328   */\n    tag_60:\n        /* \"#utility.yul\":2297:2321   */\n      tag_94\n        /* \"#utility.yul\":2315:2320   */\n      dup2\n        /* \"#utility.yul\":2297:2321   */\n      tag_53\n      jump\t// in\n    tag_94:\n        /* \"#utility.yul\":2292:2295   */\n      dup3\n        /* \"#utility.yul\":2285:2322   */\n      mstore\n        /* \"#utility.yul\":2220:2328   */\n      pop\n      pop\n      jump\t// out\n        /* \"#utility.yul\":2334:2513   */\n    tag_61:\n        /* \"#utility.yul\":2403:2413   */\n      0x00\n        /* \"#utility.yul\":2424:2470   */\n      tag_96\n        /* \"#utility.yul\":2466:2469   */\n      dup4\n        /* \"#utility.yul\":2458:2464   */\n      dup4\n        /* \"#utility.yul\":2424:2470   */\n      tag_60\n      jump\t// in\n    tag_96:\n        /* \"#utility.yul\":2502:2506   */\n      0x20\n        /* \"#utility.yul\":2497:2500   */\n      dup4\n        /* \"#utility.yul\":2493:2507   */\n      add\n        /* \"#utility.yul\":2479:2507   */\n      swap1\n      pop\n        /* \"#utility.yul\":2334:2513   */\n      swap3\n      swap2\n      pop\n      pop\n      jump\t// out\n        /* \"#utility.yul\":2519:2630   */\n    tag_62:\n        /* \"#utility.yul\":2587:2591   */\n      0x00\n        /* \"#utility.yul\":2619:2623   */\n      0x20\n        /* \"#utility.yul\":2614:2617   */\n      dup3\n        /* \"#utility.yul\":2610:2624   */\n      add\n        /* \"#utility.yul\":2602:2624   */\n      swap1\n      pop\n        /* \"#utility.yul\":2519:2630   */\n      swap2\n      swap1\n      pop\n      jump\t// out\n        /* \"#utility.yul\":2668:3362   */\n    tag_63:\n        /* \"#utility.yul\":2804:2856   */\n      tag_99\n        /* \"#utility.yul\":2850:2855   */\n      dup2\n        /* \"#utility.yul\":2804:2856   */\n      tag_57\n      jump\t// in\n    tag_99:\n        /* \"#utility.yul\":2872:2956   */\n      tag_100\n        /* \"#utility.yul\":2949:2955   */\n      dup2\n        /* \"#utility.yul\":2944:2947   */\n      dup5\n        /* \"#utility.yul\":2872:2956   */\n      tag_58\n      jump\t// in\n    tag_100:\n        /* \"#utility.yul\":2865:2956   */\n      swap3\n      pop\n        /* \"#utility.yul\":2980:3034   */\n      tag_101\n        /* \"#utility.yul\":3028:3033   */\n      dup3\n        /* \"#utility.yul\":2980:3034   */\n      tag_59\n      jump\t// in\n    tag_101:\n        /* \"#utility.yul\":3057:3064   */\n      dup1\n        /* \"#utility.yul\":3088:3089   */\n      0x00\n        /* \"#utility.yul\":3073:3355   */\n    tag_102:\n        /* \"#utility.yul\":3098:3104   */\n      dup4\n        /* \"#utility.yul\":3095:3096   */\n      dup2\n        /* \"#utility.yul\":3092:3105   */\n      lt\n        /* \"#utility.yul\":3073:3355   */\n      iszero\n      tag_104\n      jumpi\n        /* \"#utility.yul\":3174:3180   */\n      dup2\n        /* \"#utility.yul\":3168:3181   */\n      mload\n        /* \"#utility.yul\":3201:3264   */\n      tag_105\n        /* \"#utility.yul\":3260:3263   */\n      dup8\n        /* \"#utility.yul\":3245:3258   */\n      dup3\n        /* \"#utility.yul\":3201:3264   */\n      tag_61\n      jump\t// in\n    tag_105:\n        /* \"#utility.yul\":3194:3264   */\n      swap7\n      pop\n        /* \"#utility.yul\":3287:3345   */\n      tag_106\n        /* \"#utility.yul\":3338:3344   */\n      dup4\n        /* \"#utility.yul\":3287:3345   */\n      tag_62\n      jump\t// in\n    tag_106:\n        /* \"#utility.yul\":3277:3345   */\n      swap3\n      pop\n        /* \"#utility.yul\":3133:3355   */\n      pop\n        /* \"#utility.yul\":3120:3121   */\n      0x01\n        /* \"#utility.yul\":3117:3118   */\n      dup2\n        /* \"#utility.yul\":3113:3122   */\n      add\n        /* \"#utility.yul\":3108:3122   */\n      swap1\n      pop\n        /* \"#utility.yul\":3073:3355   */\n      jump(tag_102)\n    tag_104:\n        /* \"#utility.yul\":3077:3091   */\n      pop\n        /* \"#utility.yul\":2780:3362   */\n      pop\n      pop\n      pop\n        /* \"#utility.yul\":2668:3362   */\n      pop\n      pop\n      jump\t// out\n        /* \"#utility.yul\":3368:3683   */\n    tag_28:\n        /* \"#utility.yul\":3507:3511   */\n      0x00\n        /* \"#utility.yul\":3545:3548   */\n      0xa0\n        /* \"#utility.yul\":3534:3543   */\n      dup3\n        /* \"#utility.yul\":3530:3549   */\n      add\n        /* \"#utility.yul\":3522:3549   */\n      swap1\n      pop\n        /* \"#utility.yul\":3559:3676   */\n      tag_108\n        /* \"#utility.yul\":3673:3674   */\n      0x00\n        /* \"#utility.yul\":3662:3671   */\n      dup4\n        /* \"#utility.yul\":3658:3675   */\n      add\n        /* \"#utility.yul\":3649:3655   */\n      dup5\n        /* \"#utility.yul\":3559:3676   */\n      tag_63\n      jump\t// in\n    tag_108:\n        /* \"#utility.yul\":3368:3683   */\n      swap3\n      swap2\n      pop\n      pop\n      jump\t// out\n        /* \"#utility.yul\":3689:3869   */\n    tag_32:\n        /* \"#utility.yul\":3737:3814   */\n      0x4e487b7100000000000000000000000000000000000000000000000000000000\n        /* \"#utility.yul\":3734:3735   */\n      0x00\n        /* \"#utility.yul\":3727:3815   */\n      mstore\n        /* \"#utility.yul\":3834:3838   */\n      0x32\n        /* \"#utility.yul\":3831:3832   */\n      0x04\n        /* \"#utility.yul\":3824:3839   */\n      mstore\n        /* \"#utility.yul\":3858:3862   */\n      0x24\n        /* \"#utility.yul\":3855:3856   */\n      0x00\n        /* \"#utility.yul\":3848:3863   */\n      revert\n        /* \"#utility.yul\":3875:4044   */\n    tag_64:\n        /* \"#utility.yul\":3959:3970   */\n      0x00\n        /* \"#utility.yul\":3993:3999   */\n      dup3\n        /* \"#utility.yul\":3988:3991   */\n      dup3\n        /* \"#utility.yul\":3981:4000   */\n      mstore\n        /* \"#utility.yul\":4033:4037   */\n      0x20\n        /* \"#utility.yul\":4028:4031   */\n      dup3\n        /* \"#utility.yul\":4024:4038   */\n      add\n        /* \"#utility.yul\":4009:4038   */\n      swap1\n      pop\n        /* \"#utility.yul\":3875:4044   */\n      swap3\n      swap2\n      pop\n      pop\n      jump\t// out\n        /* \"#utility.yul\":4050:4285   */\n    tag_65:\n        /* \"#utility.yul\":4190:4224   */\n      0x4572726f72656420496e646578206f7574206f6620626f756e642d2d2d2d2d2d\n        /* \"#utility.yul\":4186:4187   */\n      0x00\n        /* \"#utility.yul\":4178:4184   */\n      dup3\n        /* \"#utility.yul\":4174:4188   */\n      add\n        /* \"#utility.yul\":4167:4225   */\n      mstore\n        /* \"#utility.yul\":4259:4277   */\n      0x506c656173652054727920414741494e00000000000000000000000000000000\n        /* \"#utility.yul\":4254:4256   */\n      0x20\n        /* \"#utility.yul\":4246:4252   */\n      dup3\n        /* \"#utility.yul\":4242:4257   */\n      add\n        /* \"#utility.yul\":4235:4278   */\n      mstore\n        /* \"#utility.yul\":4050:4285   */\n      pop\n      jump\t// out\n        /* \"#utility.yul\":4291:4657   */\n    tag_66:\n        /* \"#utility.yul\":4433:4436   */\n      0x00\n        /* \"#utility.yul\":4454:4521   */\n      tag_113\n        /* \"#utility.yul\":4518:4520   */\n      0x30\n        /* \"#utility.yul\":4513:4516   */\n      dup4\n        /* \"#utility.yul\":4454:4521   */\n      tag_64\n      jump\t// in\n    tag_113:\n        /* \"#utility.yul\":4447:4521   */\n      swap2\n      pop\n        /* \"#utility.yul\":4530:4623   */\n      tag_114\n        /* \"#utility.yul\":4619:4622   */\n      dup3\n        /* \"#utility.yul\":4530:4623   */\n      tag_65\n      jump\t// in\n    tag_114:\n        /* \"#utility.yul\":4648:4650   */\n      0x40\n        /* \"#utility.yul\":4643:4646   */\n      dup3\n        /* \"#utility.yul\":4639:4651   */\n      add\n        /* \"#utility.yul\":4632:4651   */\n      swap1\n      pop\n        /* \"#utility.yul\":4291:4657   */\n      swap2\n      swap1\n      pop\n      jump\t// out\n        /* \"#utility.yul\":4663:5082   */\n    tag_37:\n        /* \"#utility.yul\":4829:4833   */\n      0x00\n        /* \"#utility.yul\":4867:4869   */\n      0x20\n        /* \"#utility.yul\":4856:4865   */\n      dup3\n        /* \"#utility.yul\":4852:4870   */\n      add\n        /* \"#utility.yul\":4844:4870   */\n      swap1\n      pop\n        /* \"#utility.yul\":4916:4925   */\n      dup2\n        /* \"#utility.yul\":4910:4914   */\n      dup2\n        /* \"#utility.yul\":4906:4926   */\n      sub\n        /* \"#utility.yul\":4902:4903   */\n      0x00\n        /* \"#utility.yul\":4891:4900   */\n      dup4\n        /* \"#utility.yul\":4887:4904   */\n      add\n        /* \"#utility.yul\":4880:4927   */\n      mstore\n        /* \"#utility.yul\":4944:5075   */\n      tag_116\n        /* \"#utility.yul\":5070:5074   */\n      dup2\n        /* \"#utility.yul\":4944:5075   */\n      tag_66\n      jump\t// in\n    tag_116:\n        /* \"#utility.yul\":4936:5075   */\n      swap1\n      pop\n        /* \"#utility.yul\":4663:5082   */\n      swap2\n      swap1\n      pop\n      jump\t// out\n\n    auxdata: 0xa264697066735822122099570b9e285cc2aaf7e7352399b4982a26ead0368f8dc4d15514711ac0b2794d64736f6c634300081a0033\n}\n",
				"bytecode": {
					"linkReferences": {},
					"object": "6080604052348015600e575f80fd5b506104a38061001c5f395ff3fe608060405234801561000f575f80fd5b5060043610610055575f3560e01c806310db3c9f146100595780636a504cb7146100755780636ba61782146100a5578063be1c766b146100d5578063d504ea1d146100f3575b5f80fd5b610073600480360381019061006e9190610253565b610111565b005b61008f600480360381019061008a9190610291565b61012e565b60405161009c91906102cb565b60405180910390f35b6100bf60048036038101906100ba9190610291565b610190565b6040516100cc91906102cb565b60405180910390f35b6100dd6101a8565b6040516100ea91906102cb565b60405180910390f35b6100fb6101b0565b6040516101089190610389565b60405180910390f35b805f8360058110610125576101246103a2565b5b01819055505050565b5f8160058110610173576040517f08c379a000000000000000000000000000000000000000000000000000000000815260040161016a9061044f565b60405180910390fd5b5f8360058110610186576101856103a2565b5b0154915050919050565b5f816005811061019e575f80fd5b015f915090505481565b5f6005905090565b6101b86101fa565b5f6005806020026040519081016040528092919082600580156101f0576020028201915b8154815260200190600101908083116101dc575b5050505050905090565b6040518060a00160405280600590602082028036833780820191505090505090565b5f80fd5b5f819050919050565b61023281610220565b811461023c575f80fd5b50565b5f8135905061024d81610229565b92915050565b5f80604083850312156102695761026861021c565b5b5f6102768582860161023f565b92505060206102878582860161023f565b9150509250929050565b5f602082840312156102a6576102a561021c565b5b5f6102b38482850161023f565b91505092915050565b6102c581610220565b82525050565b5f6020820190506102de5f8301846102bc565b92915050565b5f60059050919050565b5f81905092915050565b5f819050919050565b61030a81610220565b82525050565b5f61031b8383610301565b60208301905092915050565b5f602082019050919050565b61033c816102e4565b61034681846102ee565b9250610351826102f8565b805f5b838110156103815781516103688782610310565b965061037383610327565b925050600181019050610354565b505050505050565b5f60a08201905061039c5f830184610333565b92915050565b7f4e487b71000000000000000000000000000000000000000000000000000000005f52603260045260245ffd5b5f82825260208201905092915050565b7f4572726f72656420496e646578206f7574206f6620626f756e642d2d2d2d2d2d5f8201527f506c656173652054727920414741494e00000000000000000000000000000000602082015250565b5f6104396030836103cf565b9150610444826103df565b604082019050919050565b5f6020820190508181035f8301526104668161042d565b905091905056fea264697066735822122099570b9e285cc2aaf7e7352399b4982a26ead0368f8dc4d15514711ac0b2794d64736f6c634300081a0033",
					"opcodes": "PUSH1 0x80 PUSH1 0x40 MSTORE CALLVALUE DUP1 ISZERO PUSH1 0xE JUMPI PUSH0 DUP1 REVERT JUMPDEST POP PUSH2 0x4A3 DUP1 PUSH2 0x1C PUSH0 CODECOPY PUSH0 RETURN INVALID PUSH1 0x80 PUSH1 0x40 MSTORE CALLVALUE DUP1 ISZERO PUSH2 0xF JUMPI PUSH0 DUP1 REVERT JUMPDEST POP PUSH1 0x4 CALLDATASIZE LT PUSH2 0x55 JUMPI PUSH0 CALLDATALOAD PUSH1 0xE0 SHR DUP1 PUSH4 0x10DB3C9F EQ PUSH2 0x59 JUMPI DUP1 PUSH4 0x6A504CB7 EQ PUSH2 0x75 JUMPI DUP1 PUSH4 0x6BA61782 EQ PUSH2 0xA5 JUMPI DUP1 PUSH4 0xBE1C766B EQ PUSH2 0xD5 JUMPI DUP1 PUSH4 0xD504EA1D EQ PUSH2 0xF3 JUMPI JUMPDEST PUSH0 DUP1 REVERT JUMPDEST PUSH2 0x73 PUSH1 0x4 DUP1 CALLDATASIZE SUB DUP2 ADD SWAP1 PUSH2 0x6E SWAP2 SWAP1 PUSH2 0x253 JUMP JUMPDEST PUSH2 0x111 JUMP JUMPDEST STOP JUMPDEST PUSH2 0x8F PUSH1 0x4 DUP1 CALLDATASIZE SUB DUP2 ADD SWAP1 PUSH2 0x8A SWAP2 SWAP1 PUSH2 0x291 JUMP JUMPDEST PUSH2 0x12E JUMP JUMPDEST PUSH1 0x40 MLOAD PUSH2 0x9C SWAP2 SWAP1 PUSH2 0x2CB JUMP JUMPDEST PUSH1 0x40 MLOAD DUP1 SWAP2 SUB SWAP1 RETURN JUMPDEST PUSH2 0xBF PUSH1 0x4 DUP1 CALLDATASIZE SUB DUP2 ADD SWAP1 PUSH2 0xBA SWAP2 SWAP1 PUSH2 0x291 JUMP JUMPDEST PUSH2 0x190 JUMP JUMPDEST PUSH1 0x40 MLOAD PUSH2 0xCC SWAP2 SWAP1 PUSH2 0x2CB JUMP JUMPDEST PUSH1 0x40 MLOAD DUP1 SWAP2 SUB SWAP1 RETURN JUMPDEST PUSH2 0xDD PUSH2 0x1A8 JUMP JUMPDEST PUSH1 0x40 MLOAD PUSH2 0xEA SWAP2 SWAP1 PUSH2 0x2CB JUMP JUMPDEST PUSH1 0x40 MLOAD DUP1 SWAP2 SUB SWAP1 RETURN JUMPDEST PUSH2 0xFB PUSH2 0x1B0 JUMP JUMPDEST PUSH1 0x40 MLOAD PUSH2 0x108 SWAP2 SWAP1 PUSH2 0x389 JUMP JUMPDEST PUSH1 0x40 MLOAD DUP1 SWAP2 SUB SWAP1 RETURN JUMPDEST DUP1 PUSH0 DUP4 PUSH1 0x5 DUP2 LT PUSH2 0x125 JUMPI PUSH2 0x124 PUSH2 0x3A2 JUMP JUMPDEST JUMPDEST ADD DUP2 SWAP1 SSTORE POP POP POP JUMP JUMPDEST PUSH0 DUP2 PUSH1 0x5 DUP2 LT PUSH2 0x173 JUMPI PUSH1 0x40 MLOAD PUSH32 0x8C379A000000000000000000000000000000000000000000000000000000000 DUP2 MSTORE PUSH1 0x4 ADD PUSH2 0x16A SWAP1 PUSH2 0x44F JUMP JUMPDEST PUSH1 0x40 MLOAD DUP1 SWAP2 SUB SWAP1 REVERT JUMPDEST PUSH0 DUP4 PUSH1 0x5 DUP2 LT PUSH2 0x186 JUMPI PUSH2 0x185 PUSH2 0x3A2 JUMP JUMPDEST JUMPDEST ADD SLOAD SWAP2 POP POP SWAP2 SWAP1 POP JUMP JUMPDEST PUSH0 DUP2 PUSH1 0x5 DUP2 LT PUSH2 0x19E JUMPI PUSH0 DUP1 REVERT JUMPDEST ADD PUSH0 SWAP2 POP SWAP1 POP SLOAD DUP2 JUMP JUMPDEST PUSH0 PUSH1 0x5 SWAP1 POP SWAP1 JUMP JUMPDEST PUSH2 0x1B8 PUSH2 0x1FA JUMP JUMPDEST PUSH0 PUSH1 0x5 DUP1 PUSH1 0x20 MUL PUSH1 0x40 MLOAD SWAP1 DUP2 ADD PUSH1 0x40 MSTORE DUP1 SWAP3 SWAP2 SWAP1 DUP3 PUSH1 0x5 DUP1 ISZERO PUSH2 0x1F0 JUMPI PUSH1 0x20 MUL DUP3 ADD SWAP2 JUMPDEST DUP2 SLOAD DUP2 MSTORE PUSH1 0x20 ADD SWAP1 PUSH1 0x1 ADD SWAP1 DUP1 DUP4 GT PUSH2 0x1DC JUMPI JUMPDEST POP POP POP POP POP SWAP1 POP SWAP1 JUMP JUMPDEST PUSH1 0x40 MLOAD DUP1 PUSH1 0xA0 ADD PUSH1 0x40 MSTORE DUP1 PUSH1 0x5 SWAP1 PUSH1 0x20 DUP3 MUL DUP1 CALLDATASIZE DUP4 CALLDATACOPY DUP1 DUP3 ADD SWAP2 POP POP SWAP1 POP POP SWAP1 JUMP JUMPDEST PUSH0 DUP1 REVERT JUMPDEST PUSH0 DUP2 SWAP1 POP SWAP2 SWAP1 POP JUMP JUMPDEST PUSH2 0x232 DUP2 PUSH2 0x220 JUMP JUMPDEST DUP2 EQ PUSH2 0x23C JUMPI PUSH0 DUP1 REVERT JUMPDEST POP JUMP JUMPDEST PUSH0 DUP2 CALLDATALOAD SWAP1 POP PUSH2 0x24D DUP2 PUSH2 0x229 JUMP JUMPDEST SWAP3 SWAP2 POP POP JUMP JUMPDEST PUSH0 DUP1 PUSH1 0x40 DUP4 DUP6 SUB SLT ISZERO PUSH2 0x269 JUMPI PUSH2 0x268 PUSH2 0x21C JUMP JUMPDEST JUMPDEST PUSH0 PUSH2 0x276 DUP6 DUP3 DUP7 ADD PUSH2 0x23F JUMP JUMPDEST SWAP3 POP POP PUSH1 0x20 PUSH2 0x287 DUP6 DUP3 DUP7 ADD PUSH2 0x23F JUMP JUMPDEST SWAP2 POP POP SWAP3 POP SWAP3 SWAP1 POP JUMP JUMPDEST PUSH0 PUSH1 0x20 DUP3 DUP5 SUB SLT ISZERO PUSH2 0x2A6 JUMPI PUSH2 0x2A5 PUSH2 0x21C JUMP JUMPDEST JUMPDEST PUSH0 PUSH2 0x2B3 DUP5 DUP3 DUP6 ADD PUSH2 0x23F JUMP JUMPDEST SWAP2 POP POP SWAP3 SWAP2 POP POP JUMP JUMPDEST PUSH2 0x2C5 DUP2 PUSH2 0x220 JUMP JUMPDEST DUP3 MSTORE POP POP JUMP JUMPDEST PUSH0 PUSH1 0x20 DUP3 ADD SWAP1 POP PUSH2 0x2DE PUSH0 DUP4 ADD DUP5 PUSH2 0x2BC JUMP JUMPDEST SWAP3 SWAP2 POP POP JUMP JUMPDEST PUSH0 PUSH1 0x5 SWAP1 POP SWAP2 SWAP1 POP JUMP JUMPDEST PUSH0 DUP2 SWAP1 POP SWAP3 SWAP2 POP POP JUMP JUMPDEST PUSH0 DUP2 SWAP1 POP SWAP2 SWAP1 POP JUMP JUMPDEST PUSH2 0x30A DUP2 PUSH2 0x220 JUMP JUMPDEST DUP3 MSTORE POP POP JUMP JUMPDEST PUSH0 PUSH2 0x31B DUP4 DUP4 PUSH2 0x301 JUMP JUMPDEST PUSH1 0x20 DUP4 ADD SWAP1 POP SWAP3 SWAP2 POP POP JUMP JUMPDEST PUSH0 PUSH1 0x20 DUP3 ADD SWAP1 POP SWAP2 SWAP1 POP JUMP JUMPDEST PUSH2 0x33C DUP2 PUSH2 0x2E4 JUMP JUMPDEST PUSH2 0x346 DUP2 DUP5 PUSH2 0x2EE JUMP JUMPDEST SWAP3 POP PUSH2 0x351 DUP3 PUSH2 0x2F8 JUMP JUMPDEST DUP1 PUSH0 JUMPDEST DUP4 DUP2 LT ISZERO PUSH2 0x381 JUMPI DUP2 MLOAD PUSH2 0x368 DUP8 DUP3 PUSH2 0x310 JUMP JUMPDEST SWAP7 POP PUSH2 0x373 DUP4 PUSH2 0x327 JUMP JUMPDEST SWAP3 POP POP PUSH1 0x1 DUP2 ADD SWAP1 POP PUSH2 0x354 JUMP JUMPDEST POP POP POP POP POP POP JUMP JUMPDEST PUSH0 PUSH1 0xA0 DUP3 ADD SWAP1 POP PUSH2 0x39C PUSH0 DUP4 ADD DUP5 PUSH2 0x333 JUMP JUMPDEST SWAP3 SWAP2 POP POP JUMP JUMPDEST PUSH32 0x4E487B7100000000000000000000000000000000000000000000000000000000 PUSH0 MSTORE PUSH1 0x32 PUSH1 0x4 MSTORE PUSH1 0x24 PUSH0 REVERT JUMPDEST PUSH0 DUP3 DUP3 MSTORE PUSH1 0x20 DUP3 ADD SWAP1 POP SWAP3 SWAP2 POP POP JUMP JUMPDEST PUSH32 0x4572726F72656420496E646578206F7574206F6620626F756E642D2D2D2D2D2D PUSH0 DUP3 ADD MSTORE PUSH32 0x506C656173652054727920414741494E00000000000000000000000000000000 PUSH1 0x20 DUP3 ADD MSTORE POP JUMP JUMPDEST PUSH0 PUSH2 0x439 PUSH1 0x30 DUP4 PUSH2 0x3CF JUMP JUMPDEST SWAP2 POP PUSH2 0x444 DUP3 PUSH2 0x3DF JUMP JUMPDEST PUSH1 0x40 DUP3 ADD SWAP1 POP SWAP2 SWAP1 POP JUMP JUMPDEST PUSH0 PUSH1 0x20 DUP3 ADD SWAP1 POP DUP2 DUP2 SUB PUSH0 DUP4 ADD MSTORE PUSH2 0x466 DUP2 PUSH2 0x42D JUMP JUMPDEST SWAP1 POP SWAP2 SWAP1 POP JUMP INVALID LOG2 PUSH5 0x6970667358 0x22 SLT KECCAK256 SWAP10 JUMPI SIGNEXTEND SWAP15 0x28 TLOAD 0xC2 0xAA 0xF7 0xE7 CALLDATALOAD 0x23 SWAP10 0xB4 SWAP9 0x2A 0x26 0xEA 0xD0 CALLDATASIZE DUP16 DUP14 0xC4 0xD1 SSTORE EQ PUSH18 0x1AC0B2794D64736F6C634300081A00330000 "
				},
				"gasEstimates": {
					"creation": {
						"codeDepositCost": "237400",
						"executionCost": "279",
						"totalCost": "237679"
					},
					"external": {
						"age(uint256)": "infinite",
						"getArray()": "infinite",
						"getLength()": "376",
						"insertElement(uint256,uint256)": "infinite",
						"readElement(uint256)": "infinite"
					}
				},
				"methodIdentifiers": {
					"age(uint256)": "6ba61782",
					"getArray()": "d504ea1d",
					"getLength()": "be1c766b",
					"insertElement(uint256,uint256)": "10db3c9f",
					"readElement(uint256)": "6a504cb7"
				}
			},
			"storageLayout": {
				"storage": [
					{
						"astId": 5,
						"contract": "contracts/arr.sol:arrayDem",
						"label": "age",
						"offset": 0,
						"slot": "0",
						"type": "t_array(t_uint256)5_storage"
					}
				],
				"types": {
					"t_array(t_uint256)5_storage": {
						"base": "t_uint256",
						"encoding": "inplace",
						"label": "uint256[5]",
						"numberOfBytes": "160"
					},
					"t_uint256": {
						"encoding": "inplace",
						"label": "uint256",
						"numberOfBytes": "32"
					}
				}
			},
			"userdoc": {
				"kind": "user",
				"methods": {},
				"version": 1
			}
		}
	}
}