{
	"contracts/newStrucLab9.sol": {
		"demo": {
			"abi": [
				{
					"inputs": [],
					"name": "counter",
					"outputs": [
						{
							"internalType": "uint256",
							"name": "",
							"type": "uint256"
						}
					],
					"stateMutability": "view",
					"type": "function"
				},
				{
					"inputs": [
						{
							"internalType": "uint256",
							"name": "_id",
							"type": "uint256"
						}
					],
					"name": "find",
					"outputs": [
						{
							"internalType": "bool",
							"name": "",
							"type": "bool"
						}
					],
					"stateMutability": "view",
					"type": "function"
				},
				{
					"inputs": [
						{
							"internalType": "string",
							"name": "_name",
							"type": "string"
						}
					],
					"name": "insert",
					"outputs": [],
					"stateMutability": "nonpayable",
					"type": "function"
				},
				{
					"inputs": [
						{
							"internalType": "uint256",
							"name": "_id",
							"type": "uint256"
						}
					],
					"name": "read",
					"outputs": [
						{
							"internalType": "uint256",
							"name": "",
							"type": "uint256"
						},
						{
							"internalType": "string",
							"name": "",
							"type": "string"
						}
					],
					"stateMutability": "view",
					"type": "function"
				},
				{
					"inputs": [
						{
							"internalType": "uint256",
							"name": "",
							"type": "uint256"
						}
					],
					"name": "users",
					"outputs": [
						{
							"internalType": "uint256",
							"name": "id",
							"type": "uint256"
						},
						{
							"internalType": "string",
							"name": "name",
							"type": "string"
						}
					],
					"stateMutability": "view",
					"type": "function"
				}
			],
			"devdoc": {
				"kind": "dev",
				"methods": {},
				"version": 1
			},
			"evm": {
				"assembly": "    /* \"contracts/newStrucLab9.sol\":60:863  contract demo{... */\n  mstore(0x40, 0x80)\n    /* \"contracts/newStrucLab9.sol\":194:195  1 */\n  0x01\n    /* \"contracts/newStrucLab9.sol\":172:195  uint public counter = 1 */\n  dup1\n  sstore\n    /* \"contracts/newStrucLab9.sol\":60:863  contract demo{... */\n  callvalue\n  dup1\n  iszero\n  tag_1\n  jumpi\n  0x00\n  dup1\n  revert\ntag_1:\n  pop\n  dataSize(sub_0)\n  dup1\n  dataOffset(sub_0)\n  0x00\n  codecopy\n  0x00\n  return\nstop\n\nsub_0: assembly {\n        /* \"contracts/newStrucLab9.sol\":60:863  contract demo{... */\n      mstore(0x40, 0x80)\n      callvalue\n      dup1\n      iszero\n      tag_1\n      jumpi\n      0x00\n      dup1\n      revert\n    tag_1:\n      pop\n      jumpi(tag_2, lt(calldatasize, 0x04))\n      shr(0xe0, calldataload(0x00))\n      dup1\n      0x365b98b2\n      eq\n      tag_3\n      jumpi\n      dup1\n      0x3e530e5b\n      eq\n      tag_4\n      jumpi\n      dup1\n      0x61bc221a\n      eq\n      tag_5\n      jumpi\n      dup1\n      0xb1498e29\n      eq\n      tag_6\n      jumpi\n      dup1\n      0xed2e5a97\n      eq\n      tag_7\n      jumpi\n    tag_2:\n      0x00\n      dup1\n      revert\n        /* \"contracts/newStrucLab9.sol\":146:165  USER[] public users */\n    tag_3:\n      tag_8\n      0x04\n      dup1\n      calldatasize\n      sub\n      dup2\n      add\n      swap1\n      tag_9\n      swap2\n      swap1\n      tag_10\n      jump\t// in\n    tag_9:\n      tag_11\n      jump\t// in\n    tag_8:\n      mload(0x40)\n      tag_12\n      swap3\n      swap2\n      swap1\n      tag_13\n      jump\t// in\n    tag_12:\n      mload(0x40)\n      dup1\n      swap2\n      sub\n      swap1\n      return\n        /* \"contracts/newStrucLab9.sol\":614:860  function find(uint _id) public view returns (bool) {... */\n    tag_4:\n      tag_14\n      0x04\n      dup1\n      calldatasize\n      sub\n      dup2\n      add\n      swap1\n      tag_15\n      swap2\n      swap1\n      tag_10\n      jump\t// in\n    tag_15:\n      tag_16\n      jump\t// in\n    tag_14:\n      mload(0x40)\n      tag_17\n      swap2\n      swap1\n      tag_18\n      jump\t// in\n    tag_17:\n      mload(0x40)\n      dup1\n      swap2\n      sub\n      swap1\n      return\n        /* \"contracts/newStrucLab9.sol\":172:195  uint public counter = 1 */\n    tag_5:\n      tag_19\n      tag_20\n      jump\t// in\n    tag_19:\n      mload(0x40)\n      tag_21\n      swap2\n      swap1\n      tag_22\n      jump\t// in\n    tag_21:\n      mload(0x40)\n      dup1\n      swap2\n      sub\n      swap1\n      return\n        /* \"contracts/newStrucLab9.sol\":202:317  function insert(string memory _name) public {... */\n    tag_6:\n      tag_23\n      0x04\n      dup1\n      calldatasize\n      sub\n      dup2\n      add\n      swap1\n      tag_24\n      swap2\n      swap1\n      tag_25\n      jump\t// in\n    tag_24:\n      tag_26\n      jump\t// in\n    tag_23:\n      stop\n        /* \"contracts/newStrucLab9.sol\":323:608  function read(uint _id) public view returns (uint, string memory) {... */\n    tag_7:\n      tag_27\n      0x04\n      dup1\n      calldatasize\n      sub\n      dup2\n      add\n      swap1\n      tag_28\n      swap2\n      swap1\n      tag_10\n      jump\t// in\n    tag_28:\n      tag_29\n      jump\t// in\n    tag_27:\n      mload(0x40)\n      tag_30\n      swap3\n      swap2\n      swap1\n      tag_13\n      jump\t// in\n    tag_30:\n      mload(0x40)\n      dup1\n      swap2\n      sub\n      swap1\n      return\n        /* \"contracts/newStrucLab9.sol\":146:165  USER[] public users */\n    tag_11:\n      0x00\n      dup2\n      dup2\n      sload\n      dup2\n      lt\n      tag_31\n      jumpi\n      0x00\n      dup1\n      revert\n    tag_31:\n      swap1\n      0x00\n      mstore\n      keccak256(0x00, 0x20)\n      swap1\n      0x02\n      mul\n      add\n      0x00\n      swap2\n      pop\n      swap1\n      pop\n      dup1\n      0x00\n      add\n      sload\n      swap1\n      dup1\n      0x01\n      add\n      dup1\n      sload\n      tag_33\n      swap1\n      tag_34\n      jump\t// in\n    tag_33:\n      dup1\n      0x1f\n      add\n      0x20\n      dup1\n      swap2\n      div\n      mul\n      0x20\n      add\n      mload(0x40)\n      swap1\n      dup2\n      add\n      0x40\n      mstore\n      dup1\n      swap3\n      swap2\n      swap1\n      dup2\n      dup2\n      mstore\n      0x20\n      add\n      dup3\n      dup1\n      sload\n      tag_35\n      swap1\n      tag_34\n      jump\t// in\n    tag_35:\n      dup1\n      iszero\n      tag_36\n      jumpi\n      dup1\n      0x1f\n      lt\n      tag_37\n      jumpi\n      0x0100\n      dup1\n      dup4\n      sload\n      div\n      mul\n      dup4\n      mstore\n      swap2\n      0x20\n      add\n      swap2\n      jump(tag_36)\n    tag_37:\n      dup3\n      add\n      swap2\n      swap1\n      0x00\n      mstore\n      keccak256(0x00, 0x20)\n      swap1\n    tag_38:\n      dup2\n      sload\n      dup2\n      mstore\n      swap1\n      0x01\n      add\n      swap1\n      0x20\n      add\n      dup1\n      dup4\n      gt\n      tag_38\n      jumpi\n      dup3\n      swap1\n      sub\n      0x1f\n      and\n      dup3\n      add\n      swap2\n    tag_36:\n      pop\n      pop\n      pop\n      pop\n      pop\n      swap1\n      pop\n      dup3\n      jump\t// out\n        /* \"contracts/newStrucLab9.sol\":614:860  function find(uint _id) public view returns (bool) {... */\n    tag_16:\n        /* \"contracts/newStrucLab9.sol\":659:663  bool */\n      0x00\n        /* \"contracts/newStrucLab9.sol\":681:687  uint i */\n      dup1\n        /* \"contracts/newStrucLab9.sol\":690:691  0 */\n      0x00\n        /* \"contracts/newStrucLab9.sol\":681:691  uint i = 0 */\n      swap1\n      pop\n        /* \"contracts/newStrucLab9.sol\":676:812  for (uint i = 0; i < users.length; i++) {... */\n    tag_40:\n        /* \"contracts/newStrucLab9.sol\":697:702  users */\n      0x00\n        /* \"contracts/newStrucLab9.sol\":697:709  users.length */\n      dup1\n      sload\n      swap1\n      pop\n        /* \"contracts/newStrucLab9.sol\":693:694  i */\n      dup2\n        /* \"contracts/newStrucLab9.sol\":693:709  i < users.length */\n      lt\n        /* \"contracts/newStrucLab9.sol\":676:812  for (uint i = 0; i < users.length; i++) {... */\n      iszero\n      tag_41\n      jumpi\n        /* \"contracts/newStrucLab9.sol\":750:753  _id */\n      dup3\n        /* \"contracts/newStrucLab9.sol\":735:740  users */\n      0x00\n        /* \"contracts/newStrucLab9.sol\":741:742  i */\n      dup3\n        /* \"contracts/newStrucLab9.sol\":735:743  users[i] */\n      dup2\n      sload\n      dup2\n      lt\n      tag_43\n      jumpi\n      tag_44\n      tag_45\n      jump\t// in\n    tag_44:\n    tag_43:\n      swap1\n      0x00\n      mstore\n      keccak256(0x00, 0x20)\n      swap1\n      0x02\n      mul\n      add\n        /* \"contracts/newStrucLab9.sol\":735:746  users[i].id */\n      0x00\n      add\n      sload\n        /* \"contracts/newStrucLab9.sol\":735:753  users[i].id == _id */\n      sub\n        /* \"contracts/newStrucLab9.sol\":731:801  if (users[i].id == _id) {... */\n      tag_47\n      jumpi\n        /* \"contracts/newStrucLab9.sol\":781:785  true */\n      0x01\n        /* \"contracts/newStrucLab9.sol\":774:785  return true */\n      swap2\n      pop\n      pop\n      jump(tag_39)\n        /* \"contracts/newStrucLab9.sol\":731:801  if (users[i].id == _id) {... */\n    tag_47:\n        /* \"contracts/newStrucLab9.sol\":711:714  i++ */\n      dup1\n      dup1\n      0x01\n      add\n      swap2\n      pop\n      pop\n        /* \"contracts/newStrucLab9.sol\":676:812  for (uint i = 0; i < users.length; i++) {... */\n      jump(tag_40)\n    tag_41:\n      pop\n        /* \"contracts/newStrucLab9.sol\":822:852  revert(\"User does not exist!\") */\n      mload(0x40)\n      0x08c379a000000000000000000000000000000000000000000000000000000000\n      dup2\n      mstore\n      0x04\n      add\n      tag_48\n      swap1\n      tag_49\n      jump\t// in\n    tag_48:\n      mload(0x40)\n      dup1\n      swap2\n      sub\n      swap1\n      revert\n        /* \"contracts/newStrucLab9.sol\":614:860  function find(uint _id) public view returns (bool) {... */\n    tag_39:\n      swap2\n      swap1\n      pop\n      jump\t// out\n        /* \"contracts/newStrucLab9.sol\":172:195  uint public counter = 1 */\n    tag_20:\n      sload(0x01)\n      dup2\n      jump\t// out\n        /* \"contracts/newStrucLab9.sol\":202:317  function insert(string memory _name) public {... */\n    tag_26:\n        /* \"contracts/newStrucLab9.sol\":257:262  users */\n      0x00\n        /* \"contracts/newStrucLab9.sol\":268:288  USER(counter, _name) */\n      mload(0x40)\n      dup1\n      0x40\n      add\n      0x40\n      mstore\n      dup1\n        /* \"contracts/newStrucLab9.sol\":273:280  counter */\n      sload(0x01)\n        /* \"contracts/newStrucLab9.sol\":268:288  USER(counter, _name) */\n      dup2\n      mstore\n      0x20\n      add\n        /* \"contracts/newStrucLab9.sol\":282:287  _name */\n      dup4\n        /* \"contracts/newStrucLab9.sol\":268:288  USER(counter, _name) */\n      dup2\n      mstore\n      pop\n        /* \"contracts/newStrucLab9.sol\":257:289  users.push(USER(counter, _name)) */\n      swap1\n      dup1\n      0x01\n      dup2\n      sload\n      add\n      dup1\n      dup3\n      sstore\n      dup1\n      swap2\n      pop\n      pop\n      0x01\n      swap1\n      sub\n      swap1\n      0x00\n      mstore\n      keccak256(0x00, 0x20)\n      swap1\n      0x02\n      mul\n      add\n      0x00\n      swap1\n      swap2\n      swap1\n      swap2\n      swap1\n      swap2\n      pop\n      0x00\n      dup3\n      add\n      mload\n      dup2\n      0x00\n      add\n      sstore\n      0x20\n      dup3\n      add\n      mload\n      dup2\n      0x01\n      add\n      swap1\n      dup2\n      tag_52\n      swap2\n      swap1\n      tag_53\n      jump\t// in\n    tag_52:\n      pop\n      pop\n      pop\n        /* \"contracts/newStrucLab9.sol\":300:307  counter */\n      0x01\n      0x00\n        /* \"contracts/newStrucLab9.sol\":300:309  counter++ */\n      dup2\n      sload\n      dup1\n      swap3\n      swap2\n      swap1\n      tag_54\n      swap1\n      tag_55\n      jump\t// in\n    tag_54:\n      swap2\n      swap1\n      pop\n      sstore\n      pop\n        /* \"contracts/newStrucLab9.sol\":202:317  function insert(string memory _name) public {... */\n      pop\n      jump\t// out\n        /* \"contracts/newStrucLab9.sol\":323:608  function read(uint _id) public view returns (uint, string memory) {... */\n    tag_29:\n        /* \"contracts/newStrucLab9.sol\":368:372  uint */\n      0x00\n        /* \"contracts/newStrucLab9.sol\":374:387  string memory */\n      0x60\n        /* \"contracts/newStrucLab9.sol\":405:411  uint i */\n      0x00\n        /* \"contracts/newStrucLab9.sol\":400:560  for (uint i = 0; i < users.length; i++) {... */\n    tag_57:\n        /* \"contracts/newStrucLab9.sol\":421:426  users */\n      0x00\n        /* \"contracts/newStrucLab9.sol\":421:433  users.length */\n      dup1\n      sload\n      swap1\n      pop\n        /* \"contracts/newStrucLab9.sol\":417:418  i */\n      dup2\n        /* \"contracts/newStrucLab9.sol\":417:433  i < users.length */\n      lt\n        /* \"contracts/newStrucLab9.sol\":400:560  for (uint i = 0; i < users.length; i++) {... */\n      iszero\n      tag_58\n      jumpi\n        /* \"contracts/newStrucLab9.sol\":474:477  _id */\n      dup4\n        /* \"contracts/newStrucLab9.sol\":459:464  users */\n      0x00\n        /* \"contracts/newStrucLab9.sol\":465:466  i */\n      dup3\n        /* \"contracts/newStrucLab9.sol\":459:467  users[i] */\n      dup2\n      sload\n      dup2\n      lt\n      tag_60\n      jumpi\n      tag_61\n      tag_45\n      jump\t// in\n    tag_61:\n    tag_60:\n      swap1\n      0x00\n      mstore\n      keccak256(0x00, 0x20)\n      swap1\n      0x02\n      mul\n      add\n        /* \"contracts/newStrucLab9.sol\":459:470  users[i].id */\n      0x00\n      add\n      sload\n        /* \"contracts/newStrucLab9.sol\":459:477  users[i].id == _id */\n      sub\n        /* \"contracts/newStrucLab9.sol\":455:549  if (users[i].id == _id) {... */\n      tag_63\n      jumpi\n        /* \"contracts/newStrucLab9.sol\":506:511  users */\n      0x00\n        /* \"contracts/newStrucLab9.sol\":512:513  i */\n      dup2\n        /* \"contracts/newStrucLab9.sol\":506:514  users[i] */\n      dup2\n      sload\n      dup2\n      lt\n      tag_64\n      jumpi\n      tag_65\n      tag_45\n      jump\t// in\n    tag_65:\n    tag_64:\n      swap1\n      0x00\n      mstore\n      keccak256(0x00, 0x20)\n      swap1\n      0x02\n      mul\n      add\n        /* \"contracts/newStrucLab9.sol\":506:517  users[i].id */\n      0x00\n      add\n      sload\n        /* \"contracts/newStrucLab9.sol\":519:524  users */\n      0x00\n        /* \"contracts/newStrucLab9.sol\":525:526  i */\n      dup3\n        /* \"contracts/newStrucLab9.sol\":519:527  users[i] */\n      dup2\n      sload\n      dup2\n      lt\n      tag_67\n      jumpi\n      tag_68\n      tag_45\n      jump\t// in\n    tag_68:\n    tag_67:\n      swap1\n      0x00\n      mstore\n      keccak256(0x00, 0x20)\n      swap1\n      0x02\n      mul\n      add\n        /* \"contracts/newStrucLab9.sol\":519:532  users[i].name */\n      0x01\n      add\n        /* \"contracts/newStrucLab9.sol\":498:533  return (users[i].id, users[i].name) */\n      dup1\n      dup1\n      sload\n      tag_70\n      swap1\n      tag_34\n      jump\t// in\n    tag_70:\n      dup1\n      0x1f\n      add\n      0x20\n      dup1\n      swap2\n      div\n      mul\n      0x20\n      add\n      mload(0x40)\n      swap1\n      dup2\n      add\n      0x40\n      mstore\n      dup1\n      swap3\n      swap2\n      swap1\n      dup2\n      dup2\n      mstore\n      0x20\n      add\n      dup3\n      dup1\n      sload\n      tag_71\n      swap1\n      tag_34\n      jump\t// in\n    tag_71:\n      dup1\n      iszero\n      tag_72\n      jumpi\n      dup1\n      0x1f\n      lt\n      tag_73\n      jumpi\n      0x0100\n      dup1\n      dup4\n      sload\n      div\n      mul\n      dup4\n      mstore\n      swap2\n      0x20\n      add\n      swap2\n      jump(tag_72)\n    tag_73:\n      dup3\n      add\n      swap2\n      swap1\n      0x00\n      mstore\n      keccak256(0x00, 0x20)\n      swap1\n    tag_74:\n      dup2\n      sload\n      dup2\n      mstore\n      swap1\n      0x01\n      add\n      swap1\n      0x20\n      add\n      dup1\n      dup4\n      gt\n      tag_74\n      jumpi\n      dup3\n      swap1\n      sub\n      0x1f\n      and\n      dup3\n      add\n      swap2\n    tag_72:\n      pop\n      pop\n      pop\n      pop\n      pop\n      swap1\n      pop\n      swap3\n      pop\n      swap3\n      pop\n      pop\n      jump(tag_56)\n        /* \"contracts/newStrucLab9.sol\":455:549  if (users[i].id == _id) {... */\n    tag_63:\n        /* \"contracts/newStrucLab9.sol\":435:438  i++ */\n      dup1\n      dup1\n      0x01\n      add\n      swap2\n      pop\n      pop\n        /* \"contracts/newStrucLab9.sol\":400:560  for (uint i = 0; i < users.length; i++) {... */\n      jump(tag_57)\n    tag_58:\n      pop\n        /* \"contracts/newStrucLab9.sol\":570:600  revert(\"User does not exist!\") */\n      mload(0x40)\n      0x08c379a000000000000000000000000000000000000000000000000000000000\n      dup2\n      mstore\n      0x04\n      add\n      tag_75\n      swap1\n      tag_49\n      jump\t// in\n    tag_75:\n      mload(0x40)\n      dup1\n      swap2\n      sub\n      swap1\n      revert\n        /* \"contracts/newStrucLab9.sol\":323:608  function read(uint _id) public view returns (uint, string memory) {... */\n    tag_56:\n      swap2\n      pop\n      swap2\n      jump\t// out\n        /* \"#utility.yul\":7:82   */\n    tag_76:\n        /* \"#utility.yul\":40:46   */\n      0x00\n        /* \"#utility.yul\":73:75   */\n      0x40\n        /* \"#utility.yul\":67:76   */\n      mload\n        /* \"#utility.yul\":57:76   */\n      swap1\n      pop\n        /* \"#utility.yul\":7:82   */\n      swap1\n      jump\t// out\n        /* \"#utility.yul\":88:205   */\n    tag_77:\n        /* \"#utility.yul\":197:198   */\n      0x00\n        /* \"#utility.yul\":194:195   */\n      dup1\n        /* \"#utility.yul\":187:199   */\n      revert\n        /* \"#utility.yul\":211:328   */\n    tag_78:\n        /* \"#utility.yul\":320:321   */\n      0x00\n        /* \"#utility.yul\":317:318   */\n      dup1\n        /* \"#utility.yul\":310:322   */\n      revert\n        /* \"#utility.yul\":334:411   */\n    tag_79:\n        /* \"#utility.yul\":371:378   */\n      0x00\n        /* \"#utility.yul\":400:405   */\n      dup2\n        /* \"#utility.yul\":389:405   */\n      swap1\n      pop\n        /* \"#utility.yul\":334:411   */\n      swap2\n      swap1\n      pop\n      jump\t// out\n        /* \"#utility.yul\":417:539   */\n    tag_80:\n        /* \"#utility.yul\":490:514   */\n      tag_124\n        /* \"#utility.yul\":508:513   */\n      dup2\n        /* \"#utility.yul\":490:514   */\n      tag_79\n      jump\t// in\n    tag_124:\n        /* \"#utility.yul\":483:488   */\n      dup2\n        /* \"#utility.yul\":480:515   */\n      eq\n        /* \"#utility.yul\":470:533   */\n      tag_125\n      jumpi\n        /* \"#utility.yul\":529:530   */\n      0x00\n        /* \"#utility.yul\":526:527   */\n      dup1\n        /* \"#utility.yul\":519:531   */\n      revert\n        /* \"#utility.yul\":470:533   */\n    tag_125:\n        /* \"#utility.yul\":417:539   */\n      pop\n      jump\t// out\n        /* \"#utility.yul\":545:684   */\n    tag_81:\n        /* \"#utility.yul\":591:596   */\n      0x00\n        /* \"#utility.yul\":629:635   */\n      dup2\n        /* \"#utility.yul\":616:636   */\n      calldataload\n        /* \"#utility.yul\":607:636   */\n      swap1\n      pop\n        /* \"#utility.yul\":645:678   */\n      tag_127\n        /* \"#utility.yul\":672:677   */\n      dup2\n        /* \"#utility.yul\":645:678   */\n      tag_80\n      jump\t// in\n    tag_127:\n        /* \"#utility.yul\":545:684   */\n      swap3\n      swap2\n      pop\n      pop\n      jump\t// out\n        /* \"#utility.yul\":690:1019   */\n    tag_10:\n        /* \"#utility.yul\":749:755   */\n      0x00\n        /* \"#utility.yul\":798:800   */\n      0x20\n        /* \"#utility.yul\":786:795   */\n      dup3\n        /* \"#utility.yul\":777:784   */\n      dup5\n        /* \"#utility.yul\":773:796   */\n      sub\n        /* \"#utility.yul\":769:801   */\n      slt\n        /* \"#utility.yul\":766:885   */\n      iszero\n      tag_129\n      jumpi\n        /* \"#utility.yul\":804:883   */\n      tag_130\n      tag_77\n      jump\t// in\n    tag_130:\n        /* \"#utility.yul\":766:885   */\n    tag_129:\n        /* \"#utility.yul\":924:925   */\n      0x00\n        /* \"#utility.yul\":949:1002   */\n      tag_131\n        /* \"#utility.yul\":994:1001   */\n      dup5\n        /* \"#utility.yul\":985:991   */\n      dup3\n        /* \"#utility.yul\":974:983   */\n      dup6\n        /* \"#utility.yul\":970:992   */\n      add\n        /* \"#utility.yul\":949:1002   */\n      tag_81\n      jump\t// in\n    tag_131:\n        /* \"#utility.yul\":939:1002   */\n      swap2\n      pop\n        /* \"#utility.yul\":895:1012   */\n      pop\n        /* \"#utility.yul\":690:1019   */\n      swap3\n      swap2\n      pop\n      pop\n      jump\t// out\n        /* \"#utility.yul\":1025:1143   */\n    tag_82:\n        /* \"#utility.yul\":1112:1136   */\n      tag_133\n        /* \"#utility.yul\":1130:1135   */\n      dup2\n        /* \"#utility.yul\":1112:1136   */\n      tag_79\n      jump\t// in\n    tag_133:\n        /* \"#utility.yul\":1107:1110   */\n      dup3\n        /* \"#utility.yul\":1100:1137   */\n      mstore\n        /* \"#utility.yul\":1025:1143   */\n      pop\n      pop\n      jump\t// out\n        /* \"#utility.yul\":1149:1248   */\n    tag_83:\n        /* \"#utility.yul\":1201:1207   */\n      0x00\n        /* \"#utility.yul\":1235:1240   */\n      dup2\n        /* \"#utility.yul\":1229:1241   */\n      mload\n        /* \"#utility.yul\":1219:1241   */\n      swap1\n      pop\n        /* \"#utility.yul\":1149:1248   */\n      swap2\n      swap1\n      pop\n      jump\t// out\n        /* \"#utility.yul\":1254:1423   */\n    tag_84:\n        /* \"#utility.yul\":1338:1349   */\n      0x00\n        /* \"#utility.yul\":1372:1378   */\n      dup3\n        /* \"#utility.yul\":1367:1370   */\n      dup3\n        /* \"#utility.yul\":1360:1379   */\n      mstore\n        /* \"#utility.yul\":1412:1416   */\n      0x20\n        /* \"#utility.yul\":1407:1410   */\n      dup3\n        /* \"#utility.yul\":1403:1417   */\n      add\n        /* \"#utility.yul\":1388:1417   */\n      swap1\n      pop\n        /* \"#utility.yul\":1254:1423   */\n      swap3\n      swap2\n      pop\n      pop\n      jump\t// out\n        /* \"#utility.yul\":1429:1568   */\n    tag_85:\n        /* \"#utility.yul\":1518:1524   */\n      dup3\n        /* \"#utility.yul\":1513:1516   */\n      dup2\n        /* \"#utility.yul\":1508:1511   */\n      dup4\n        /* \"#utility.yul\":1502:1525   */\n      mcopy\n        /* \"#utility.yul\":1559:1560   */\n      0x00\n        /* \"#utility.yul\":1550:1556   */\n      dup4\n        /* \"#utility.yul\":1545:1548   */\n      dup4\n        /* \"#utility.yul\":1541:1557   */\n      add\n        /* \"#utility.yul\":1534:1561   */\n      mstore\n        /* \"#utility.yul\":1429:1568   */\n      pop\n      pop\n      pop\n      jump\t// out\n        /* \"#utility.yul\":1574:1676   */\n    tag_86:\n        /* \"#utility.yul\":1615:1621   */\n      0x00\n        /* \"#utility.yul\":1666:1668   */\n      0x1f\n        /* \"#utility.yul\":1662:1669   */\n      not\n        /* \"#utility.yul\":1657:1659   */\n      0x1f\n        /* \"#utility.yul\":1650:1655   */\n      dup4\n        /* \"#utility.yul\":1646:1660   */\n      add\n        /* \"#utility.yul\":1642:1670   */\n      and\n        /* \"#utility.yul\":1632:1670   */\n      swap1\n      pop\n        /* \"#utility.yul\":1574:1676   */\n      swap2\n      swap1\n      pop\n      jump\t// out\n        /* \"#utility.yul\":1682:2059   */\n    tag_87:\n        /* \"#utility.yul\":1770:1773   */\n      0x00\n        /* \"#utility.yul\":1798:1837   */\n      tag_139\n        /* \"#utility.yul\":1831:1836   */\n      dup3\n        /* \"#utility.yul\":1798:1837   */\n      tag_83\n      jump\t// in\n    tag_139:\n        /* \"#utility.yul\":1853:1924   */\n      tag_140\n        /* \"#utility.yul\":1917:1923   */\n      dup2\n        /* \"#utility.yul\":1912:1915   */\n      dup6\n        /* \"#utility.yul\":1853:1924   */\n      tag_84\n      jump\t// in\n    tag_140:\n        /* \"#utility.yul\":1846:1924   */\n      swap4\n      pop\n        /* \"#utility.yul\":1933:1998   */\n      tag_141\n        /* \"#utility.yul\":1991:1997   */\n      dup2\n        /* \"#utility.yul\":1986:1989   */\n      dup6\n        /* \"#utility.yul\":1979:1983   */\n      0x20\n        /* \"#utility.yul\":1972:1977   */\n      dup7\n        /* \"#utility.yul\":1968:1984   */\n      add\n        /* \"#utility.yul\":1933:1998   */\n      tag_85\n      jump\t// in\n    tag_141:\n        /* \"#utility.yul\":2023:2052   */\n      tag_142\n        /* \"#utility.yul\":2045:2051   */\n      dup2\n        /* \"#utility.yul\":2023:2052   */\n      tag_86\n      jump\t// in\n    tag_142:\n        /* \"#utility.yul\":2018:2021   */\n      dup5\n        /* \"#utility.yul\":2014:2053   */\n      add\n        /* \"#utility.yul\":2007:2053   */\n      swap2\n      pop\n        /* \"#utility.yul\":1774:2059   */\n      pop\n        /* \"#utility.yul\":1682:2059   */\n      swap3\n      swap2\n      pop\n      pop\n      jump\t// out\n        /* \"#utility.yul\":2065:2488   */\n    tag_13:\n        /* \"#utility.yul\":2206:2210   */\n      0x00\n        /* \"#utility.yul\":2244:2246   */\n      0x40\n        /* \"#utility.yul\":2233:2242   */\n      dup3\n        /* \"#utility.yul\":2229:2247   */\n      add\n        /* \"#utility.yul\":2221:2247   */\n      swap1\n      pop\n        /* \"#utility.yul\":2257:2328   */\n      tag_144\n        /* \"#utility.yul\":2325:2326   */\n      0x00\n        /* \"#utility.yul\":2314:2323   */\n      dup4\n        /* \"#utility.yul\":2310:2327   */\n      add\n        /* \"#utility.yul\":2301:2307   */\n      dup6\n        /* \"#utility.yul\":2257:2328   */\n      tag_82\n      jump\t// in\n    tag_144:\n        /* \"#utility.yul\":2375:2384   */\n      dup2\n        /* \"#utility.yul\":2369:2373   */\n      dup2\n        /* \"#utility.yul\":2365:2385   */\n      sub\n        /* \"#utility.yul\":2360:2362   */\n      0x20\n        /* \"#utility.yul\":2349:2358   */\n      dup4\n        /* \"#utility.yul\":2345:2363   */\n      add\n        /* \"#utility.yul\":2338:2386   */\n      mstore\n        /* \"#utility.yul\":2403:2481   */\n      tag_145\n        /* \"#utility.yul\":2476:2480   */\n      dup2\n        /* \"#utility.yul\":2467:2473   */\n      dup5\n        /* \"#utility.yul\":2403:2481   */\n      tag_87\n      jump\t// in\n    tag_145:\n        /* \"#utility.yul\":2395:2481   */\n      swap1\n      pop\n        /* \"#utility.yul\":2065:2488   */\n      swap4\n      swap3\n      pop\n      pop\n      pop\n      jump\t// out\n        /* \"#utility.yul\":2494:2584   */\n    tag_88:\n        /* \"#utility.yul\":2528:2535   */\n      0x00\n        /* \"#utility.yul\":2571:2576   */\n      dup2\n        /* \"#utility.yul\":2564:2577   */\n      iszero\n        /* \"#utility.yul\":2557:2578   */\n      iszero\n        /* \"#utility.yul\":2546:2578   */\n      swap1\n      pop\n        /* \"#utility.yul\":2494:2584   */\n      swap2\n      swap1\n      pop\n      jump\t// out\n        /* \"#utility.yul\":2590:2699   */\n    tag_89:\n        /* \"#utility.yul\":2671:2692   */\n      tag_148\n        /* \"#utility.yul\":2686:2691   */\n      dup2\n        /* \"#utility.yul\":2671:2692   */\n      tag_88\n      jump\t// in\n    tag_148:\n        /* \"#utility.yul\":2666:2669   */\n      dup3\n        /* \"#utility.yul\":2659:2693   */\n      mstore\n        /* \"#utility.yul\":2590:2699   */\n      pop\n      pop\n      jump\t// out\n        /* \"#utility.yul\":2705:2915   */\n    tag_18:\n        /* \"#utility.yul\":2792:2796   */\n      0x00\n        /* \"#utility.yul\":2830:2832   */\n      0x20\n        /* \"#utility.yul\":2819:2828   */\n      dup3\n        /* \"#utility.yul\":2815:2833   */\n      add\n        /* \"#utility.yul\":2807:2833   */\n      swap1\n      pop\n        /* \"#utility.yul\":2843:2908   */\n      tag_150\n        /* \"#utility.yul\":2905:2906   */\n      0x00\n        /* \"#utility.yul\":2894:2903   */\n      dup4\n        /* \"#utility.yul\":2890:2907   */\n      add\n        /* \"#utility.yul\":2881:2887   */\n      dup5\n        /* \"#utility.yul\":2843:2908   */\n      tag_89\n      jump\t// in\n    tag_150:\n        /* \"#utility.yul\":2705:2915   */\n      swap3\n      swap2\n      pop\n      pop\n      jump\t// out\n        /* \"#utility.yul\":2921:3143   */\n    tag_22:\n        /* \"#utility.yul\":3014:3018   */\n      0x00\n        /* \"#utility.yul\":3052:3054   */\n      0x20\n        /* \"#utility.yul\":3041:3050   */\n      dup3\n        /* \"#utility.yul\":3037:3055   */\n      add\n        /* \"#utility.yul\":3029:3055   */\n      swap1\n      pop\n        /* \"#utility.yul\":3065:3136   */\n      tag_152\n        /* \"#utility.yul\":3133:3134   */\n      0x00\n        /* \"#utility.yul\":3122:3131   */\n      dup4\n        /* \"#utility.yul\":3118:3135   */\n      add\n        /* \"#utility.yul\":3109:3115   */\n      dup5\n        /* \"#utility.yul\":3065:3136   */\n      tag_82\n      jump\t// in\n    tag_152:\n        /* \"#utility.yul\":2921:3143   */\n      swap3\n      swap2\n      pop\n      pop\n      jump\t// out\n        /* \"#utility.yul\":3149:3266   */\n    tag_90:\n        /* \"#utility.yul\":3258:3259   */\n      0x00\n        /* \"#utility.yul\":3255:3256   */\n      dup1\n        /* \"#utility.yul\":3248:3260   */\n      revert\n        /* \"#utility.yul\":3272:3389   */\n    tag_91:\n        /* \"#utility.yul\":3381:3382   */\n      0x00\n        /* \"#utility.yul\":3378:3379   */\n      dup1\n        /* \"#utility.yul\":3371:3383   */\n      revert\n        /* \"#utility.yul\":3395:3575   */\n    tag_92:\n        /* \"#utility.yul\":3443:3520   */\n      0x4e487b7100000000000000000000000000000000000000000000000000000000\n        /* \"#utility.yul\":3440:3441   */\n      0x00\n        /* \"#utility.yul\":3433:3521   */\n      mstore\n        /* \"#utility.yul\":3540:3544   */\n      0x41\n        /* \"#utility.yul\":3537:3538   */\n      0x04\n        /* \"#utility.yul\":3530:3545   */\n      mstore\n        /* \"#utility.yul\":3564:3568   */\n      0x24\n        /* \"#utility.yul\":3561:3562   */\n      0x00\n        /* \"#utility.yul\":3554:3569   */\n      revert\n        /* \"#utility.yul\":3581:3862   */\n    tag_93:\n        /* \"#utility.yul\":3664:3691   */\n      tag_157\n        /* \"#utility.yul\":3686:3690   */\n      dup3\n        /* \"#utility.yul\":3664:3691   */\n      tag_86\n      jump\t// in\n    tag_157:\n        /* \"#utility.yul\":3656:3662   */\n      dup2\n        /* \"#utility.yul\":3652:3692   */\n      add\n        /* \"#utility.yul\":3794:3800   */\n      dup2\n        /* \"#utility.yul\":3782:3792   */\n      dup2\n        /* \"#utility.yul\":3779:3801   */\n      lt\n        /* \"#utility.yul\":3758:3776   */\n      0xffffffffffffffff\n        /* \"#utility.yul\":3746:3756   */\n      dup3\n        /* \"#utility.yul\":3743:3777   */\n      gt\n        /* \"#utility.yul\":3740:3802   */\n      or\n        /* \"#utility.yul\":3737:3825   */\n      iszero\n      tag_158\n      jumpi\n        /* \"#utility.yul\":3805:3823   */\n      tag_159\n      tag_92\n      jump\t// in\n    tag_159:\n        /* \"#utility.yul\":3737:3825   */\n    tag_158:\n        /* \"#utility.yul\":3845:3855   */\n      dup1\n        /* \"#utility.yul\":3841:3843   */\n      0x40\n        /* \"#utility.yul\":3834:3856   */\n      mstore\n        /* \"#utility.yul\":3624:3862   */\n      pop\n        /* \"#utility.yul\":3581:3862   */\n      pop\n      pop\n      jump\t// out\n        /* \"#utility.yul\":3868:3997   */\n    tag_94:\n        /* \"#utility.yul\":3902:3908   */\n      0x00\n        /* \"#utility.yul\":3929:3949   */\n      tag_161\n      tag_76\n      jump\t// in\n    tag_161:\n        /* \"#utility.yul\":3919:3949   */\n      swap1\n      pop\n        /* \"#utility.yul\":3958:3991   */\n      tag_162\n        /* \"#utility.yul\":3986:3990   */\n      dup3\n        /* \"#utility.yul\":3978:3984   */\n      dup3\n        /* \"#utility.yul\":3958:3991   */\n      tag_93\n      jump\t// in\n    tag_162:\n        /* \"#utility.yul\":3868:3997   */\n      swap2\n      swap1\n      pop\n      jump\t// out\n        /* \"#utility.yul\":4003:4311   */\n    tag_95:\n        /* \"#utility.yul\":4065:4069   */\n      0x00\n        /* \"#utility.yul\":4155:4173   */\n      0xffffffffffffffff\n        /* \"#utility.yul\":4147:4153   */\n      dup3\n        /* \"#utility.yul\":4144:4174   */\n      gt\n        /* \"#utility.yul\":4141:4197   */\n      iszero\n      tag_164\n      jumpi\n        /* \"#utility.yul\":4177:4195   */\n      tag_165\n      tag_92\n      jump\t// in\n    tag_165:\n        /* \"#utility.yul\":4141:4197   */\n    tag_164:\n        /* \"#utility.yul\":4215:4244   */\n      tag_166\n        /* \"#utility.yul\":4237:4243   */\n      dup3\n        /* \"#utility.yul\":4215:4244   */\n      tag_86\n      jump\t// in\n    tag_166:\n        /* \"#utility.yul\":4207:4244   */\n      swap1\n      pop\n        /* \"#utility.yul\":4299:4303   */\n      0x20\n        /* \"#utility.yul\":4293:4297   */\n      dup2\n        /* \"#utility.yul\":4289:4304   */\n      add\n        /* \"#utility.yul\":4281:4304   */\n      swap1\n      pop\n        /* \"#utility.yul\":4003:4311   */\n      swap2\n      swap1\n      pop\n      jump\t// out\n        /* \"#utility.yul\":4317:4465   */\n    tag_96:\n        /* \"#utility.yul\":4415:4421   */\n      dup3\n        /* \"#utility.yul\":4410:4413   */\n      dup2\n        /* \"#utility.yul\":4405:4408   */\n      dup4\n        /* \"#utility.yul\":4392:4422   */\n      calldatacopy\n        /* \"#utility.yul\":4456:4457   */\n      0x00\n        /* \"#utility.yul\":4447:4453   */\n      dup4\n        /* \"#utility.yul\":4442:4445   */\n      dup4\n        /* \"#utility.yul\":4438:4454   */\n      add\n        /* \"#utility.yul\":4431:4458   */\n      mstore\n        /* \"#utility.yul\":4317:4465   */\n      pop\n      pop\n      pop\n      jump\t// out\n        /* \"#utility.yul\":4471:4896   */\n    tag_97:\n        /* \"#utility.yul\":4549:4554   */\n      0x00\n        /* \"#utility.yul\":4574:4640   */\n      tag_169\n        /* \"#utility.yul\":4590:4639   */\n      tag_170\n        /* \"#utility.yul\":4632:4638   */\n      dup5\n        /* \"#utility.yul\":4590:4639   */\n      tag_95\n      jump\t// in\n    tag_170:\n        /* \"#utility.yul\":4574:4640   */\n      tag_94\n      jump\t// in\n    tag_169:\n        /* \"#utility.yul\":4565:4640   */\n      swap1\n      pop\n        /* \"#utility.yul\":4663:4669   */\n      dup3\n        /* \"#utility.yul\":4656:4661   */\n      dup2\n        /* \"#utility.yul\":4649:4670   */\n      mstore\n        /* \"#utility.yul\":4701:4705   */\n      0x20\n        /* \"#utility.yul\":4694:4699   */\n      dup2\n        /* \"#utility.yul\":4690:4706   */\n      add\n        /* \"#utility.yul\":4739:4742   */\n      dup5\n        /* \"#utility.yul\":4730:4736   */\n      dup5\n        /* \"#utility.yul\":4725:4728   */\n      dup5\n        /* \"#utility.yul\":4721:4737   */\n      add\n        /* \"#utility.yul\":4718:4743   */\n      gt\n        /* \"#utility.yul\":4715:4827   */\n      iszero\n      tag_171\n      jumpi\n        /* \"#utility.yul\":4746:4825   */\n      tag_172\n      tag_91\n      jump\t// in\n    tag_172:\n        /* \"#utility.yul\":4715:4827   */\n    tag_171:\n        /* \"#utility.yul\":4836:4890   */\n      tag_173\n        /* \"#utility.yul\":4883:4889   */\n      dup5\n        /* \"#utility.yul\":4878:4881   */\n      dup3\n        /* \"#utility.yul\":4873:4876   */\n      dup6\n        /* \"#utility.yul\":4836:4890   */\n      tag_96\n      jump\t// in\n    tag_173:\n        /* \"#utility.yul\":4555:4896   */\n      pop\n        /* \"#utility.yul\":4471:4896   */\n      swap4\n      swap3\n      pop\n      pop\n      pop\n      jump\t// out\n        /* \"#utility.yul\":4916:5256   */\n    tag_98:\n        /* \"#utility.yul\":4972:4977   */\n      0x00\n        /* \"#utility.yul\":5021:5024   */\n      dup3\n        /* \"#utility.yul\":5014:5018   */\n      0x1f\n        /* \"#utility.yul\":5006:5012   */\n      dup4\n        /* \"#utility.yul\":5002:5019   */\n      add\n        /* \"#utility.yul\":4998:5025   */\n      slt\n        /* \"#utility.yul\":4988:5110   */\n      tag_175\n      jumpi\n        /* \"#utility.yul\":5029:5108   */\n      tag_176\n      tag_90\n      jump\t// in\n    tag_176:\n        /* \"#utility.yul\":4988:5110   */\n    tag_175:\n        /* \"#utility.yul\":5146:5152   */\n      dup2\n        /* \"#utility.yul\":5133:5153   */\n      calldataload\n        /* \"#utility.yul\":5171:5250   */\n      tag_177\n        /* \"#utility.yul\":5246:5249   */\n      dup5\n        /* \"#utility.yul\":5238:5244   */\n      dup3\n        /* \"#utility.yul\":5231:5235   */\n      0x20\n        /* \"#utility.yul\":5223:5229   */\n      dup7\n        /* \"#utility.yul\":5219:5236   */\n      add\n        /* \"#utility.yul\":5171:5250   */\n      tag_97\n      jump\t// in\n    tag_177:\n        /* \"#utility.yul\":5162:5250   */\n      swap2\n      pop\n        /* \"#utility.yul\":4978:5256   */\n      pop\n        /* \"#utility.yul\":4916:5256   */\n      swap3\n      swap2\n      pop\n      pop\n      jump\t// out\n        /* \"#utility.yul\":5262:5771   */\n    tag_25:\n        /* \"#utility.yul\":5331:5337   */\n      0x00\n        /* \"#utility.yul\":5380:5382   */\n      0x20\n        /* \"#utility.yul\":5368:5377   */\n      dup3\n        /* \"#utility.yul\":5359:5366   */\n      dup5\n        /* \"#utility.yul\":5355:5378   */\n      sub\n        /* \"#utility.yul\":5351:5383   */\n      slt\n        /* \"#utility.yul\":5348:5467   */\n      iszero\n      tag_179\n      jumpi\n        /* \"#utility.yul\":5386:5465   */\n      tag_180\n      tag_77\n      jump\t// in\n    tag_180:\n        /* \"#utility.yul\":5348:5467   */\n    tag_179:\n        /* \"#utility.yul\":5534:5535   */\n      0x00\n        /* \"#utility.yul\":5523:5532   */\n      dup3\n        /* \"#utility.yul\":5519:5536   */\n      add\n        /* \"#utility.yul\":5506:5537   */\n      calldataload\n        /* \"#utility.yul\":5564:5582   */\n      0xffffffffffffffff\n        /* \"#utility.yul\":5556:5562   */\n      dup2\n        /* \"#utility.yul\":5553:5583   */\n      gt\n        /* \"#utility.yul\":5550:5667   */\n      iszero\n      tag_181\n      jumpi\n        /* \"#utility.yul\":5586:5665   */\n      tag_182\n      tag_78\n      jump\t// in\n    tag_182:\n        /* \"#utility.yul\":5550:5667   */\n    tag_181:\n        /* \"#utility.yul\":5691:5754   */\n      tag_183\n        /* \"#utility.yul\":5746:5753   */\n      dup5\n        /* \"#utility.yul\":5737:5743   */\n      dup3\n        /* \"#utility.yul\":5726:5735   */\n      dup6\n        /* \"#utility.yul\":5722:5744   */\n      add\n        /* \"#utility.yul\":5691:5754   */\n      tag_98\n      jump\t// in\n    tag_183:\n        /* \"#utility.yul\":5681:5754   */\n      swap2\n      pop\n        /* \"#utility.yul\":5477:5764   */\n      pop\n        /* \"#utility.yul\":5262:5771   */\n      swap3\n      swap2\n      pop\n      pop\n      jump\t// out\n        /* \"#utility.yul\":5777:5957   */\n    tag_99:\n        /* \"#utility.yul\":5825:5902   */\n      0x4e487b7100000000000000000000000000000000000000000000000000000000\n        /* \"#utility.yul\":5822:5823   */\n      0x00\n        /* \"#utility.yul\":5815:5903   */\n      mstore\n        /* \"#utility.yul\":5922:5926   */\n      0x22\n        /* \"#utility.yul\":5919:5920   */\n      0x04\n        /* \"#utility.yul\":5912:5927   */\n      mstore\n        /* \"#utility.yul\":5946:5950   */\n      0x24\n        /* \"#utility.yul\":5943:5944   */\n      0x00\n        /* \"#utility.yul\":5936:5951   */\n      revert\n        /* \"#utility.yul\":5963:6283   */\n    tag_34:\n        /* \"#utility.yul\":6007:6013   */\n      0x00\n        /* \"#utility.yul\":6044:6045   */\n      0x02\n        /* \"#utility.yul\":6038:6042   */\n      dup3\n        /* \"#utility.yul\":6034:6046   */\n      div\n        /* \"#utility.yul\":6024:6046   */\n      swap1\n      pop\n        /* \"#utility.yul\":6091:6092   */\n      0x01\n        /* \"#utility.yul\":6085:6089   */\n      dup3\n        /* \"#utility.yul\":6081:6093   */\n      and\n        /* \"#utility.yul\":6112:6130   */\n      dup1\n        /* \"#utility.yul\":6102:6183   */\n      tag_186\n      jumpi\n        /* \"#utility.yul\":6168:6172   */\n      0x7f\n        /* \"#utility.yul\":6160:6166   */\n      dup3\n        /* \"#utility.yul\":6156:6173   */\n      and\n        /* \"#utility.yul\":6146:6173   */\n      swap2\n      pop\n        /* \"#utility.yul\":6102:6183   */\n    tag_186:\n        /* \"#utility.yul\":6230:6232   */\n      0x20\n        /* \"#utility.yul\":6222:6228   */\n      dup3\n        /* \"#utility.yul\":6219:6233   */\n      lt\n        /* \"#utility.yul\":6199:6217   */\n      dup2\n        /* \"#utility.yul\":6196:6234   */\n      sub\n        /* \"#utility.yul\":6193:6277   */\n      tag_187\n      jumpi\n        /* \"#utility.yul\":6249:6267   */\n      tag_188\n      tag_99\n      jump\t// in\n    tag_188:\n        /* \"#utility.yul\":6193:6277   */\n    tag_187:\n        /* \"#utility.yul\":6014:6283   */\n      pop\n        /* \"#utility.yul\":5963:6283   */\n      swap2\n      swap1\n      pop\n      jump\t// out\n        /* \"#utility.yul\":6289:6469   */\n    tag_45:\n        /* \"#utility.yul\":6337:6414   */\n      0x4e487b7100000000000000000000000000000000000000000000000000000000\n        /* \"#utility.yul\":6334:6335   */\n      0x00\n        /* \"#utility.yul\":6327:6415   */\n      mstore\n        /* \"#utility.yul\":6434:6438   */\n      0x32\n        /* \"#utility.yul\":6431:6432   */\n      0x04\n        /* \"#utility.yul\":6424:6439   */\n      mstore\n        /* \"#utility.yul\":6458:6462   */\n      0x24\n        /* \"#utility.yul\":6455:6456   */\n      0x00\n        /* \"#utility.yul\":6448:6463   */\n      revert\n        /* \"#utility.yul\":6475:6645   */\n    tag_100:\n        /* \"#utility.yul\":6615:6637   */\n      0x5573657220646f6573206e6f7420657869737421000000000000000000000000\n        /* \"#utility.yul\":6611:6612   */\n      0x00\n        /* \"#utility.yul\":6603:6609   */\n      dup3\n        /* \"#utility.yul\":6599:6613   */\n      add\n        /* \"#utility.yul\":6592:6638   */\n      mstore\n        /* \"#utility.yul\":6475:6645   */\n      pop\n      jump\t// out\n        /* \"#utility.yul\":6651:7017   */\n    tag_101:\n        /* \"#utility.yul\":6793:6796   */\n      0x00\n        /* \"#utility.yul\":6814:6881   */\n      tag_192\n        /* \"#utility.yul\":6878:6880   */\n      0x14\n        /* \"#utility.yul\":6873:6876   */\n      dup4\n        /* \"#utility.yul\":6814:6881   */\n      tag_84\n      jump\t// in\n    tag_192:\n        /* \"#utility.yul\":6807:6881   */\n      swap2\n      pop\n        /* \"#utility.yul\":6890:6983   */\n      tag_193\n        /* \"#utility.yul\":6979:6982   */\n      dup3\n        /* \"#utility.yul\":6890:6983   */\n      tag_100\n      jump\t// in\n    tag_193:\n        /* \"#utility.yul\":7008:7010   */\n      0x20\n        /* \"#utility.yul\":7003:7006   */\n      dup3\n        /* \"#utility.yul\":6999:7011   */\n      add\n        /* \"#utility.yul\":6992:7011   */\n      swap1\n      pop\n        /* \"#utility.yul\":6651:7017   */\n      swap2\n      swap1\n      pop\n      jump\t// out\n        /* \"#utility.yul\":7023:7442   */\n    tag_49:\n        /* \"#utility.yul\":7189:7193   */\n      0x00\n        /* \"#utility.yul\":7227:7229   */\n      0x20\n        /* \"#utility.yul\":7216:7225   */\n      dup3\n        /* \"#utility.yul\":7212:7230   */\n      add\n        /* \"#utility.yul\":7204:7230   */\n      swap1\n      pop\n        /* \"#utility.yul\":7276:7285   */\n      dup2\n        /* \"#utility.yul\":7270:7274   */\n      dup2\n        /* \"#utility.yul\":7266:7286   */\n      sub\n        /* \"#utility.yul\":7262:7263   */\n      0x00\n        /* \"#utility.yul\":7251:7260   */\n      dup4\n        /* \"#utility.yul\":7247:7264   */\n      add\n        /* \"#utility.yul\":7240:7287   */\n      mstore\n        /* \"#utility.yul\":7304:7435   */\n      tag_195\n        /* \"#utility.yul\":7430:7434   */\n      dup2\n        /* \"#utility.yul\":7304:7435   */\n      tag_101\n      jump\t// in\n    tag_195:\n        /* \"#utility.yul\":7296:7435   */\n      swap1\n      pop\n        /* \"#utility.yul\":7023:7442   */\n      swap2\n      swap1\n      pop\n      jump\t// out\n        /* \"#utility.yul\":7448:7589   */\n    tag_102:\n        /* \"#utility.yul\":7497:7501   */\n      0x00\n        /* \"#utility.yul\":7520:7523   */\n      dup2\n        /* \"#utility.yul\":7512:7523   */\n      swap1\n      pop\n        /* \"#utility.yul\":7543:7546   */\n      dup2\n        /* \"#utility.yul\":7540:7541   */\n      0x00\n        /* \"#utility.yul\":7533:7547   */\n      mstore\n        /* \"#utility.yul\":7577:7581   */\n      0x20\n        /* \"#utility.yul\":7574:7575   */\n      0x00\n        /* \"#utility.yul\":7564:7582   */\n      keccak256\n        /* \"#utility.yul\":7556:7582   */\n      swap1\n      pop\n        /* \"#utility.yul\":7448:7589   */\n      swap2\n      swap1\n      pop\n      jump\t// out\n        /* \"#utility.yul\":7595:7688   */\n    tag_103:\n        /* \"#utility.yul\":7632:7638   */\n      0x00\n        /* \"#utility.yul\":7679:7681   */\n      0x20\n        /* \"#utility.yul\":7674:7676   */\n      0x1f\n        /* \"#utility.yul\":7667:7672   */\n      dup4\n        /* \"#utility.yul\":7663:7677   */\n      add\n        /* \"#utility.yul\":7659:7682   */\n      div\n        /* \"#utility.yul\":7649:7682   */\n      swap1\n      pop\n        /* \"#utility.yul\":7595:7688   */\n      swap2\n      swap1\n      pop\n      jump\t// out\n        /* \"#utility.yul\":7694:7801   */\n    tag_104:\n        /* \"#utility.yul\":7738:7746   */\n      0x00\n        /* \"#utility.yul\":7788:7793   */\n      dup3\n        /* \"#utility.yul\":7782:7786   */\n      dup3\n        /* \"#utility.yul\":7778:7794   */\n      shl\n        /* \"#utility.yul\":7757:7794   */\n      swap1\n      pop\n        /* \"#utility.yul\":7694:7801   */\n      swap3\n      swap2\n      pop\n      pop\n      jump\t// out\n        /* \"#utility.yul\":7807:8200   */\n    tag_105:\n        /* \"#utility.yul\":7876:7882   */\n      0x00\n        /* \"#utility.yul\":7926:7927   */\n      0x08\n        /* \"#utility.yul\":7914:7924   */\n      dup4\n        /* \"#utility.yul\":7910:7928   */\n      mul\n        /* \"#utility.yul\":7949:8046   */\n      tag_200\n        /* \"#utility.yul\":7979:8045   */\n      0xffffffffffffffffffffffffffffffffffffffffffffffffffffffffffffffff\n        /* \"#utility.yul\":7968:7977   */\n      dup3\n        /* \"#utility.yul\":7949:8046   */\n      tag_104\n      jump\t// in\n    tag_200:\n        /* \"#utility.yul\":8067:8106   */\n      tag_201\n        /* \"#utility.yul\":8097:8105   */\n      dup7\n        /* \"#utility.yul\":8086:8095   */\n      dup4\n        /* \"#utility.yul\":8067:8106   */\n      tag_104\n      jump\t// in\n    tag_201:\n        /* \"#utility.yul\":8055:8106   */\n      swap6\n      pop\n        /* \"#utility.yul\":8139:8143   */\n      dup1\n        /* \"#utility.yul\":8135:8144   */\n      not\n        /* \"#utility.yul\":8128:8133   */\n      dup5\n        /* \"#utility.yul\":8124:8145   */\n      and\n        /* \"#utility.yul\":8115:8145   */\n      swap4\n      pop\n        /* \"#utility.yul\":8188:8192   */\n      dup1\n        /* \"#utility.yul\":8178:8186   */\n      dup7\n        /* \"#utility.yul\":8174:8193   */\n      and\n        /* \"#utility.yul\":8167:8172   */\n      dup5\n        /* \"#utility.yul\":8164:8194   */\n      or\n        /* \"#utility.yul\":8154:8194   */\n      swap3\n      pop\n        /* \"#utility.yul\":7883:8200   */\n      pop\n      pop\n        /* \"#utility.yul\":7807:8200   */\n      swap4\n      swap3\n      pop\n      pop\n      pop\n      jump\t// out\n        /* \"#utility.yul\":8206:8266   */\n    tag_106:\n        /* \"#utility.yul\":8234:8237   */\n      0x00\n        /* \"#utility.yul\":8255:8260   */\n      dup2\n        /* \"#utility.yul\":8248:8260   */\n      swap1\n      pop\n        /* \"#utility.yul\":8206:8266   */\n      swap2\n      swap1\n      pop\n      jump\t// out\n        /* \"#utility.yul\":8272:8414   */\n    tag_107:\n        /* \"#utility.yul\":8322:8331   */\n      0x00\n        /* \"#utility.yul\":8355:8408   */\n      tag_204\n        /* \"#utility.yul\":8373:8407   */\n      tag_205\n        /* \"#utility.yul\":8382:8406   */\n      tag_206\n        /* \"#utility.yul\":8400:8405   */\n      dup5\n        /* \"#utility.yul\":8382:8406   */\n      tag_79\n      jump\t// in\n    tag_206:\n        /* \"#utility.yul\":8373:8407   */\n      tag_106\n      jump\t// in\n    tag_205:\n        /* \"#utility.yul\":8355:8408   */\n      tag_79\n      jump\t// in\n    tag_204:\n        /* \"#utility.yul\":8342:8408   */\n      swap1\n      pop\n        /* \"#utility.yul\":8272:8414   */\n      swap2\n      swap1\n      pop\n      jump\t// out\n        /* \"#utility.yul\":8420:8495   */\n    tag_108:\n        /* \"#utility.yul\":8463:8466   */\n      0x00\n        /* \"#utility.yul\":8484:8489   */\n      dup2\n        /* \"#utility.yul\":8477:8489   */\n      swap1\n      pop\n        /* \"#utility.yul\":8420:8495   */\n      swap2\n      swap1\n      pop\n      jump\t// out\n        /* \"#utility.yul\":8501:8770   */\n    tag_109:\n        /* \"#utility.yul\":8611:8650   */\n      tag_209\n        /* \"#utility.yul\":8642:8649   */\n      dup4\n        /* \"#utility.yul\":8611:8650   */\n      tag_107\n      jump\t// in\n    tag_209:\n        /* \"#utility.yul\":8672:8763   */\n      tag_210\n        /* \"#utility.yul\":8721:8762   */\n      tag_211\n        /* \"#utility.yul\":8745:8761   */\n      dup3\n        /* \"#utility.yul\":8721:8762   */\n      tag_108\n      jump\t// in\n    tag_211:\n        /* \"#utility.yul\":8713:8719   */\n      dup5\n        /* \"#utility.yul\":8706:8710   */\n      dup5\n        /* \"#utility.yul\":8700:8711   */\n      sload\n        /* \"#utility.yul\":8672:8763   */\n      tag_105\n      jump\t// in\n    tag_210:\n        /* \"#utility.yul\":8666:8670   */\n      dup3\n        /* \"#utility.yul\":8659:8764   */\n      sstore\n        /* \"#utility.yul\":8577:8770   */\n      pop\n        /* \"#utility.yul\":8501:8770   */\n      pop\n      pop\n      pop\n      jump\t// out\n        /* \"#utility.yul\":8776:8849   */\n    tag_110:\n        /* \"#utility.yul\":8821:8824   */\n      0x00\n        /* \"#utility.yul\":8776:8849   */\n      swap1\n      jump\t// out\n        /* \"#utility.yul\":8855:9044   */\n    tag_111:\n        /* \"#utility.yul\":8932:8964   */\n      tag_214\n      tag_110\n      jump\t// in\n    tag_214:\n        /* \"#utility.yul\":8973:9038   */\n      tag_215\n        /* \"#utility.yul\":9031:9037   */\n      dup2\n        /* \"#utility.yul\":9023:9029   */\n      dup5\n        /* \"#utility.yul\":9017:9021   */\n      dup5\n        /* \"#utility.yul\":8973:9038   */\n      tag_109\n      jump\t// in\n    tag_215:\n        /* \"#utility.yul\":8908:9044   */\n      pop\n        /* \"#utility.yul\":8855:9044   */\n      pop\n      pop\n      jump\t// out\n        /* \"#utility.yul\":9050:9236   */\n    tag_112:\n        /* \"#utility.yul\":9110:9230   */\n    tag_217:\n        /* \"#utility.yul\":9127:9130   */\n      dup2\n        /* \"#utility.yul\":9120:9125   */\n      dup2\n        /* \"#utility.yul\":9117:9131   */\n      lt\n        /* \"#utility.yul\":9110:9230   */\n      iszero\n      tag_219\n      jumpi\n        /* \"#utility.yul\":9181:9220   */\n      tag_220\n        /* \"#utility.yul\":9218:9219   */\n      0x00\n        /* \"#utility.yul\":9211:9216   */\n      dup3\n        /* \"#utility.yul\":9181:9220   */\n      tag_111\n      jump\t// in\n    tag_220:\n        /* \"#utility.yul\":9154:9155   */\n      0x01\n        /* \"#utility.yul\":9147:9152   */\n      dup2\n        /* \"#utility.yul\":9143:9156   */\n      add\n        /* \"#utility.yul\":9134:9156   */\n      swap1\n      pop\n        /* \"#utility.yul\":9110:9230   */\n      jump(tag_217)\n    tag_219:\n        /* \"#utility.yul\":9050:9236   */\n      pop\n      pop\n      jump\t// out\n        /* \"#utility.yul\":9242:9785   */\n    tag_113:\n        /* \"#utility.yul\":9343:9345   */\n      0x1f\n        /* \"#utility.yul\":9338:9341   */\n      dup3\n        /* \"#utility.yul\":9335:9346   */\n      gt\n        /* \"#utility.yul\":9332:9778   */\n      iszero\n      tag_222\n      jumpi\n        /* \"#utility.yul\":9377:9415   */\n      tag_223\n        /* \"#utility.yul\":9409:9414   */\n      dup2\n        /* \"#utility.yul\":9377:9415   */\n      tag_102\n      jump\t// in\n    tag_223:\n        /* \"#utility.yul\":9461:9490   */\n      tag_224\n        /* \"#utility.yul\":9479:9489   */\n      dup5\n        /* \"#utility.yul\":9461:9490   */\n      tag_103\n      jump\t// in\n    tag_224:\n        /* \"#utility.yul\":9451:9459   */\n      dup2\n        /* \"#utility.yul\":9447:9491   */\n      add\n        /* \"#utility.yul\":9644:9646   */\n      0x20\n        /* \"#utility.yul\":9632:9642   */\n      dup6\n        /* \"#utility.yul\":9629:9647   */\n      lt\n        /* \"#utility.yul\":9626:9675   */\n      iszero\n      tag_225\n      jumpi\n        /* \"#utility.yul\":9665:9673   */\n      dup2\n        /* \"#utility.yul\":9650:9673   */\n      swap1\n      pop\n        /* \"#utility.yul\":9626:9675   */\n    tag_225:\n        /* \"#utility.yul\":9688:9768   */\n      tag_226\n        /* \"#utility.yul\":9744:9766   */\n      tag_227\n        /* \"#utility.yul\":9762:9765   */\n      dup6\n        /* \"#utility.yul\":9744:9766   */\n      tag_103\n      jump\t// in\n    tag_227:\n        /* \"#utility.yul\":9734:9742   */\n      dup4\n        /* \"#utility.yul\":9730:9767   */\n      add\n        /* \"#utility.yul\":9717:9728   */\n      dup3\n        /* \"#utility.yul\":9688:9768   */\n      tag_112\n      jump\t// in\n    tag_226:\n        /* \"#utility.yul\":9347:9778   */\n      pop\n      pop\n        /* \"#utility.yul\":9332:9778   */\n    tag_222:\n        /* \"#utility.yul\":9242:9785   */\n      pop\n      pop\n      pop\n      jump\t// out\n        /* \"#utility.yul\":9791:9908   */\n    tag_114:\n        /* \"#utility.yul\":9845:9853   */\n      0x00\n        /* \"#utility.yul\":9895:9900   */\n      dup3\n        /* \"#utility.yul\":9889:9893   */\n      dup3\n        /* \"#utility.yul\":9885:9901   */\n      shr\n        /* \"#utility.yul\":9864:9901   */\n      swap1\n      pop\n        /* \"#utility.yul\":9791:9908   */\n      swap3\n      swap2\n      pop\n      pop\n      jump\t// out\n        /* \"#utility.yul\":9914:10083   */\n    tag_115:\n        /* \"#utility.yul\":9958:9964   */\n      0x00\n        /* \"#utility.yul\":9991:10042   */\n      tag_230\n        /* \"#utility.yul\":10039:10040   */\n      0x00\n        /* \"#utility.yul\":10035:10041   */\n      not\n        /* \"#utility.yul\":10027:10032   */\n      dup5\n        /* \"#utility.yul\":10024:10025   */\n      0x08\n        /* \"#utility.yul\":10020:10033   */\n      mul\n        /* \"#utility.yul\":9991:10042   */\n      tag_114\n      jump\t// in\n    tag_230:\n        /* \"#utility.yul\":9987:10043   */\n      not\n        /* \"#utility.yul\":10072:10076   */\n      dup1\n        /* \"#utility.yul\":10066:10070   */\n      dup4\n        /* \"#utility.yul\":10062:10077   */\n      and\n        /* \"#utility.yul\":10052:10077   */\n      swap2\n      pop\n        /* \"#utility.yul\":9965:10083   */\n      pop\n        /* \"#utility.yul\":9914:10083   */\n      swap3\n      swap2\n      pop\n      pop\n      jump\t// out\n        /* \"#utility.yul\":10088:10383   */\n    tag_116:\n        /* \"#utility.yul\":10164:10168   */\n      0x00\n        /* \"#utility.yul\":10310:10339   */\n      tag_232\n        /* \"#utility.yul\":10335:10338   */\n      dup4\n        /* \"#utility.yul\":10329:10333   */\n      dup4\n        /* \"#utility.yul\":10310:10339   */\n      tag_115\n      jump\t// in\n    tag_232:\n        /* \"#utility.yul\":10302:10339   */\n      swap2\n      pop\n        /* \"#utility.yul\":10372:10375   */\n      dup3\n        /* \"#utility.yul\":10369:10370   */\n      0x02\n        /* \"#utility.yul\":10365:10376   */\n      mul\n        /* \"#utility.yul\":10359:10363   */\n      dup3\n        /* \"#utility.yul\":10356:10377   */\n      or\n        /* \"#utility.yul\":10348:10377   */\n      swap1\n      pop\n        /* \"#utility.yul\":10088:10383   */\n      swap3\n      swap2\n      pop\n      pop\n      jump\t// out\n        /* \"#utility.yul\":10388:11783   */\n    tag_53:\n        /* \"#utility.yul\":10505:10542   */\n      tag_234\n        /* \"#utility.yul\":10538:10541   */\n      dup3\n        /* \"#utility.yul\":10505:10542   */\n      tag_83\n      jump\t// in\n    tag_234:\n        /* \"#utility.yul\":10607:10625   */\n      0xffffffffffffffff\n        /* \"#utility.yul\":10599:10605   */\n      dup2\n        /* \"#utility.yul\":10596:10626   */\n      gt\n        /* \"#utility.yul\":10593:10649   */\n      iszero\n      tag_235\n      jumpi\n        /* \"#utility.yul\":10629:10647   */\n      tag_236\n      tag_92\n      jump\t// in\n    tag_236:\n        /* \"#utility.yul\":10593:10649   */\n    tag_235:\n        /* \"#utility.yul\":10673:10711   */\n      tag_237\n        /* \"#utility.yul\":10705:10709   */\n      dup3\n        /* \"#utility.yul\":10699:10710   */\n      sload\n        /* \"#utility.yul\":10673:10711   */\n      tag_34\n      jump\t// in\n    tag_237:\n        /* \"#utility.yul\":10758:10825   */\n      tag_238\n        /* \"#utility.yul\":10818:10824   */\n      dup3\n        /* \"#utility.yul\":10810:10816   */\n      dup3\n        /* \"#utility.yul\":10804:10808   */\n      dup6\n        /* \"#utility.yul\":10758:10825   */\n      tag_113\n      jump\t// in\n    tag_238:\n        /* \"#utility.yul\":10852:10853   */\n      0x00\n        /* \"#utility.yul\":10876:10880   */\n      0x20\n        /* \"#utility.yul\":10863:10880   */\n      swap1\n      pop\n        /* \"#utility.yul\":10908:10910   */\n      0x1f\n        /* \"#utility.yul\":10900:10906   */\n      dup4\n        /* \"#utility.yul\":10897:10911   */\n      gt\n        /* \"#utility.yul\":10925:10926   */\n      0x01\n        /* \"#utility.yul\":10920:11538   */\n      dup2\n      eq\n      tag_240\n      jumpi\n        /* \"#utility.yul\":11582:11583   */\n      0x00\n        /* \"#utility.yul\":11599:11605   */\n      dup5\n        /* \"#utility.yul\":11596:11673   */\n      iszero\n      tag_241\n      jumpi\n        /* \"#utility.yul\":11648:11657   */\n      dup3\n        /* \"#utility.yul\":11643:11646   */\n      dup8\n        /* \"#utility.yul\":11639:11658   */\n      add\n        /* \"#utility.yul\":11633:11659   */\n      mload\n        /* \"#utility.yul\":11624:11659   */\n      swap1\n      pop\n        /* \"#utility.yul\":11596:11673   */\n    tag_241:\n        /* \"#utility.yul\":11699:11766   */\n      tag_242\n        /* \"#utility.yul\":11759:11765   */\n      dup6\n        /* \"#utility.yul\":11752:11757   */\n      dup3\n        /* \"#utility.yul\":11699:11766   */\n      tag_116\n      jump\t// in\n    tag_242:\n        /* \"#utility.yul\":11693:11697   */\n      dup7\n        /* \"#utility.yul\":11686:11767   */\n      sstore\n        /* \"#utility.yul\":11555:11777   */\n      pop\n        /* \"#utility.yul\":10890:11777   */\n      jump(tag_239)\n        /* \"#utility.yul\":10920:11538   */\n    tag_240:\n        /* \"#utility.yul\":10972:10976   */\n      0x1f\n        /* \"#utility.yul\":10968:10977   */\n      not\n        /* \"#utility.yul\":10960:10966   */\n      dup5\n        /* \"#utility.yul\":10956:10978   */\n      and\n        /* \"#utility.yul\":11006:11043   */\n      tag_243\n        /* \"#utility.yul\":11038:11042   */\n      dup7\n        /* \"#utility.yul\":11006:11043   */\n      tag_102\n      jump\t// in\n    tag_243:\n        /* \"#utility.yul\":11065:11066   */\n      0x00\n        /* \"#utility.yul\":11079:11287   */\n    tag_244:\n        /* \"#utility.yul\":11093:11100   */\n      dup3\n        /* \"#utility.yul\":11090:11091   */\n      dup2\n        /* \"#utility.yul\":11087:11101   */\n      lt\n        /* \"#utility.yul\":11079:11287   */\n      iszero\n      tag_246\n      jumpi\n        /* \"#utility.yul\":11172:11181   */\n      dup5\n        /* \"#utility.yul\":11167:11170   */\n      dup10\n        /* \"#utility.yul\":11163:11182   */\n      add\n        /* \"#utility.yul\":11157:11183   */\n      mload\n        /* \"#utility.yul\":11149:11155   */\n      dup3\n        /* \"#utility.yul\":11142:11184   */\n      sstore\n        /* \"#utility.yul\":11223:11224   */\n      0x01\n        /* \"#utility.yul\":11215:11221   */\n      dup3\n        /* \"#utility.yul\":11211:11225   */\n      add\n        /* \"#utility.yul\":11201:11225   */\n      swap2\n      pop\n        /* \"#utility.yul\":11270:11272   */\n      0x20\n        /* \"#utility.yul\":11259:11268   */\n      dup6\n        /* \"#utility.yul\":11255:11273   */\n      add\n        /* \"#utility.yul\":11242:11273   */\n      swap5\n      pop\n        /* \"#utility.yul\":11116:11120   */\n      0x20\n        /* \"#utility.yul\":11113:11114   */\n      dup2\n        /* \"#utility.yul\":11109:11121   */\n      add\n        /* \"#utility.yul\":11104:11121   */\n      swap1\n      pop\n        /* \"#utility.yul\":11079:11287   */\n      jump(tag_244)\n    tag_246:\n        /* \"#utility.yul\":11315:11321   */\n      dup7\n        /* \"#utility.yul\":11306:11313   */\n      dup4\n        /* \"#utility.yul\":11303:11322   */\n      lt\n        /* \"#utility.yul\":11300:11479   */\n      iszero\n      tag_247\n      jumpi\n        /* \"#utility.yul\":11373:11382   */\n      dup5\n        /* \"#utility.yul\":11368:11371   */\n      dup10\n        /* \"#utility.yul\":11364:11383   */\n      add\n        /* \"#utility.yul\":11358:11384   */\n      mload\n        /* \"#utility.yul\":11416:11464   */\n      tag_248\n        /* \"#utility.yul\":11458:11462   */\n      0x1f\n        /* \"#utility.yul\":11450:11456   */\n      dup10\n        /* \"#utility.yul\":11446:11463   */\n      and\n        /* \"#utility.yul\":11435:11444   */\n      dup3\n        /* \"#utility.yul\":11416:11464   */\n      tag_115\n      jump\t// in\n    tag_248:\n        /* \"#utility.yul\":11408:11414   */\n      dup4\n        /* \"#utility.yul\":11401:11465   */\n      sstore\n        /* \"#utility.yul\":11323:11479   */\n      pop\n        /* \"#utility.yul\":11300:11479   */\n    tag_247:\n        /* \"#utility.yul\":11525:11526   */\n      0x01\n        /* \"#utility.yul\":11521:11522   */\n      0x02\n        /* \"#utility.yul\":11513:11519   */\n      dup9\n        /* \"#utility.yul\":11509:11523   */\n      mul\n        /* \"#utility.yul\":11505:11527   */\n      add\n        /* \"#utility.yul\":11499:11503   */\n      dup9\n        /* \"#utility.yul\":11492:11528   */\n      sstore\n        /* \"#utility.yul\":10927:11538   */\n      pop\n      pop\n      pop\n        /* \"#utility.yul\":10890:11777   */\n    tag_239:\n      pop\n        /* \"#utility.yul\":10480:11783   */\n      pop\n      pop\n      pop\n        /* \"#utility.yul\":10388:11783   */\n      pop\n      pop\n      jump\t// out\n        /* \"#utility.yul\":11789:11969   */\n    tag_117:\n        /* \"#utility.yul\":11837:11914   */\n      0x4e487b7100000000000000000000000000000000000000000000000000000000\n        /* \"#utility.yul\":11834:11835   */\n      0x00\n        /* \"#utility.yul\":11827:11915   */\n      mstore\n        /* \"#utility.yul\":11934:11938   */\n      0x11\n        /* \"#utility.yul\":11931:11932   */\n      0x04\n        /* \"#utility.yul\":11924:11939   */\n      mstore\n        /* \"#utility.yul\":11958:11962   */\n      0x24\n        /* \"#utility.yul\":11955:11956   */\n      0x00\n        /* \"#utility.yul\":11948:11963   */\n      revert\n        /* \"#utility.yul\":11975:12208   */\n    tag_55:\n        /* \"#utility.yul\":12014:12017   */\n      0x00\n        /* \"#utility.yul\":12037:12061   */\n      tag_251\n        /* \"#utility.yul\":12055:12060   */\n      dup3\n        /* \"#utility.yul\":12037:12061   */\n      tag_79\n      jump\t// in\n    tag_251:\n        /* \"#utility.yul\":12028:12061   */\n      swap2\n      pop\n        /* \"#utility.yul\":12083:12149   */\n      0xffffffffffffffffffffffffffffffffffffffffffffffffffffffffffffffff\n        /* \"#utility.yul\":12076:12081   */\n      dup3\n        /* \"#utility.yul\":12073:12150   */\n      sub\n        /* \"#utility.yul\":12070:12173   */\n      tag_252\n      jumpi\n        /* \"#utility.yul\":12153:12171   */\n      tag_253\n      tag_117\n      jump\t// in\n    tag_253:\n        /* \"#utility.yul\":12070:12173   */\n    tag_252:\n        /* \"#utility.yul\":12200:12201   */\n      0x01\n        /* \"#utility.yul\":12193:12198   */\n      dup3\n        /* \"#utility.yul\":12189:12202   */\n      add\n        /* \"#utility.yul\":12182:12202   */\n      swap1\n      pop\n        /* \"#utility.yul\":11975:12208   */\n      swap2\n      swap1\n      pop\n      jump\t// out\n\n    auxdata: 0xa264697066735822122013d1b6eafe16c619eac4f0e5317aef6a60478588f8db2c1397362a0f0c77c61c64736f6c634300081a0033\n}\n",
				"bytecode": {
					"linkReferences": {},
					"object": "6080604052600180553480156012575f80fd5b50610b2b806100205f395ff3fe608060405234801561000f575f80fd5b5060043610610055575f3560e01c8063365b98b2146100595780633e530e5b1461008a57806361bc221a146100ba578063b1498e29146100d8578063ed2e5a97146100f4575b5f80fd5b610073600480360381019061006e919061048c565b610125565b604051610081929190610536565b60405180910390f35b6100a4600480360381019061009f919061048c565b6101d9565b6040516100b1919061057e565b60405180910390f35b6100c261026b565b6040516100cf9190610597565b60405180910390f35b6100f260048036038101906100ed91906106dc565b610271565b005b61010e6004803603810190610109919061048c565b6102e9565b60405161011c929190610536565b60405180910390f35b5f8181548110610133575f80fd5b905f5260205f2090600202015f91509050805f01549080600101805461015890610750565b80601f016020809104026020016040519081016040528092919081815260200182805461018490610750565b80156101cf5780601f106101a6576101008083540402835291602001916101cf565b820191905f5260205f20905b8154815290600101906020018083116101b257829003601f168201915b5050505050905082565b5f805f90505b5f8054905081101561022a57825f82815481106101ff576101fe610780565b5b905f5260205f2090600202015f01540361021d576001915050610266565b80806001019150506101df565b506040517f08c379a000000000000000000000000000000000000000000000000000000000815260040161025d906107f7565b60405180910390fd5b919050565b60015481565b5f6040518060400160405280600154815260200183815250908060018154018082558091505060019003905f5260205f2090600202015f909190919091505f820151815f015560208201518160010190816102cc91906109b2565b50505060015f8154809291906102e190610aae565b919050555050565b5f60605f5b5f8054905081101561040757835f828154811061030e5761030d610780565b5b905f5260205f2090600202015f0154036103fa575f818154811061033557610334610780565b5b905f5260205f2090600202015f01545f828154811061035757610356610780565b5b905f5260205f20906002020160010180805461037290610750565b80601f016020809104026020016040519081016040528092919081815260200182805461039e90610750565b80156103e95780601f106103c0576101008083540402835291602001916103e9565b820191905f5260205f20905b8154815290600101906020018083116103cc57829003601f168201915b505050505090509250925050610443565b80806001019150506102ee565b506040517f08c379a000000000000000000000000000000000000000000000000000000000815260040161043a906107f7565b60405180910390fd5b915091565b5f604051905090565b5f80fd5b5f80fd5b5f819050919050565b61046b81610459565b8114610475575f80fd5b50565b5f8135905061048681610462565b92915050565b5f602082840312156104a1576104a0610451565b5b5f6104ae84828501610478565b91505092915050565b6104c081610459565b82525050565b5f81519050919050565b5f82825260208201905092915050565b8281835e5f83830152505050565b5f601f19601f8301169050919050565b5f610508826104c6565b61051281856104d0565b93506105228185602086016104e0565b61052b816104ee565b840191505092915050565b5f6040820190506105495f8301856104b7565b818103602083015261055b81846104fe565b90509392505050565b5f8115159050919050565b61057881610564565b82525050565b5f6020820190506105915f83018461056f565b92915050565b5f6020820190506105aa5f8301846104b7565b92915050565b5f80fd5b5f80fd5b7f4e487b71000000000000000000000000000000000000000000000000000000005f52604160045260245ffd5b6105ee826104ee565b810181811067ffffffffffffffff8211171561060d5761060c6105b8565b5b80604052505050565b5f61061f610448565b905061062b82826105e5565b919050565b5f67ffffffffffffffff82111561064a576106496105b8565b5b610653826104ee565b9050602081019050919050565b828183375f83830152505050565b5f61068061067b84610630565b610616565b90508281526020810184848401111561069c5761069b6105b4565b5b6106a7848285610660565b509392505050565b5f82601f8301126106c3576106c26105b0565b5b81356106d384826020860161066e565b91505092915050565b5f602082840312156106f1576106f0610451565b5b5f82013567ffffffffffffffff81111561070e5761070d610455565b5b61071a848285016106af565b91505092915050565b7f4e487b71000000000000000000000000000000000000000000000000000000005f52602260045260245ffd5b5f600282049050600182168061076757607f821691505b60208210810361077a57610779610723565b5b50919050565b7f4e487b71000000000000000000000000000000000000000000000000000000005f52603260045260245ffd5b7f5573657220646f6573206e6f74206578697374210000000000000000000000005f82015250565b5f6107e16014836104d0565b91506107ec826107ad565b602082019050919050565b5f6020820190508181035f83015261080e816107d5565b9050919050565b5f819050815f5260205f209050919050565b5f6020601f8301049050919050565b5f82821b905092915050565b5f600883026108717fffffffffffffffffffffffffffffffffffffffffffffffffffffffffffffffff82610836565b61087b8683610836565b95508019841693508086168417925050509392505050565b5f819050919050565b5f6108b66108b16108ac84610459565b610893565b610459565b9050919050565b5f819050919050565b6108cf8361089c565b6108e36108db826108bd565b848454610842565b825550505050565b5f90565b6108f76108eb565b6109028184846108c6565b505050565b5b818110156109255761091a5f826108ef565b600181019050610908565b5050565b601f82111561096a5761093b81610815565b61094484610827565b81016020851015610953578190505b61096761095f85610827565b830182610907565b50505b505050565b5f82821c905092915050565b5f61098a5f198460080261096f565b1980831691505092915050565b5f6109a2838361097b565b9150826002028217905092915050565b6109bb826104c6565b67ffffffffffffffff8111156109d4576109d36105b8565b5b6109de8254610750565b6109e9828285610929565b5f60209050601f831160018114610a1a575f8415610a08578287015190505b610a128582610997565b865550610a79565b601f198416610a2886610815565b5f5b82811015610a4f57848901518255600182019150602085019450602081019050610a2a565b86831015610a6c5784890151610a68601f89168261097b565b8355505b6001600288020188555050505b505050505050565b7f4e487b71000000000000000000000000000000000000000000000000000000005f52601160045260245ffd5b5f610ab882610459565b91507fffffffffffffffffffffffffffffffffffffffffffffffffffffffffffffffff8203610aea57610ae9610a81565b5b60018201905091905056fea264697066735822122013d1b6eafe16c619eac4f0e5317aef6a60478588f8db2c1397362a0f0c77c61c64736f6c634300081a0033",
					"opcodes": "PUSH1 0x80 PUSH1 0x40 MSTORE PUSH1 0x1 DUP1 SSTORE CALLVALUE DUP1 ISZERO PUSH1 0x12 JUMPI PUSH0 DUP1 REVERT JUMPDEST POP PUSH2 0xB2B DUP1 PUSH2 0x20 PUSH0 CODECOPY PUSH0 RETURN INVALID PUSH1 0x80 PUSH1 0x40 MSTORE CALLVALUE DUP1 ISZERO PUSH2 0xF JUMPI PUSH0 DUP1 REVERT JUMPDEST POP PUSH1 0x4 CALLDATASIZE LT PUSH2 0x55 JUMPI PUSH0 CALLDATALOAD PUSH1 0xE0 SHR DUP1 PUSH4 0x365B98B2 EQ PUSH2 0x59 JUMPI DUP1 PUSH4 0x3E530E5B EQ PUSH2 0x8A JUMPI DUP1 PUSH4 0x61BC221A EQ PUSH2 0xBA JUMPI DUP1 PUSH4 0xB1498E29 EQ PUSH2 0xD8 JUMPI DUP1 PUSH4 0xED2E5A97 EQ PUSH2 0xF4 JUMPI JUMPDEST PUSH0 DUP1 REVERT JUMPDEST PUSH2 0x73 PUSH1 0x4 DUP1 CALLDATASIZE SUB DUP2 ADD SWAP1 PUSH2 0x6E SWAP2 SWAP1 PUSH2 0x48C JUMP JUMPDEST PUSH2 0x125 JUMP JUMPDEST PUSH1 0x40 MLOAD PUSH2 0x81 SWAP3 SWAP2 SWAP1 PUSH2 0x536 JUMP JUMPDEST PUSH1 0x40 MLOAD DUP1 SWAP2 SUB SWAP1 RETURN JUMPDEST PUSH2 0xA4 PUSH1 0x4 DUP1 CALLDATASIZE SUB DUP2 ADD SWAP1 PUSH2 0x9F SWAP2 SWAP1 PUSH2 0x48C JUMP JUMPDEST PUSH2 0x1D9 JUMP JUMPDEST PUSH1 0x40 MLOAD PUSH2 0xB1 SWAP2 SWAP1 PUSH2 0x57E JUMP JUMPDEST PUSH1 0x40 MLOAD DUP1 SWAP2 SUB SWAP1 RETURN JUMPDEST PUSH2 0xC2 PUSH2 0x26B JUMP JUMPDEST PUSH1 0x40 MLOAD PUSH2 0xCF SWAP2 SWAP1 PUSH2 0x597 JUMP JUMPDEST PUSH1 0x40 MLOAD DUP1 SWAP2 SUB SWAP1 RETURN JUMPDEST PUSH2 0xF2 PUSH1 0x4 DUP1 CALLDATASIZE SUB DUP2 ADD SWAP1 PUSH2 0xED SWAP2 SWAP1 PUSH2 0x6DC JUMP JUMPDEST PUSH2 0x271 JUMP JUMPDEST STOP JUMPDEST PUSH2 0x10E PUSH1 0x4 DUP1 CALLDATASIZE SUB DUP2 ADD SWAP1 PUSH2 0x109 SWAP2 SWAP1 PUSH2 0x48C JUMP JUMPDEST PUSH2 0x2E9 JUMP JUMPDEST PUSH1 0x40 MLOAD PUSH2 0x11C SWAP3 SWAP2 SWAP1 PUSH2 0x536 JUMP JUMPDEST PUSH1 0x40 MLOAD DUP1 SWAP2 SUB SWAP1 RETURN JUMPDEST PUSH0 DUP2 DUP2 SLOAD DUP2 LT PUSH2 0x133 JUMPI PUSH0 DUP1 REVERT JUMPDEST SWAP1 PUSH0 MSTORE PUSH1 0x20 PUSH0 KECCAK256 SWAP1 PUSH1 0x2 MUL ADD PUSH0 SWAP2 POP SWAP1 POP DUP1 PUSH0 ADD SLOAD SWAP1 DUP1 PUSH1 0x1 ADD DUP1 SLOAD PUSH2 0x158 SWAP1 PUSH2 0x750 JUMP JUMPDEST DUP1 PUSH1 0x1F ADD PUSH1 0x20 DUP1 SWAP2 DIV MUL PUSH1 0x20 ADD PUSH1 0x40 MLOAD SWAP1 DUP2 ADD PUSH1 0x40 MSTORE DUP1 SWAP3 SWAP2 SWAP1 DUP2 DUP2 MSTORE PUSH1 0x20 ADD DUP3 DUP1 SLOAD PUSH2 0x184 SWAP1 PUSH2 0x750 JUMP JUMPDEST DUP1 ISZERO PUSH2 0x1CF JUMPI DUP1 PUSH1 0x1F LT PUSH2 0x1A6 JUMPI PUSH2 0x100 DUP1 DUP4 SLOAD DIV MUL DUP4 MSTORE SWAP2 PUSH1 0x20 ADD SWAP2 PUSH2 0x1CF JUMP JUMPDEST DUP3 ADD SWAP2 SWAP1 PUSH0 MSTORE PUSH1 0x20 PUSH0 KECCAK256 SWAP1 JUMPDEST DUP2 SLOAD DUP2 MSTORE SWAP1 PUSH1 0x1 ADD SWAP1 PUSH1 0x20 ADD DUP1 DUP4 GT PUSH2 0x1B2 JUMPI DUP3 SWAP1 SUB PUSH1 0x1F AND DUP3 ADD SWAP2 JUMPDEST POP POP POP POP POP SWAP1 POP DUP3 JUMP JUMPDEST PUSH0 DUP1 PUSH0 SWAP1 POP JUMPDEST PUSH0 DUP1 SLOAD SWAP1 POP DUP2 LT ISZERO PUSH2 0x22A JUMPI DUP3 PUSH0 DUP3 DUP2 SLOAD DUP2 LT PUSH2 0x1FF JUMPI PUSH2 0x1FE PUSH2 0x780 JUMP JUMPDEST JUMPDEST SWAP1 PUSH0 MSTORE PUSH1 0x20 PUSH0 KECCAK256 SWAP1 PUSH1 0x2 MUL ADD PUSH0 ADD SLOAD SUB PUSH2 0x21D JUMPI PUSH1 0x1 SWAP2 POP POP PUSH2 0x266 JUMP JUMPDEST DUP1 DUP1 PUSH1 0x1 ADD SWAP2 POP POP PUSH2 0x1DF JUMP JUMPDEST POP PUSH1 0x40 MLOAD PUSH32 0x8C379A000000000000000000000000000000000000000000000000000000000 DUP2 MSTORE PUSH1 0x4 ADD PUSH2 0x25D SWAP1 PUSH2 0x7F7 JUMP JUMPDEST PUSH1 0x40 MLOAD DUP1 SWAP2 SUB SWAP1 REVERT JUMPDEST SWAP2 SWAP1 POP JUMP JUMPDEST PUSH1 0x1 SLOAD DUP2 JUMP JUMPDEST PUSH0 PUSH1 0x40 MLOAD DUP1 PUSH1 0x40 ADD PUSH1 0x40 MSTORE DUP1 PUSH1 0x1 SLOAD DUP2 MSTORE PUSH1 0x20 ADD DUP4 DUP2 MSTORE POP SWAP1 DUP1 PUSH1 0x1 DUP2 SLOAD ADD DUP1 DUP3 SSTORE DUP1 SWAP2 POP POP PUSH1 0x1 SWAP1 SUB SWAP1 PUSH0 MSTORE PUSH1 0x20 PUSH0 KECCAK256 SWAP1 PUSH1 0x2 MUL ADD PUSH0 SWAP1 SWAP2 SWAP1 SWAP2 SWAP1 SWAP2 POP PUSH0 DUP3 ADD MLOAD DUP2 PUSH0 ADD SSTORE PUSH1 0x20 DUP3 ADD MLOAD DUP2 PUSH1 0x1 ADD SWAP1 DUP2 PUSH2 0x2CC SWAP2 SWAP1 PUSH2 0x9B2 JUMP JUMPDEST POP POP POP PUSH1 0x1 PUSH0 DUP2 SLOAD DUP1 SWAP3 SWAP2 SWAP1 PUSH2 0x2E1 SWAP1 PUSH2 0xAAE JUMP JUMPDEST SWAP2 SWAP1 POP SSTORE POP POP JUMP JUMPDEST PUSH0 PUSH1 0x60 PUSH0 JUMPDEST PUSH0 DUP1 SLOAD SWAP1 POP DUP2 LT ISZERO PUSH2 0x407 JUMPI DUP4 PUSH0 DUP3 DUP2 SLOAD DUP2 LT PUSH2 0x30E JUMPI PUSH2 0x30D PUSH2 0x780 JUMP JUMPDEST JUMPDEST SWAP1 PUSH0 MSTORE PUSH1 0x20 PUSH0 KECCAK256 SWAP1 PUSH1 0x2 MUL ADD PUSH0 ADD SLOAD SUB PUSH2 0x3FA JUMPI PUSH0 DUP2 DUP2 SLOAD DUP2 LT PUSH2 0x335 JUMPI PUSH2 0x334 PUSH2 0x780 JUMP JUMPDEST JUMPDEST SWAP1 PUSH0 MSTORE PUSH1 0x20 PUSH0 KECCAK256 SWAP1 PUSH1 0x2 MUL ADD PUSH0 ADD SLOAD PUSH0 DUP3 DUP2 SLOAD DUP2 LT PUSH2 0x357 JUMPI PUSH2 0x356 PUSH2 0x780 JUMP JUMPDEST JUMPDEST SWAP1 PUSH0 MSTORE PUSH1 0x20 PUSH0 KECCAK256 SWAP1 PUSH1 0x2 MUL ADD PUSH1 0x1 ADD DUP1 DUP1 SLOAD PUSH2 0x372 SWAP1 PUSH2 0x750 JUMP JUMPDEST DUP1 PUSH1 0x1F ADD PUSH1 0x20 DUP1 SWAP2 DIV MUL PUSH1 0x20 ADD PUSH1 0x40 MLOAD SWAP1 DUP2 ADD PUSH1 0x40 MSTORE DUP1 SWAP3 SWAP2 SWAP1 DUP2 DUP2 MSTORE PUSH1 0x20 ADD DUP3 DUP1 SLOAD PUSH2 0x39E SWAP1 PUSH2 0x750 JUMP JUMPDEST DUP1 ISZERO PUSH2 0x3E9 JUMPI DUP1 PUSH1 0x1F LT PUSH2 0x3C0 JUMPI PUSH2 0x100 DUP1 DUP4 SLOAD DIV MUL DUP4 MSTORE SWAP2 PUSH1 0x20 ADD SWAP2 PUSH2 0x3E9 JUMP JUMPDEST DUP3 ADD SWAP2 SWAP1 PUSH0 MSTORE PUSH1 0x20 PUSH0 KECCAK256 SWAP1 JUMPDEST DUP2 SLOAD DUP2 MSTORE SWAP1 PUSH1 0x1 ADD SWAP1 PUSH1 0x20 ADD DUP1 DUP4 GT PUSH2 0x3CC JUMPI DUP3 SWAP1 SUB PUSH1 0x1F AND DUP3 ADD SWAP2 JUMPDEST POP POP POP POP POP SWAP1 POP SWAP3 POP SWAP3 POP POP PUSH2 0x443 JUMP JUMPDEST DUP1 DUP1 PUSH1 0x1 ADD SWAP2 POP POP PUSH2 0x2EE JUMP JUMPDEST POP PUSH1 0x40 MLOAD PUSH32 0x8C379A000000000000000000000000000000000000000000000000000000000 DUP2 MSTORE PUSH1 0x4 ADD PUSH2 0x43A SWAP1 PUSH2 0x7F7 JUMP JUMPDEST PUSH1 0x40 MLOAD DUP1 SWAP2 SUB SWAP1 REVERT JUMPDEST SWAP2 POP SWAP2 JUMP JUMPDEST PUSH0 PUSH1 0x40 MLOAD SWAP1 POP SWAP1 JUMP JUMPDEST PUSH0 DUP1 REVERT JUMPDEST PUSH0 DUP1 REVERT JUMPDEST PUSH0 DUP2 SWAP1 POP SWAP2 SWAP1 POP JUMP JUMPDEST PUSH2 0x46B DUP2 PUSH2 0x459 JUMP JUMPDEST DUP2 EQ PUSH2 0x475 JUMPI PUSH0 DUP1 REVERT JUMPDEST POP JUMP JUMPDEST PUSH0 DUP2 CALLDATALOAD SWAP1 POP PUSH2 0x486 DUP2 PUSH2 0x462 JUMP JUMPDEST SWAP3 SWAP2 POP POP JUMP JUMPDEST PUSH0 PUSH1 0x20 DUP3 DUP5 SUB SLT ISZERO PUSH2 0x4A1 JUMPI PUSH2 0x4A0 PUSH2 0x451 JUMP JUMPDEST JUMPDEST PUSH0 PUSH2 0x4AE DUP5 DUP3 DUP6 ADD PUSH2 0x478 JUMP JUMPDEST SWAP2 POP POP SWAP3 SWAP2 POP POP JUMP JUMPDEST PUSH2 0x4C0 DUP2 PUSH2 0x459 JUMP JUMPDEST DUP3 MSTORE POP POP JUMP JUMPDEST PUSH0 DUP2 MLOAD SWAP1 POP SWAP2 SWAP1 POP JUMP JUMPDEST PUSH0 DUP3 DUP3 MSTORE PUSH1 0x20 DUP3 ADD SWAP1 POP SWAP3 SWAP2 POP POP JUMP JUMPDEST DUP3 DUP2 DUP4 MCOPY PUSH0 DUP4 DUP4 ADD MSTORE POP POP POP JUMP JUMPDEST PUSH0 PUSH1 0x1F NOT PUSH1 0x1F DUP4 ADD AND SWAP1 POP SWAP2 SWAP1 POP JUMP JUMPDEST PUSH0 PUSH2 0x508 DUP3 PUSH2 0x4C6 JUMP JUMPDEST PUSH2 0x512 DUP2 DUP6 PUSH2 0x4D0 JUMP JUMPDEST SWAP4 POP PUSH2 0x522 DUP2 DUP6 PUSH1 0x20 DUP7 ADD PUSH2 0x4E0 JUMP JUMPDEST PUSH2 0x52B DUP2 PUSH2 0x4EE JUMP JUMPDEST DUP5 ADD SWAP2 POP POP SWAP3 SWAP2 POP POP JUMP JUMPDEST PUSH0 PUSH1 0x40 DUP3 ADD SWAP1 POP PUSH2 0x549 PUSH0 DUP4 ADD DUP6 PUSH2 0x4B7 JUMP JUMPDEST DUP2 DUP2 SUB PUSH1 0x20 DUP4 ADD MSTORE PUSH2 0x55B DUP2 DUP5 PUSH2 0x4FE JUMP JUMPDEST SWAP1 POP SWAP4 SWAP3 POP POP POP JUMP JUMPDEST PUSH0 DUP2 ISZERO ISZERO SWAP1 POP SWAP2 SWAP1 POP JUMP JUMPDEST PUSH2 0x578 DUP2 PUSH2 0x564 JUMP JUMPDEST DUP3 MSTORE POP POP JUMP JUMPDEST PUSH0 PUSH1 0x20 DUP3 ADD SWAP1 POP PUSH2 0x591 PUSH0 DUP4 ADD DUP5 PUSH2 0x56F JUMP JUMPDEST SWAP3 SWAP2 POP POP JUMP JUMPDEST PUSH0 PUSH1 0x20 DUP3 ADD SWAP1 POP PUSH2 0x5AA PUSH0 DUP4 ADD DUP5 PUSH2 0x4B7 JUMP JUMPDEST SWAP3 SWAP2 POP POP JUMP JUMPDEST PUSH0 DUP1 REVERT JUMPDEST PUSH0 DUP1 REVERT JUMPDEST PUSH32 0x4E487B7100000000000000000000000000000000000000000000000000000000 PUSH0 MSTORE PUSH1 0x41 PUSH1 0x4 MSTORE PUSH1 0x24 PUSH0 REVERT JUMPDEST PUSH2 0x5EE DUP3 PUSH2 0x4EE JUMP JUMPDEST DUP2 ADD DUP2 DUP2 LT PUSH8 0xFFFFFFFFFFFFFFFF DUP3 GT OR ISZERO PUSH2 0x60D JUMPI PUSH2 0x60C PUSH2 0x5B8 JUMP JUMPDEST JUMPDEST DUP1 PUSH1 0x40 MSTORE POP POP POP JUMP JUMPDEST PUSH0 PUSH2 0x61F PUSH2 0x448 JUMP JUMPDEST SWAP1 POP PUSH2 0x62B DUP3 DUP3 PUSH2 0x5E5 JUMP JUMPDEST SWAP2 SWAP1 POP JUMP JUMPDEST PUSH0 PUSH8 0xFFFFFFFFFFFFFFFF DUP3 GT ISZERO PUSH2 0x64A JUMPI PUSH2 0x649 PUSH2 0x5B8 JUMP JUMPDEST JUMPDEST PUSH2 0x653 DUP3 PUSH2 0x4EE JUMP JUMPDEST SWAP1 POP PUSH1 0x20 DUP2 ADD SWAP1 POP SWAP2 SWAP1 POP JUMP JUMPDEST DUP3 DUP2 DUP4 CALLDATACOPY PUSH0 DUP4 DUP4 ADD MSTORE POP POP POP JUMP JUMPDEST PUSH0 PUSH2 0x680 PUSH2 0x67B DUP5 PUSH2 0x630 JUMP JUMPDEST PUSH2 0x616 JUMP JUMPDEST SWAP1 POP DUP3 DUP2 MSTORE PUSH1 0x20 DUP2 ADD DUP5 DUP5 DUP5 ADD GT ISZERO PUSH2 0x69C JUMPI PUSH2 0x69B PUSH2 0x5B4 JUMP JUMPDEST JUMPDEST PUSH2 0x6A7 DUP5 DUP3 DUP6 PUSH2 0x660 JUMP JUMPDEST POP SWAP4 SWAP3 POP POP POP JUMP JUMPDEST PUSH0 DUP3 PUSH1 0x1F DUP4 ADD SLT PUSH2 0x6C3 JUMPI PUSH2 0x6C2 PUSH2 0x5B0 JUMP JUMPDEST JUMPDEST DUP2 CALLDATALOAD PUSH2 0x6D3 DUP5 DUP3 PUSH1 0x20 DUP7 ADD PUSH2 0x66E JUMP JUMPDEST SWAP2 POP POP SWAP3 SWAP2 POP POP JUMP JUMPDEST PUSH0 PUSH1 0x20 DUP3 DUP5 SUB SLT ISZERO PUSH2 0x6F1 JUMPI PUSH2 0x6F0 PUSH2 0x451 JUMP JUMPDEST JUMPDEST PUSH0 DUP3 ADD CALLDATALOAD PUSH8 0xFFFFFFFFFFFFFFFF DUP2 GT ISZERO PUSH2 0x70E JUMPI PUSH2 0x70D PUSH2 0x455 JUMP JUMPDEST JUMPDEST PUSH2 0x71A DUP5 DUP3 DUP6 ADD PUSH2 0x6AF JUMP JUMPDEST SWAP2 POP POP SWAP3 SWAP2 POP POP JUMP JUMPDEST PUSH32 0x4E487B7100000000000000000000000000000000000000000000000000000000 PUSH0 MSTORE PUSH1 0x22 PUSH1 0x4 MSTORE PUSH1 0x24 PUSH0 REVERT JUMPDEST PUSH0 PUSH1 0x2 DUP3 DIV SWAP1 POP PUSH1 0x1 DUP3 AND DUP1 PUSH2 0x767 JUMPI PUSH1 0x7F DUP3 AND SWAP2 POP JUMPDEST PUSH1 0x20 DUP3 LT DUP2 SUB PUSH2 0x77A JUMPI PUSH2 0x779 PUSH2 0x723 JUMP JUMPDEST JUMPDEST POP SWAP2 SWAP1 POP JUMP JUMPDEST PUSH32 0x4E487B7100000000000000000000000000000000000000000000000000000000 PUSH0 MSTORE PUSH1 0x32 PUSH1 0x4 MSTORE PUSH1 0x24 PUSH0 REVERT JUMPDEST PUSH32 0x5573657220646F6573206E6F7420657869737421000000000000000000000000 PUSH0 DUP3 ADD MSTORE POP JUMP JUMPDEST PUSH0 PUSH2 0x7E1 PUSH1 0x14 DUP4 PUSH2 0x4D0 JUMP JUMPDEST SWAP2 POP PUSH2 0x7EC DUP3 PUSH2 0x7AD JUMP JUMPDEST PUSH1 0x20 DUP3 ADD SWAP1 POP SWAP2 SWAP1 POP JUMP JUMPDEST PUSH0 PUSH1 0x20 DUP3 ADD SWAP1 POP DUP2 DUP2 SUB PUSH0 DUP4 ADD MSTORE PUSH2 0x80E DUP2 PUSH2 0x7D5 JUMP JUMPDEST SWAP1 POP SWAP2 SWAP1 POP JUMP JUMPDEST PUSH0 DUP2 SWAP1 POP DUP2 PUSH0 MSTORE PUSH1 0x20 PUSH0 KECCAK256 SWAP1 POP SWAP2 SWAP1 POP JUMP JUMPDEST PUSH0 PUSH1 0x20 PUSH1 0x1F DUP4 ADD DIV SWAP1 POP SWAP2 SWAP1 POP JUMP JUMPDEST PUSH0 DUP3 DUP3 SHL SWAP1 POP SWAP3 SWAP2 POP POP JUMP JUMPDEST PUSH0 PUSH1 0x8 DUP4 MUL PUSH2 0x871 PUSH32 0xFFFFFFFFFFFFFFFFFFFFFFFFFFFFFFFFFFFFFFFFFFFFFFFFFFFFFFFFFFFFFFFF DUP3 PUSH2 0x836 JUMP JUMPDEST PUSH2 0x87B DUP7 DUP4 PUSH2 0x836 JUMP JUMPDEST SWAP6 POP DUP1 NOT DUP5 AND SWAP4 POP DUP1 DUP7 AND DUP5 OR SWAP3 POP POP POP SWAP4 SWAP3 POP POP POP JUMP JUMPDEST PUSH0 DUP2 SWAP1 POP SWAP2 SWAP1 POP JUMP JUMPDEST PUSH0 PUSH2 0x8B6 PUSH2 0x8B1 PUSH2 0x8AC DUP5 PUSH2 0x459 JUMP JUMPDEST PUSH2 0x893 JUMP JUMPDEST PUSH2 0x459 JUMP JUMPDEST SWAP1 POP SWAP2 SWAP1 POP JUMP JUMPDEST PUSH0 DUP2 SWAP1 POP SWAP2 SWAP1 POP JUMP JUMPDEST PUSH2 0x8CF DUP4 PUSH2 0x89C JUMP JUMPDEST PUSH2 0x8E3 PUSH2 0x8DB DUP3 PUSH2 0x8BD JUMP JUMPDEST DUP5 DUP5 SLOAD PUSH2 0x842 JUMP JUMPDEST DUP3 SSTORE POP POP POP POP JUMP JUMPDEST PUSH0 SWAP1 JUMP JUMPDEST PUSH2 0x8F7 PUSH2 0x8EB JUMP JUMPDEST PUSH2 0x902 DUP2 DUP5 DUP5 PUSH2 0x8C6 JUMP JUMPDEST POP POP POP JUMP JUMPDEST JUMPDEST DUP2 DUP2 LT ISZERO PUSH2 0x925 JUMPI PUSH2 0x91A PUSH0 DUP3 PUSH2 0x8EF JUMP JUMPDEST PUSH1 0x1 DUP2 ADD SWAP1 POP PUSH2 0x908 JUMP JUMPDEST POP POP JUMP JUMPDEST PUSH1 0x1F DUP3 GT ISZERO PUSH2 0x96A JUMPI PUSH2 0x93B DUP2 PUSH2 0x815 JUMP JUMPDEST PUSH2 0x944 DUP5 PUSH2 0x827 JUMP JUMPDEST DUP2 ADD PUSH1 0x20 DUP6 LT ISZERO PUSH2 0x953 JUMPI DUP2 SWAP1 POP JUMPDEST PUSH2 0x967 PUSH2 0x95F DUP6 PUSH2 0x827 JUMP JUMPDEST DUP4 ADD DUP3 PUSH2 0x907 JUMP JUMPDEST POP POP JUMPDEST POP POP POP JUMP JUMPDEST PUSH0 DUP3 DUP3 SHR SWAP1 POP SWAP3 SWAP2 POP POP JUMP JUMPDEST PUSH0 PUSH2 0x98A PUSH0 NOT DUP5 PUSH1 0x8 MUL PUSH2 0x96F JUMP JUMPDEST NOT DUP1 DUP4 AND SWAP2 POP POP SWAP3 SWAP2 POP POP JUMP JUMPDEST PUSH0 PUSH2 0x9A2 DUP4 DUP4 PUSH2 0x97B JUMP JUMPDEST SWAP2 POP DUP3 PUSH1 0x2 MUL DUP3 OR SWAP1 POP SWAP3 SWAP2 POP POP JUMP JUMPDEST PUSH2 0x9BB DUP3 PUSH2 0x4C6 JUMP JUMPDEST PUSH8 0xFFFFFFFFFFFFFFFF DUP2 GT ISZERO PUSH2 0x9D4 JUMPI PUSH2 0x9D3 PUSH2 0x5B8 JUMP JUMPDEST JUMPDEST PUSH2 0x9DE DUP3 SLOAD PUSH2 0x750 JUMP JUMPDEST PUSH2 0x9E9 DUP3 DUP3 DUP6 PUSH2 0x929 JUMP JUMPDEST PUSH0 PUSH1 0x20 SWAP1 POP PUSH1 0x1F DUP4 GT PUSH1 0x1 DUP2 EQ PUSH2 0xA1A JUMPI PUSH0 DUP5 ISZERO PUSH2 0xA08 JUMPI DUP3 DUP8 ADD MLOAD SWAP1 POP JUMPDEST PUSH2 0xA12 DUP6 DUP3 PUSH2 0x997 JUMP JUMPDEST DUP7 SSTORE POP PUSH2 0xA79 JUMP JUMPDEST PUSH1 0x1F NOT DUP5 AND PUSH2 0xA28 DUP7 PUSH2 0x815 JUMP JUMPDEST PUSH0 JUMPDEST DUP3 DUP2 LT ISZERO PUSH2 0xA4F JUMPI DUP5 DUP10 ADD MLOAD DUP3 SSTORE PUSH1 0x1 DUP3 ADD SWAP2 POP PUSH1 0x20 DUP6 ADD SWAP5 POP PUSH1 0x20 DUP2 ADD SWAP1 POP PUSH2 0xA2A JUMP JUMPDEST DUP7 DUP4 LT ISZERO PUSH2 0xA6C JUMPI DUP5 DUP10 ADD MLOAD PUSH2 0xA68 PUSH1 0x1F DUP10 AND DUP3 PUSH2 0x97B JUMP JUMPDEST DUP4 SSTORE POP JUMPDEST PUSH1 0x1 PUSH1 0x2 DUP9 MUL ADD DUP9 SSTORE POP POP POP JUMPDEST POP POP POP POP POP POP JUMP JUMPDEST PUSH32 0x4E487B7100000000000000000000000000000000000000000000000000000000 PUSH0 MSTORE PUSH1 0x11 PUSH1 0x4 MSTORE PUSH1 0x24 PUSH0 REVERT JUMPDEST PUSH0 PUSH2 0xAB8 DUP3 PUSH2 0x459 JUMP JUMPDEST SWAP2 POP PUSH32 0xFFFFFFFFFFFFFFFFFFFFFFFFFFFFFFFFFFFFFFFFFFFFFFFFFFFFFFFFFFFFFFFF DUP3 SUB PUSH2 0xAEA JUMPI PUSH2 0xAE9 PUSH2 0xA81 JUMP JUMPDEST JUMPDEST PUSH1 0x1 DUP3 ADD SWAP1 POP SWAP2 SWAP1 POP JUMP INVALID LOG2 PUSH5 0x6970667358 0x22 SLT KECCAK256 SGT 0xD1 0xB6 0xEA INVALID AND 0xC6 NOT 0xEA 0xC4 CREATE 0xE5 BALANCE PUSH27 0xEF6A60478588F8DB2C1397362A0F0C77C61C64736F6C634300081A STOP CALLER "
				},
				"gasEstimates": {
					"creation": {
						"codeDepositCost": "571800",
						"executionCost": "22710",
						"totalCost": "594510"
					},
					"external": {
						"counter()": "2447",
						"find(uint256)": "infinite",
						"insert(string)": "infinite",
						"read(uint256)": "infinite",
						"users(uint256)": "infinite"
					}
				},
				"methodIdentifiers": {
					"counter()": "61bc221a",
					"find(uint256)": "3e530e5b",
					"insert(string)": "b1498e29",
					"read(uint256)": "ed2e5a97",
					"users(uint256)": "365b98b2"
				}
			},
			"storageLayout": {
				"storage": [
					{
						"astId": 10,
						"contract": "contracts/newStrucLab9.sol:demo",
						"label": "users",
						"offset": 0,
						"slot": "0",
						"type": "t_array(t_struct(USER)6_storage)dyn_storage"
					},
					{
						"astId": 13,
						"contract": "contracts/newStrucLab9.sol:demo",
						"label": "counter",
						"offset": 0,
						"slot": "1",
						"type": "t_uint256"
					}
				],
				"types": {
					"t_array(t_struct(USER)6_storage)dyn_storage": {
						"base": "t_struct(USER)6_storage",
						"encoding": "dynamic_array",
						"label": "struct demo.USER[]",
						"numberOfBytes": "32"
					},
					"t_string_storage": {
						"encoding": "bytes",
						"label": "string",
						"numberOfBytes": "32"
					},
					"t_struct(USER)6_storage": {
						"encoding": "inplace",
						"label": "struct demo.USER",
						"members": [
							{
								"astId": 3,
								"contract": "contracts/newStrucLab9.sol:demo",
								"label": "id",
								"offset": 0,
								"slot": "0",
								"type": "t_uint256"
							},
							{
								"astId": 5,
								"contract": "contracts/newStrucLab9.sol:demo",
								"label": "name",
								"offset": 0,
								"slot": "1",
								"type": "t_string_storage"
							}
						],
						"numberOfBytes": "64"
					},
					"t_uint256": {
						"encoding": "inplace",
						"label": "uint256",
						"numberOfBytes": "32"
					}
				}
			},
			"userdoc": {
				"kind": "user",
				"methods": {},
				"version": 1
			}
		}
	}
}