{
	"contracts/lab5.sol": {
		"demo": {
			"abi": [
				{
					"inputs": [
						{
							"internalType": "int256",
							"name": "a",
							"type": "int256"
						}
					],
					"name": "reqCheck",
					"outputs": [
						{
							"internalType": "string",
							"name": "",
							"type": "string"
						}
					],
					"stateMutability": "pure",
					"type": "function"
				}
			],
			"devdoc": {
				"kind": "dev",
				"methods": {},
				"version": 1
			},
			"evm": {
				"assembly": "    /* \"contracts/lab5.sol\":62:253  contract demo{... */\n  mstore(0x40, 0x80)\n  callvalue\n  dup1\n  iszero\n  tag_1\n  jumpi\n  0x00\n  dup1\n  revert\ntag_1:\n  pop\n  dataSize(sub_0)\n  dup1\n  dataOffset(sub_0)\n  0x00\n  codecopy\n  0x00\n  return\nstop\n\nsub_0: assembly {\n        /* \"contracts/lab5.sol\":62:253  contract demo{... */\n      mstore(0x40, 0x80)\n      callvalue\n      dup1\n      iszero\n      tag_1\n      jumpi\n      0x00\n      dup1\n      revert\n    tag_1:\n      pop\n      jumpi(tag_2, lt(calldatasize, 0x04))\n      shr(0xe0, calldataload(0x00))\n      dup1\n      0xe1cb8e6a\n      eq\n      tag_3\n      jumpi\n    tag_2:\n      0x00\n      dup1\n      revert\n        /* \"contracts/lab5.sol\":99:250  function reqCheck(int a) public pure returns(string memory){... */\n    tag_3:\n      tag_4\n      0x04\n      dup1\n      calldatasize\n      sub\n      dup2\n      add\n      swap1\n      tag_5\n      swap2\n      swap1\n      tag_6\n      jump\t// in\n    tag_5:\n      tag_7\n      jump\t// in\n    tag_4:\n      mload(0x40)\n      tag_8\n      swap2\n      swap1\n      tag_9\n      jump\t// in\n    tag_8:\n      mload(0x40)\n      dup1\n      swap2\n      sub\n      swap1\n      return\n    tag_7:\n        /* \"contracts/lab5.sol\":144:157  string memory */\n      0x60\n        /* \"contracts/lab5.sol\":180:181  0 */\n      0x00\n        /* \"contracts/lab5.sol\":177:178  a */\n      dup3\n        /* \"contracts/lab5.sol\":177:181  a>=0 */\n      slt\n      iszero\n        /* \"contracts/lab5.sol\":177:191  a>=0 && a<=255 */\n      dup1\n      iszero\n      tag_11\n      jumpi\n      pop\n        /* \"contracts/lab5.sol\":188:191  255 */\n      0xff\n        /* \"contracts/lab5.sol\":185:186  a */\n      dup3\n        /* \"contracts/lab5.sol\":185:191  a<=255 */\n      sgt\n      iszero\n        /* \"contracts/lab5.sol\":177:191  a>=0 && a<=255 */\n    tag_11:\n        /* \"contracts/lab5.sol\":169:211  require(a>=0 && a<=255,\"Not Within Range\") */\n      tag_12\n      jumpi\n      mload(0x40)\n      0x08c379a000000000000000000000000000000000000000000000000000000000\n      dup2\n      mstore\n      0x04\n      add\n      tag_13\n      swap1\n      tag_14\n      jump\t// in\n    tag_13:\n      mload(0x40)\n      dup1\n      swap2\n      sub\n      swap1\n      revert\n    tag_12:\n        /* \"contracts/lab5.sol\":222:242  return\"Within Range\" */\n      mload(0x40)\n      dup1\n      0x40\n      add\n      0x40\n      mstore\n      dup1\n      0x0c\n      dup2\n      mstore\n      0x20\n      add\n      0x57697468696e2052616e67650000000000000000000000000000000000000000\n      dup2\n      mstore\n      pop\n      swap1\n      pop\n        /* \"contracts/lab5.sol\":99:250  function reqCheck(int a) public pure returns(string memory){... */\n      swap2\n      swap1\n      pop\n      jump\t// out\n        /* \"#utility.yul\":88:205   */\n    tag_16:\n        /* \"#utility.yul\":197:198   */\n      0x00\n        /* \"#utility.yul\":194:195   */\n      dup1\n        /* \"#utility.yul\":187:199   */\n      revert\n        /* \"#utility.yul\":334:410   */\n    tag_18:\n        /* \"#utility.yul\":370:377   */\n      0x00\n        /* \"#utility.yul\":399:404   */\n      dup2\n        /* \"#utility.yul\":388:404   */\n      swap1\n      pop\n        /* \"#utility.yul\":334:410   */\n      swap2\n      swap1\n      pop\n      jump\t// out\n        /* \"#utility.yul\":416:536   */\n    tag_19:\n        /* \"#utility.yul\":488:511   */\n      tag_34\n        /* \"#utility.yul\":505:510   */\n      dup2\n        /* \"#utility.yul\":488:511   */\n      tag_18\n      jump\t// in\n    tag_34:\n        /* \"#utility.yul\":481:486   */\n      dup2\n        /* \"#utility.yul\":478:512   */\n      eq\n        /* \"#utility.yul\":468:530   */\n      tag_35\n      jumpi\n        /* \"#utility.yul\":526:527   */\n      0x00\n        /* \"#utility.yul\":523:524   */\n      dup1\n        /* \"#utility.yul\":516:528   */\n      revert\n        /* \"#utility.yul\":468:530   */\n    tag_35:\n        /* \"#utility.yul\":416:536   */\n      pop\n      jump\t// out\n        /* \"#utility.yul\":542:679   */\n    tag_20:\n        /* \"#utility.yul\":587:592   */\n      0x00\n        /* \"#utility.yul\":625:631   */\n      dup2\n        /* \"#utility.yul\":612:632   */\n      calldataload\n        /* \"#utility.yul\":603:632   */\n      swap1\n      pop\n        /* \"#utility.yul\":641:673   */\n      tag_37\n        /* \"#utility.yul\":667:672   */\n      dup2\n        /* \"#utility.yul\":641:673   */\n      tag_19\n      jump\t// in\n    tag_37:\n        /* \"#utility.yul\":542:679   */\n      swap3\n      swap2\n      pop\n      pop\n      jump\t// out\n        /* \"#utility.yul\":685:1012   */\n    tag_6:\n        /* \"#utility.yul\":743:749   */\n      0x00\n        /* \"#utility.yul\":792:794   */\n      0x20\n        /* \"#utility.yul\":780:789   */\n      dup3\n        /* \"#utility.yul\":771:778   */\n      dup5\n        /* \"#utility.yul\":767:790   */\n      sub\n        /* \"#utility.yul\":763:795   */\n      slt\n        /* \"#utility.yul\":760:879   */\n      iszero\n      tag_39\n      jumpi\n        /* \"#utility.yul\":798:877   */\n      tag_40\n      tag_16\n      jump\t// in\n    tag_40:\n        /* \"#utility.yul\":760:879   */\n    tag_39:\n        /* \"#utility.yul\":918:919   */\n      0x00\n        /* \"#utility.yul\":943:995   */\n      tag_41\n        /* \"#utility.yul\":987:994   */\n      dup5\n        /* \"#utility.yul\":978:984   */\n      dup3\n        /* \"#utility.yul\":967:976   */\n      dup6\n        /* \"#utility.yul\":963:985   */\n      add\n        /* \"#utility.yul\":943:995   */\n      tag_20\n      jump\t// in\n    tag_41:\n        /* \"#utility.yul\":933:995   */\n      swap2\n      pop\n        /* \"#utility.yul\":889:1005   */\n      pop\n        /* \"#utility.yul\":685:1012   */\n      swap3\n      swap2\n      pop\n      pop\n      jump\t// out\n        /* \"#utility.yul\":1018:1117   */\n    tag_21:\n        /* \"#utility.yul\":1070:1076   */\n      0x00\n        /* \"#utility.yul\":1104:1109   */\n      dup2\n        /* \"#utility.yul\":1098:1110   */\n      mload\n        /* \"#utility.yul\":1088:1110   */\n      swap1\n      pop\n        /* \"#utility.yul\":1018:1117   */\n      swap2\n      swap1\n      pop\n      jump\t// out\n        /* \"#utility.yul\":1123:1292   */\n    tag_22:\n        /* \"#utility.yul\":1207:1218   */\n      0x00\n        /* \"#utility.yul\":1241:1247   */\n      dup3\n        /* \"#utility.yul\":1236:1239   */\n      dup3\n        /* \"#utility.yul\":1229:1248   */\n      mstore\n        /* \"#utility.yul\":1281:1285   */\n      0x20\n        /* \"#utility.yul\":1276:1279   */\n      dup3\n        /* \"#utility.yul\":1272:1286   */\n      add\n        /* \"#utility.yul\":1257:1286   */\n      swap1\n      pop\n        /* \"#utility.yul\":1123:1292   */\n      swap3\n      swap2\n      pop\n      pop\n      jump\t// out\n        /* \"#utility.yul\":1298:1437   */\n    tag_23:\n        /* \"#utility.yul\":1387:1393   */\n      dup3\n        /* \"#utility.yul\":1382:1385   */\n      dup2\n        /* \"#utility.yul\":1377:1380   */\n      dup4\n        /* \"#utility.yul\":1371:1394   */\n      mcopy\n        /* \"#utility.yul\":1428:1429   */\n      0x00\n        /* \"#utility.yul\":1419:1425   */\n      dup4\n        /* \"#utility.yul\":1414:1417   */\n      dup4\n        /* \"#utility.yul\":1410:1426   */\n      add\n        /* \"#utility.yul\":1403:1430   */\n      mstore\n        /* \"#utility.yul\":1298:1437   */\n      pop\n      pop\n      pop\n      jump\t// out\n        /* \"#utility.yul\":1443:1545   */\n    tag_24:\n        /* \"#utility.yul\":1484:1490   */\n      0x00\n        /* \"#utility.yul\":1535:1537   */\n      0x1f\n        /* \"#utility.yul\":1531:1538   */\n      not\n        /* \"#utility.yul\":1526:1528   */\n      0x1f\n        /* \"#utility.yul\":1519:1524   */\n      dup4\n        /* \"#utility.yul\":1515:1529   */\n      add\n        /* \"#utility.yul\":1511:1539   */\n      and\n        /* \"#utility.yul\":1501:1539   */\n      swap1\n      pop\n        /* \"#utility.yul\":1443:1545   */\n      swap2\n      swap1\n      pop\n      jump\t// out\n        /* \"#utility.yul\":1551:1928   */\n    tag_25:\n        /* \"#utility.yul\":1639:1642   */\n      0x00\n        /* \"#utility.yul\":1667:1706   */\n      tag_47\n        /* \"#utility.yul\":1700:1705   */\n      dup3\n        /* \"#utility.yul\":1667:1706   */\n      tag_21\n      jump\t// in\n    tag_47:\n        /* \"#utility.yul\":1722:1793   */\n      tag_48\n        /* \"#utility.yul\":1786:1792   */\n      dup2\n        /* \"#utility.yul\":1781:1784   */\n      dup6\n        /* \"#utility.yul\":1722:1793   */\n      tag_22\n      jump\t// in\n    tag_48:\n        /* \"#utility.yul\":1715:1793   */\n      swap4\n      pop\n        /* \"#utility.yul\":1802:1867   */\n      tag_49\n        /* \"#utility.yul\":1860:1866   */\n      dup2\n        /* \"#utility.yul\":1855:1858   */\n      dup6\n        /* \"#utility.yul\":1848:1852   */\n      0x20\n        /* \"#utility.yul\":1841:1846   */\n      dup7\n        /* \"#utility.yul\":1837:1853   */\n      add\n        /* \"#utility.yul\":1802:1867   */\n      tag_23\n      jump\t// in\n    tag_49:\n        /* \"#utility.yul\":1892:1921   */\n      tag_50\n        /* \"#utility.yul\":1914:1920   */\n      dup2\n        /* \"#utility.yul\":1892:1921   */\n      tag_24\n      jump\t// in\n    tag_50:\n        /* \"#utility.yul\":1887:1890   */\n      dup5\n        /* \"#utility.yul\":1883:1922   */\n      add\n        /* \"#utility.yul\":1876:1922   */\n      swap2\n      pop\n        /* \"#utility.yul\":1643:1928   */\n      pop\n        /* \"#utility.yul\":1551:1928   */\n      swap3\n      swap2\n      pop\n      pop\n      jump\t// out\n        /* \"#utility.yul\":1934:2247   */\n    tag_9:\n        /* \"#utility.yul\":2047:2051   */\n      0x00\n        /* \"#utility.yul\":2085:2087   */\n      0x20\n        /* \"#utility.yul\":2074:2083   */\n      dup3\n        /* \"#utility.yul\":2070:2088   */\n      add\n        /* \"#utility.yul\":2062:2088   */\n      swap1\n      pop\n        /* \"#utility.yul\":2134:2143   */\n      dup2\n        /* \"#utility.yul\":2128:2132   */\n      dup2\n        /* \"#utility.yul\":2124:2144   */\n      sub\n        /* \"#utility.yul\":2120:2121   */\n      0x00\n        /* \"#utility.yul\":2109:2118   */\n      dup4\n        /* \"#utility.yul\":2105:2122   */\n      add\n        /* \"#utility.yul\":2098:2145   */\n      mstore\n        /* \"#utility.yul\":2162:2240   */\n      tag_52\n        /* \"#utility.yul\":2235:2239   */\n      dup2\n        /* \"#utility.yul\":2226:2232   */\n      dup5\n        /* \"#utility.yul\":2162:2240   */\n      tag_25\n      jump\t// in\n    tag_52:\n        /* \"#utility.yul\":2154:2240   */\n      swap1\n      pop\n        /* \"#utility.yul\":1934:2247   */\n      swap3\n      swap2\n      pop\n      pop\n      jump\t// out\n        /* \"#utility.yul\":2253:2419   */\n    tag_26:\n        /* \"#utility.yul\":2393:2411   */\n      0x4e6f742057697468696e2052616e676500000000000000000000000000000000\n        /* \"#utility.yul\":2389:2390   */\n      0x00\n        /* \"#utility.yul\":2381:2387   */\n      dup3\n        /* \"#utility.yul\":2377:2391   */\n      add\n        /* \"#utility.yul\":2370:2412   */\n      mstore\n        /* \"#utility.yul\":2253:2419   */\n      pop\n      jump\t// out\n        /* \"#utility.yul\":2425:2791   */\n    tag_27:\n        /* \"#utility.yul\":2567:2570   */\n      0x00\n        /* \"#utility.yul\":2588:2655   */\n      tag_55\n        /* \"#utility.yul\":2652:2654   */\n      0x10\n        /* \"#utility.yul\":2647:2650   */\n      dup4\n        /* \"#utility.yul\":2588:2655   */\n      tag_22\n      jump\t// in\n    tag_55:\n        /* \"#utility.yul\":2581:2655   */\n      swap2\n      pop\n        /* \"#utility.yul\":2664:2757   */\n      tag_56\n        /* \"#utility.yul\":2753:2756   */\n      dup3\n        /* \"#utility.yul\":2664:2757   */\n      tag_26\n      jump\t// in\n    tag_56:\n        /* \"#utility.yul\":2782:2784   */\n      0x20\n        /* \"#utility.yul\":2777:2780   */\n      dup3\n        /* \"#utility.yul\":2773:2785   */\n      add\n        /* \"#utility.yul\":2766:2785   */\n      swap1\n      pop\n        /* \"#utility.yul\":2425:2791   */\n      swap2\n      swap1\n      pop\n      jump\t// out\n        /* \"#utility.yul\":2797:3216   */\n    tag_14:\n        /* \"#utility.yul\":2963:2967   */\n      0x00\n        /* \"#utility.yul\":3001:3003   */\n      0x20\n        /* \"#utility.yul\":2990:2999   */\n      dup3\n        /* \"#utility.yul\":2986:3004   */\n      add\n        /* \"#utility.yul\":2978:3004   */\n      swap1\n      pop\n        /* \"#utility.yul\":3050:3059   */\n      dup2\n        /* \"#utility.yul\":3044:3048   */\n      dup2\n        /* \"#utility.yul\":3040:3060   */\n      sub\n        /* \"#utility.yul\":3036:3037   */\n      0x00\n        /* \"#utility.yul\":3025:3034   */\n      dup4\n        /* \"#utility.yul\":3021:3038   */\n      add\n        /* \"#utility.yul\":3014:3061   */\n      mstore\n        /* \"#utility.yul\":3078:3209   */\n      tag_58\n        /* \"#utility.yul\":3204:3208   */\n      dup2\n        /* \"#utility.yul\":3078:3209   */\n      tag_27\n      jump\t// in\n    tag_58:\n        /* \"#utility.yul\":3070:3209   */\n      swap1\n      pop\n        /* \"#utility.yul\":2797:3216   */\n      swap2\n      swap1\n      pop\n      jump\t// out\n\n    auxdata: 0xa2646970667358221220928ef03b0a30aa7f70fd0caf415d2b46e3fc33a2cd0d1e1297111c74e374281164736f6c634300081a0033\n}\n",
				"bytecode": {
					"linkReferences": {},
					"object": "6080604052348015600e575f80fd5b5061027c8061001c5f395ff3fe608060405234801561000f575f80fd5b5060043610610029575f3560e01c8063e1cb8e6a1461002d575b5f80fd5b61004760048036038101906100429190610123565b61005d565b60405161005491906101be565b60405180910390f35b60605f8212158015610070575060ff8213155b6100af576040517f08c379a00000000000000000000000000000000000000000000000000000000081526004016100a690610228565b60405180910390fd5b6040518060400160405280600c81526020017f57697468696e2052616e676500000000000000000000000000000000000000008152509050919050565b5f80fd5b5f819050919050565b610102816100f0565b811461010c575f80fd5b50565b5f8135905061011d816100f9565b92915050565b5f60208284031215610138576101376100ec565b5b5f6101458482850161010f565b91505092915050565b5f81519050919050565b5f82825260208201905092915050565b8281835e5f83830152505050565b5f601f19601f8301169050919050565b5f6101908261014e565b61019a8185610158565b93506101aa818560208601610168565b6101b381610176565b840191505092915050565b5f6020820190508181035f8301526101d68184610186565b905092915050565b7f4e6f742057697468696e2052616e6765000000000000000000000000000000005f82015250565b5f610212601083610158565b915061021d826101de565b602082019050919050565b5f6020820190508181035f83015261023f81610206565b905091905056fea2646970667358221220928ef03b0a30aa7f70fd0caf415d2b46e3fc33a2cd0d1e1297111c74e374281164736f6c634300081a0033",
					"opcodes": "PUSH1 0x80 PUSH1 0x40 MSTORE CALLVALUE DUP1 ISZERO PUSH1 0xE JUMPI PUSH0 DUP1 REVERT JUMPDEST POP PUSH2 0x27C DUP1 PUSH2 0x1C PUSH0 CODECOPY PUSH0 RETURN INVALID PUSH1 0x80 PUSH1 0x40 MSTORE CALLVALUE DUP1 ISZERO PUSH2 0xF JUMPI PUSH0 DUP1 REVERT JUMPDEST POP PUSH1 0x4 CALLDATASIZE LT PUSH2 0x29 JUMPI PUSH0 CALLDATALOAD PUSH1 0xE0 SHR DUP1 PUSH4 0xE1CB8E6A EQ PUSH2 0x2D JUMPI JUMPDEST PUSH0 DUP1 REVERT JUMPDEST PUSH2 0x47 PUSH1 0x4 DUP1 CALLDATASIZE SUB DUP2 ADD SWAP1 PUSH2 0x42 SWAP2 SWAP1 PUSH2 0x123 JUMP JUMPDEST PUSH2 0x5D JUMP JUMPDEST PUSH1 0x40 MLOAD PUSH2 0x54 SWAP2 SWAP1 PUSH2 0x1BE JUMP JUMPDEST PUSH1 0x40 MLOAD DUP1 SWAP2 SUB SWAP1 RETURN JUMPDEST PUSH1 0x60 PUSH0 DUP3 SLT ISZERO DUP1 ISZERO PUSH2 0x70 JUMPI POP PUSH1 0xFF DUP3 SGT ISZERO JUMPDEST PUSH2 0xAF JUMPI PUSH1 0x40 MLOAD PUSH32 0x8C379A000000000000000000000000000000000000000000000000000000000 DUP2 MSTORE PUSH1 0x4 ADD PUSH2 0xA6 SWAP1 PUSH2 0x228 JUMP JUMPDEST PUSH1 0x40 MLOAD DUP1 SWAP2 SUB SWAP1 REVERT JUMPDEST PUSH1 0x40 MLOAD DUP1 PUSH1 0x40 ADD PUSH1 0x40 MSTORE DUP1 PUSH1 0xC DUP2 MSTORE PUSH1 0x20 ADD PUSH32 0x57697468696E2052616E67650000000000000000000000000000000000000000 DUP2 MSTORE POP SWAP1 POP SWAP2 SWAP1 POP JUMP JUMPDEST PUSH0 DUP1 REVERT JUMPDEST PUSH0 DUP2 SWAP1 POP SWAP2 SWAP1 POP JUMP JUMPDEST PUSH2 0x102 DUP2 PUSH2 0xF0 JUMP JUMPDEST DUP2 EQ PUSH2 0x10C JUMPI PUSH0 DUP1 REVERT JUMPDEST POP JUMP JUMPDEST PUSH0 DUP2 CALLDATALOAD SWAP1 POP PUSH2 0x11D DUP2 PUSH2 0xF9 JUMP JUMPDEST SWAP3 SWAP2 POP POP JUMP JUMPDEST PUSH0 PUSH1 0x20 DUP3 DUP5 SUB SLT ISZERO PUSH2 0x138 JUMPI PUSH2 0x137 PUSH2 0xEC JUMP JUMPDEST JUMPDEST PUSH0 PUSH2 0x145 DUP5 DUP3 DUP6 ADD PUSH2 0x10F JUMP JUMPDEST SWAP2 POP POP SWAP3 SWAP2 POP POP JUMP JUMPDEST PUSH0 DUP2 MLOAD SWAP1 POP SWAP2 SWAP1 POP JUMP JUMPDEST PUSH0 DUP3 DUP3 MSTORE PUSH1 0x20 DUP3 ADD SWAP1 POP SWAP3 SWAP2 POP POP JUMP JUMPDEST DUP3 DUP2 DUP4 MCOPY PUSH0 DUP4 DUP4 ADD MSTORE POP POP POP JUMP JUMPDEST PUSH0 PUSH1 0x1F NOT PUSH1 0x1F DUP4 ADD AND SWAP1 POP SWAP2 SWAP1 POP JUMP JUMPDEST PUSH0 PUSH2 0x190 DUP3 PUSH2 0x14E JUMP JUMPDEST PUSH2 0x19A DUP2 DUP6 PUSH2 0x158 JUMP JUMPDEST SWAP4 POP PUSH2 0x1AA DUP2 DUP6 PUSH1 0x20 DUP7 ADD PUSH2 0x168 JUMP JUMPDEST PUSH2 0x1B3 DUP2 PUSH2 0x176 JUMP JUMPDEST DUP5 ADD SWAP2 POP POP SWAP3 SWAP2 POP POP JUMP JUMPDEST PUSH0 PUSH1 0x20 DUP3 ADD SWAP1 POP DUP2 DUP2 SUB PUSH0 DUP4 ADD MSTORE PUSH2 0x1D6 DUP2 DUP5 PUSH2 0x186 JUMP JUMPDEST SWAP1 POP SWAP3 SWAP2 POP POP JUMP JUMPDEST PUSH32 0x4E6F742057697468696E2052616E676500000000000000000000000000000000 PUSH0 DUP3 ADD MSTORE POP JUMP JUMPDEST PUSH0 PUSH2 0x212 PUSH1 0x10 DUP4 PUSH2 0x158 JUMP JUMPDEST SWAP2 POP PUSH2 0x21D DUP3 PUSH2 0x1DE JUMP JUMPDEST PUSH1 0x20 DUP3 ADD SWAP1 POP SWAP2 SWAP1 POP JUMP JUMPDEST PUSH0 PUSH1 0x20 DUP3 ADD SWAP1 POP DUP2 DUP2 SUB PUSH0 DUP4 ADD MSTORE PUSH2 0x23F DUP2 PUSH2 0x206 JUMP JUMPDEST SWAP1 POP SWAP2 SWAP1 POP JUMP INVALID LOG2 PUSH5 0x6970667358 0x22 SLT KECCAK256 SWAP3 DUP15 CREATE EXTCODESIZE EXP ADDRESS 0xAA PUSH32 0x70FD0CAF415D2B46E3FC33A2CD0D1E1297111C74E374281164736F6C63430008 BYTE STOP CALLER "
				},
				"gasEstimates": {
					"creation": {
						"codeDepositCost": "127200",
						"executionCost": "169",
						"totalCost": "127369"
					},
					"external": {
						"reqCheck(int256)": "infinite"
					}
				},
				"methodIdentifiers": {
					"reqCheck(int256)": "e1cb8e6a"
				}
			},
			"storageLayout": {
				"storage": [
					{
						"astId": 3,
						"contract": "contracts/lab5.sol:demo",
						"label": "input",
						"offset": 0,
						"slot": "0",
						"type": "t_uint256"
					}
				],
				"types": {
					"t_uint256": {
						"encoding": "inplace",
						"label": "uint256",
						"numberOfBytes": "32"
					}
				}
			},
			"userdoc": {
				"kind": "user",
				"methods": {},
				"version": 1
			}
		}
	}
}