{
	"contracts/structure.sol": {
		"demo": {
			"abi": [
				{
					"inputs": [],
					"name": "counter",
					"outputs": [
						{
							"internalType": "uint256",
							"name": "",
							"type": "uint256"
						}
					],
					"stateMutability": "view",
					"type": "function"
				},
				{
					"inputs": [
						{
							"internalType": "string",
							"name": "_name",
							"type": "string"
						}
					],
					"name": "insert",
					"outputs": [],
					"stateMutability": "nonpayable",
					"type": "function"
				},
				{
					"inputs": [
						{
							"internalType": "uint256",
							"name": "_index",
							"type": "uint256"
						}
					],
					"name": "read",
					"outputs": [
						{
							"internalType": "uint256",
							"name": "",
							"type": "uint256"
						},
						{
							"internalType": "string",
							"name": "",
							"type": "string"
						}
					],
					"stateMutability": "view",
					"type": "function"
				},
				{
					"inputs": [
						{
							"internalType": "uint256",
							"name": "",
							"type": "uint256"
						}
					],
					"name": "users",
					"outputs": [
						{
							"internalType": "uint256",
							"name": "id",
							"type": "uint256"
						},
						{
							"internalType": "string",
							"name": "name",
							"type": "string"
						}
					],
					"stateMutability": "view",
					"type": "function"
				}
			],
			"devdoc": {
				"kind": "dev",
				"methods": {},
				"version": 1
			},
			"evm": {
				"assembly": "    /* \"contracts/structure.sol\":61:424  contract demo{... */\n  mstore(0x40, 0x80)\n    /* \"contracts/structure.sol\":200:201  0 */\n  0x00\n    /* \"contracts/structure.sol\":177:201  uint256 public counter=0 */\n  0x01\n  sstore\n    /* \"contracts/structure.sol\":61:424  contract demo{... */\n  callvalue\n  dup1\n  iszero\n  tag_1\n  jumpi\n  0x00\n  dup1\n  revert\ntag_1:\n  pop\n  dataSize(sub_0)\n  dup1\n  dataOffset(sub_0)\n  0x00\n  codecopy\n  0x00\n  return\nstop\n\nsub_0: assembly {\n        /* \"contracts/structure.sol\":61:424  contract demo{... */\n      mstore(0x40, 0x80)\n      callvalue\n      dup1\n      iszero\n      tag_1\n      jumpi\n      0x00\n      dup1\n      revert\n    tag_1:\n      pop\n      jumpi(tag_2, lt(calldatasize, 0x04))\n      shr(0xe0, calldataload(0x00))\n      dup1\n      0x365b98b2\n      eq\n      tag_3\n      jumpi\n      dup1\n      0x61bc221a\n      eq\n      tag_4\n      jumpi\n      dup1\n      0xb1498e29\n      eq\n      tag_5\n      jumpi\n      dup1\n      0xed2e5a97\n      eq\n      tag_6\n      jumpi\n    tag_2:\n      0x00\n      dup1\n      revert\n        /* \"contracts/structure.sol\":151:170  USER[] public users */\n    tag_3:\n      tag_7\n      0x04\n      dup1\n      calldatasize\n      sub\n      dup2\n      add\n      swap1\n      tag_8\n      swap2\n      swap1\n      tag_9\n      jump\t// in\n    tag_8:\n      tag_10\n      jump\t// in\n    tag_7:\n      mload(0x40)\n      tag_11\n      swap3\n      swap2\n      swap1\n      tag_12\n      jump\t// in\n    tag_11:\n      mload(0x40)\n      dup1\n      swap2\n      sub\n      swap1\n      return\n        /* \"contracts/structure.sol\":177:201  uint256 public counter=0 */\n    tag_4:\n      tag_13\n      tag_14\n      jump\t// in\n    tag_13:\n      mload(0x40)\n      tag_15\n      swap2\n      swap1\n      tag_16\n      jump\t// in\n    tag_15:\n      mload(0x40)\n      dup1\n      swap2\n      sub\n      swap1\n      return\n        /* \"contracts/structure.sol\":210:323  function insert(string memory _name) public{... */\n    tag_5:\n      tag_17\n      0x04\n      dup1\n      calldatasize\n      sub\n      dup2\n      add\n      swap1\n      tag_18\n      swap2\n      swap1\n      tag_19\n      jump\t// in\n    tag_18:\n      tag_20\n      jump\t// in\n    tag_17:\n      stop\n        /* \"contracts/structure.sol\":331:419  function read(uint256 _index) public view returns(uint, string memory){... */\n    tag_6:\n      tag_21\n      0x04\n      dup1\n      calldatasize\n      sub\n      dup2\n      add\n      swap1\n      tag_22\n      swap2\n      swap1\n      tag_9\n      jump\t// in\n    tag_22:\n      tag_23\n      jump\t// in\n    tag_21:\n      mload(0x40)\n      tag_24\n      swap3\n      swap2\n      swap1\n      tag_12\n      jump\t// in\n    tag_24:\n      mload(0x40)\n      dup1\n      swap2\n      sub\n      swap1\n      return\n        /* \"contracts/structure.sol\":151:170  USER[] public users */\n    tag_10:\n      0x00\n      dup2\n      dup2\n      sload\n      dup2\n      lt\n      tag_25\n      jumpi\n      0x00\n      dup1\n      revert\n    tag_25:\n      swap1\n      0x00\n      mstore\n      keccak256(0x00, 0x20)\n      swap1\n      0x02\n      mul\n      add\n      0x00\n      swap2\n      pop\n      swap1\n      pop\n      dup1\n      0x00\n      add\n      sload\n      swap1\n      dup1\n      0x01\n      add\n      dup1\n      sload\n      tag_27\n      swap1\n      tag_28\n      jump\t// in\n    tag_27:\n      dup1\n      0x1f\n      add\n      0x20\n      dup1\n      swap2\n      div\n      mul\n      0x20\n      add\n      mload(0x40)\n      swap1\n      dup2\n      add\n      0x40\n      mstore\n      dup1\n      swap3\n      swap2\n      swap1\n      dup2\n      dup2\n      mstore\n      0x20\n      add\n      dup3\n      dup1\n      sload\n      tag_29\n      swap1\n      tag_28\n      jump\t// in\n    tag_29:\n      dup1\n      iszero\n      tag_30\n      jumpi\n      dup1\n      0x1f\n      lt\n      tag_31\n      jumpi\n      0x0100\n      dup1\n      dup4\n      sload\n      div\n      mul\n      dup4\n      mstore\n      swap2\n      0x20\n      add\n      swap2\n      jump(tag_30)\n    tag_31:\n      dup3\n      add\n      swap2\n      swap1\n      0x00\n      mstore\n      keccak256(0x00, 0x20)\n      swap1\n    tag_32:\n      dup2\n      sload\n      dup2\n      mstore\n      swap1\n      0x01\n      add\n      swap1\n      0x20\n      add\n      dup1\n      dup4\n      gt\n      tag_32\n      jumpi\n      dup3\n      swap1\n      sub\n      0x1f\n      and\n      dup3\n      add\n      swap2\n    tag_30:\n      pop\n      pop\n      pop\n      pop\n      pop\n      swap1\n      pop\n      dup3\n      jump\t// out\n        /* \"contracts/structure.sol\":177:201  uint256 public counter=0 */\n    tag_14:\n      sload(0x01)\n      dup2\n      jump\t// out\n        /* \"contracts/structure.sol\":210:323  function insert(string memory _name) public{... */\n    tag_20:\n        /* \"contracts/structure.sol\":264:269  users */\n      0x00\n        /* \"contracts/structure.sol\":275:294  USER(counter,_name) */\n      mload(0x40)\n      dup1\n      0x40\n      add\n      0x40\n      mstore\n      dup1\n        /* \"contracts/structure.sol\":280:287  counter */\n      sload(0x01)\n        /* \"contracts/structure.sol\":275:294  USER(counter,_name) */\n      dup2\n      mstore\n      0x20\n      add\n        /* \"contracts/structure.sol\":288:293  _name */\n      dup4\n        /* \"contracts/structure.sol\":275:294  USER(counter,_name) */\n      dup2\n      mstore\n      pop\n        /* \"contracts/structure.sol\":264:295  users.push(USER(counter,_name)) */\n      swap1\n      dup1\n      0x01\n      dup2\n      sload\n      add\n      dup1\n      dup3\n      sstore\n      dup1\n      swap2\n      pop\n      pop\n      0x01\n      swap1\n      sub\n      swap1\n      0x00\n      mstore\n      keccak256(0x00, 0x20)\n      swap1\n      0x02\n      mul\n      add\n      0x00\n      swap1\n      swap2\n      swap1\n      swap2\n      swap1\n      swap2\n      pop\n      0x00\n      dup3\n      add\n      mload\n      dup2\n      0x00\n      add\n      sstore\n      0x20\n      dup3\n      add\n      mload\n      dup2\n      0x01\n      add\n      swap1\n      dup2\n      tag_35\n      swap2\n      swap1\n      tag_36\n      jump\t// in\n    tag_35:\n      pop\n      pop\n      pop\n        /* \"contracts/structure.sol\":306:313  counter */\n      0x01\n      0x00\n        /* \"contracts/structure.sol\":306:315  counter++ */\n      dup2\n      sload\n      dup1\n      swap3\n      swap2\n      swap1\n      tag_37\n      swap1\n      tag_38\n      jump\t// in\n    tag_37:\n      swap2\n      swap1\n      pop\n      sstore\n      pop\n        /* \"contracts/structure.sol\":210:323  function insert(string memory _name) public{... */\n      pop\n      jump\t// out\n        /* \"contracts/structure.sol\":331:419  function read(uint256 _index) public view returns(uint, string memory){... */\n    tag_23:\n        /* \"contracts/structure.sol\":381:385  uint */\n      0x00\n        /* \"contracts/structure.sol\":387:400  string memory */\n      0x60\n        /* \"contracts/structure.sol\":331:419  function read(uint256 _index) public view returns(uint, string memory){... */\n      swap2\n      pop\n      swap2\n      jump\t// out\n        /* \"#utility.yul\":7:82   */\n    tag_40:\n        /* \"#utility.yul\":40:46   */\n      0x00\n        /* \"#utility.yul\":73:75   */\n      0x40\n        /* \"#utility.yul\":67:76   */\n      mload\n        /* \"#utility.yul\":57:76   */\n      swap1\n      pop\n        /* \"#utility.yul\":7:82   */\n      swap1\n      jump\t// out\n        /* \"#utility.yul\":88:205   */\n    tag_41:\n        /* \"#utility.yul\":197:198   */\n      0x00\n        /* \"#utility.yul\":194:195   */\n      dup1\n        /* \"#utility.yul\":187:199   */\n      revert\n        /* \"#utility.yul\":211:328   */\n    tag_42:\n        /* \"#utility.yul\":320:321   */\n      0x00\n        /* \"#utility.yul\":317:318   */\n      dup1\n        /* \"#utility.yul\":310:322   */\n      revert\n        /* \"#utility.yul\":334:411   */\n    tag_43:\n        /* \"#utility.yul\":371:378   */\n      0x00\n        /* \"#utility.yul\":400:405   */\n      dup2\n        /* \"#utility.yul\":389:405   */\n      swap1\n      pop\n        /* \"#utility.yul\":334:411   */\n      swap2\n      swap1\n      pop\n      jump\t// out\n        /* \"#utility.yul\":417:539   */\n    tag_44:\n        /* \"#utility.yul\":490:514   */\n      tag_84\n        /* \"#utility.yul\":508:513   */\n      dup2\n        /* \"#utility.yul\":490:514   */\n      tag_43\n      jump\t// in\n    tag_84:\n        /* \"#utility.yul\":483:488   */\n      dup2\n        /* \"#utility.yul\":480:515   */\n      eq\n        /* \"#utility.yul\":470:533   */\n      tag_85\n      jumpi\n        /* \"#utility.yul\":529:530   */\n      0x00\n        /* \"#utility.yul\":526:527   */\n      dup1\n        /* \"#utility.yul\":519:531   */\n      revert\n        /* \"#utility.yul\":470:533   */\n    tag_85:\n        /* \"#utility.yul\":417:539   */\n      pop\n      jump\t// out\n        /* \"#utility.yul\":545:684   */\n    tag_45:\n        /* \"#utility.yul\":591:596   */\n      0x00\n        /* \"#utility.yul\":629:635   */\n      dup2\n        /* \"#utility.yul\":616:636   */\n      calldataload\n        /* \"#utility.yul\":607:636   */\n      swap1\n      pop\n        /* \"#utility.yul\":645:678   */\n      tag_87\n        /* \"#utility.yul\":672:677   */\n      dup2\n        /* \"#utility.yul\":645:678   */\n      tag_44\n      jump\t// in\n    tag_87:\n        /* \"#utility.yul\":545:684   */\n      swap3\n      swap2\n      pop\n      pop\n      jump\t// out\n        /* \"#utility.yul\":690:1019   */\n    tag_9:\n        /* \"#utility.yul\":749:755   */\n      0x00\n        /* \"#utility.yul\":798:800   */\n      0x20\n        /* \"#utility.yul\":786:795   */\n      dup3\n        /* \"#utility.yul\":777:784   */\n      dup5\n        /* \"#utility.yul\":773:796   */\n      sub\n        /* \"#utility.yul\":769:801   */\n      slt\n        /* \"#utility.yul\":766:885   */\n      iszero\n      tag_89\n      jumpi\n        /* \"#utility.yul\":804:883   */\n      tag_90\n      tag_41\n      jump\t// in\n    tag_90:\n        /* \"#utility.yul\":766:885   */\n    tag_89:\n        /* \"#utility.yul\":924:925   */\n      0x00\n        /* \"#utility.yul\":949:1002   */\n      tag_91\n        /* \"#utility.yul\":994:1001   */\n      dup5\n        /* \"#utility.yul\":985:991   */\n      dup3\n        /* \"#utility.yul\":974:983   */\n      dup6\n        /* \"#utility.yul\":970:992   */\n      add\n        /* \"#utility.yul\":949:1002   */\n      tag_45\n      jump\t// in\n    tag_91:\n        /* \"#utility.yul\":939:1002   */\n      swap2\n      pop\n        /* \"#utility.yul\":895:1012   */\n      pop\n        /* \"#utility.yul\":690:1019   */\n      swap3\n      swap2\n      pop\n      pop\n      jump\t// out\n        /* \"#utility.yul\":1025:1143   */\n    tag_46:\n        /* \"#utility.yul\":1112:1136   */\n      tag_93\n        /* \"#utility.yul\":1130:1135   */\n      dup2\n        /* \"#utility.yul\":1112:1136   */\n      tag_43\n      jump\t// in\n    tag_93:\n        /* \"#utility.yul\":1107:1110   */\n      dup3\n        /* \"#utility.yul\":1100:1137   */\n      mstore\n        /* \"#utility.yul\":1025:1143   */\n      pop\n      pop\n      jump\t// out\n        /* \"#utility.yul\":1149:1248   */\n    tag_47:\n        /* \"#utility.yul\":1201:1207   */\n      0x00\n        /* \"#utility.yul\":1235:1240   */\n      dup2\n        /* \"#utility.yul\":1229:1241   */\n      mload\n        /* \"#utility.yul\":1219:1241   */\n      swap1\n      pop\n        /* \"#utility.yul\":1149:1248   */\n      swap2\n      swap1\n      pop\n      jump\t// out\n        /* \"#utility.yul\":1254:1423   */\n    tag_48:\n        /* \"#utility.yul\":1338:1349   */\n      0x00\n        /* \"#utility.yul\":1372:1378   */\n      dup3\n        /* \"#utility.yul\":1367:1370   */\n      dup3\n        /* \"#utility.yul\":1360:1379   */\n      mstore\n        /* \"#utility.yul\":1412:1416   */\n      0x20\n        /* \"#utility.yul\":1407:1410   */\n      dup3\n        /* \"#utility.yul\":1403:1417   */\n      add\n        /* \"#utility.yul\":1388:1417   */\n      swap1\n      pop\n        /* \"#utility.yul\":1254:1423   */\n      swap3\n      swap2\n      pop\n      pop\n      jump\t// out\n        /* \"#utility.yul\":1429:1568   */\n    tag_49:\n        /* \"#utility.yul\":1518:1524   */\n      dup3\n        /* \"#utility.yul\":1513:1516   */\n      dup2\n        /* \"#utility.yul\":1508:1511   */\n      dup4\n        /* \"#utility.yul\":1502:1525   */\n      mcopy\n        /* \"#utility.yul\":1559:1560   */\n      0x00\n        /* \"#utility.yul\":1550:1556   */\n      dup4\n        /* \"#utility.yul\":1545:1548   */\n      dup4\n        /* \"#utility.yul\":1541:1557   */\n      add\n        /* \"#utility.yul\":1534:1561   */\n      mstore\n        /* \"#utility.yul\":1429:1568   */\n      pop\n      pop\n      pop\n      jump\t// out\n        /* \"#utility.yul\":1574:1676   */\n    tag_50:\n        /* \"#utility.yul\":1615:1621   */\n      0x00\n        /* \"#utility.yul\":1666:1668   */\n      0x1f\n        /* \"#utility.yul\":1662:1669   */\n      not\n        /* \"#utility.yul\":1657:1659   */\n      0x1f\n        /* \"#utility.yul\":1650:1655   */\n      dup4\n        /* \"#utility.yul\":1646:1660   */\n      add\n        /* \"#utility.yul\":1642:1670   */\n      and\n        /* \"#utility.yul\":1632:1670   */\n      swap1\n      pop\n        /* \"#utility.yul\":1574:1676   */\n      swap2\n      swap1\n      pop\n      jump\t// out\n        /* \"#utility.yul\":1682:2059   */\n    tag_51:\n        /* \"#utility.yul\":1770:1773   */\n      0x00\n        /* \"#utility.yul\":1798:1837   */\n      tag_99\n        /* \"#utility.yul\":1831:1836   */\n      dup3\n        /* \"#utility.yul\":1798:1837   */\n      tag_47\n      jump\t// in\n    tag_99:\n        /* \"#utility.yul\":1853:1924   */\n      tag_100\n        /* \"#utility.yul\":1917:1923   */\n      dup2\n        /* \"#utility.yul\":1912:1915   */\n      dup6\n        /* \"#utility.yul\":1853:1924   */\n      tag_48\n      jump\t// in\n    tag_100:\n        /* \"#utility.yul\":1846:1924   */\n      swap4\n      pop\n        /* \"#utility.yul\":1933:1998   */\n      tag_101\n        /* \"#utility.yul\":1991:1997   */\n      dup2\n        /* \"#utility.yul\":1986:1989   */\n      dup6\n        /* \"#utility.yul\":1979:1983   */\n      0x20\n        /* \"#utility.yul\":1972:1977   */\n      dup7\n        /* \"#utility.yul\":1968:1984   */\n      add\n        /* \"#utility.yul\":1933:1998   */\n      tag_49\n      jump\t// in\n    tag_101:\n        /* \"#utility.yul\":2023:2052   */\n      tag_102\n        /* \"#utility.yul\":2045:2051   */\n      dup2\n        /* \"#utility.yul\":2023:2052   */\n      tag_50\n      jump\t// in\n    tag_102:\n        /* \"#utility.yul\":2018:2021   */\n      dup5\n        /* \"#utility.yul\":2014:2053   */\n      add\n        /* \"#utility.yul\":2007:2053   */\n      swap2\n      pop\n        /* \"#utility.yul\":1774:2059   */\n      pop\n        /* \"#utility.yul\":1682:2059   */\n      swap3\n      swap2\n      pop\n      pop\n      jump\t// out\n        /* \"#utility.yul\":2065:2488   */\n    tag_12:\n        /* \"#utility.yul\":2206:2210   */\n      0x00\n        /* \"#utility.yul\":2244:2246   */\n      0x40\n        /* \"#utility.yul\":2233:2242   */\n      dup3\n        /* \"#utility.yul\":2229:2247   */\n      add\n        /* \"#utility.yul\":2221:2247   */\n      swap1\n      pop\n        /* \"#utility.yul\":2257:2328   */\n      tag_104\n        /* \"#utility.yul\":2325:2326   */\n      0x00\n        /* \"#utility.yul\":2314:2323   */\n      dup4\n        /* \"#utility.yul\":2310:2327   */\n      add\n        /* \"#utility.yul\":2301:2307   */\n      dup6\n        /* \"#utility.yul\":2257:2328   */\n      tag_46\n      jump\t// in\n    tag_104:\n        /* \"#utility.yul\":2375:2384   */\n      dup2\n        /* \"#utility.yul\":2369:2373   */\n      dup2\n        /* \"#utility.yul\":2365:2385   */\n      sub\n        /* \"#utility.yul\":2360:2362   */\n      0x20\n        /* \"#utility.yul\":2349:2358   */\n      dup4\n        /* \"#utility.yul\":2345:2363   */\n      add\n        /* \"#utility.yul\":2338:2386   */\n      mstore\n        /* \"#utility.yul\":2403:2481   */\n      tag_105\n        /* \"#utility.yul\":2476:2480   */\n      dup2\n        /* \"#utility.yul\":2467:2473   */\n      dup5\n        /* \"#utility.yul\":2403:2481   */\n      tag_51\n      jump\t// in\n    tag_105:\n        /* \"#utility.yul\":2395:2481   */\n      swap1\n      pop\n        /* \"#utility.yul\":2065:2488   */\n      swap4\n      swap3\n      pop\n      pop\n      pop\n      jump\t// out\n        /* \"#utility.yul\":2494:2716   */\n    tag_16:\n        /* \"#utility.yul\":2587:2591   */\n      0x00\n        /* \"#utility.yul\":2625:2627   */\n      0x20\n        /* \"#utility.yul\":2614:2623   */\n      dup3\n        /* \"#utility.yul\":2610:2628   */\n      add\n        /* \"#utility.yul\":2602:2628   */\n      swap1\n      pop\n        /* \"#utility.yul\":2638:2709   */\n      tag_107\n        /* \"#utility.yul\":2706:2707   */\n      0x00\n        /* \"#utility.yul\":2695:2704   */\n      dup4\n        /* \"#utility.yul\":2691:2708   */\n      add\n        /* \"#utility.yul\":2682:2688   */\n      dup5\n        /* \"#utility.yul\":2638:2709   */\n      tag_46\n      jump\t// in\n    tag_107:\n        /* \"#utility.yul\":2494:2716   */\n      swap3\n      swap2\n      pop\n      pop\n      jump\t// out\n        /* \"#utility.yul\":2722:2839   */\n    tag_52:\n        /* \"#utility.yul\":2831:2832   */\n      0x00\n        /* \"#utility.yul\":2828:2829   */\n      dup1\n        /* \"#utility.yul\":2821:2833   */\n      revert\n        /* \"#utility.yul\":2845:2962   */\n    tag_53:\n        /* \"#utility.yul\":2954:2955   */\n      0x00\n        /* \"#utility.yul\":2951:2952   */\n      dup1\n        /* \"#utility.yul\":2944:2956   */\n      revert\n        /* \"#utility.yul\":2968:3148   */\n    tag_54:\n        /* \"#utility.yul\":3016:3093   */\n      0x4e487b7100000000000000000000000000000000000000000000000000000000\n        /* \"#utility.yul\":3013:3014   */\n      0x00\n        /* \"#utility.yul\":3006:3094   */\n      mstore\n        /* \"#utility.yul\":3113:3117   */\n      0x41\n        /* \"#utility.yul\":3110:3111   */\n      0x04\n        /* \"#utility.yul\":3103:3118   */\n      mstore\n        /* \"#utility.yul\":3137:3141   */\n      0x24\n        /* \"#utility.yul\":3134:3135   */\n      0x00\n        /* \"#utility.yul\":3127:3142   */\n      revert\n        /* \"#utility.yul\":3154:3435   */\n    tag_55:\n        /* \"#utility.yul\":3237:3264   */\n      tag_112\n        /* \"#utility.yul\":3259:3263   */\n      dup3\n        /* \"#utility.yul\":3237:3264   */\n      tag_50\n      jump\t// in\n    tag_112:\n        /* \"#utility.yul\":3229:3235   */\n      dup2\n        /* \"#utility.yul\":3225:3265   */\n      add\n        /* \"#utility.yul\":3367:3373   */\n      dup2\n        /* \"#utility.yul\":3355:3365   */\n      dup2\n        /* \"#utility.yul\":3352:3374   */\n      lt\n        /* \"#utility.yul\":3331:3349   */\n      0xffffffffffffffff\n        /* \"#utility.yul\":3319:3329   */\n      dup3\n        /* \"#utility.yul\":3316:3350   */\n      gt\n        /* \"#utility.yul\":3313:3375   */\n      or\n        /* \"#utility.yul\":3310:3398   */\n      iszero\n      tag_113\n      jumpi\n        /* \"#utility.yul\":3378:3396   */\n      tag_114\n      tag_54\n      jump\t// in\n    tag_114:\n        /* \"#utility.yul\":3310:3398   */\n    tag_113:\n        /* \"#utility.yul\":3418:3428   */\n      dup1\n        /* \"#utility.yul\":3414:3416   */\n      0x40\n        /* \"#utility.yul\":3407:3429   */\n      mstore\n        /* \"#utility.yul\":3197:3435   */\n      pop\n        /* \"#utility.yul\":3154:3435   */\n      pop\n      pop\n      jump\t// out\n        /* \"#utility.yul\":3441:3570   */\n    tag_56:\n        /* \"#utility.yul\":3475:3481   */\n      0x00\n        /* \"#utility.yul\":3502:3522   */\n      tag_116\n      tag_40\n      jump\t// in\n    tag_116:\n        /* \"#utility.yul\":3492:3522   */\n      swap1\n      pop\n        /* \"#utility.yul\":3531:3564   */\n      tag_117\n        /* \"#utility.yul\":3559:3563   */\n      dup3\n        /* \"#utility.yul\":3551:3557   */\n      dup3\n        /* \"#utility.yul\":3531:3564   */\n      tag_55\n      jump\t// in\n    tag_117:\n        /* \"#utility.yul\":3441:3570   */\n      swap2\n      swap1\n      pop\n      jump\t// out\n        /* \"#utility.yul\":3576:3884   */\n    tag_57:\n        /* \"#utility.yul\":3638:3642   */\n      0x00\n        /* \"#utility.yul\":3728:3746   */\n      0xffffffffffffffff\n        /* \"#utility.yul\":3720:3726   */\n      dup3\n        /* \"#utility.yul\":3717:3747   */\n      gt\n        /* \"#utility.yul\":3714:3770   */\n      iszero\n      tag_119\n      jumpi\n        /* \"#utility.yul\":3750:3768   */\n      tag_120\n      tag_54\n      jump\t// in\n    tag_120:\n        /* \"#utility.yul\":3714:3770   */\n    tag_119:\n        /* \"#utility.yul\":3788:3817   */\n      tag_121\n        /* \"#utility.yul\":3810:3816   */\n      dup3\n        /* \"#utility.yul\":3788:3817   */\n      tag_50\n      jump\t// in\n    tag_121:\n        /* \"#utility.yul\":3780:3817   */\n      swap1\n      pop\n        /* \"#utility.yul\":3872:3876   */\n      0x20\n        /* \"#utility.yul\":3866:3870   */\n      dup2\n        /* \"#utility.yul\":3862:3877   */\n      add\n        /* \"#utility.yul\":3854:3877   */\n      swap1\n      pop\n        /* \"#utility.yul\":3576:3884   */\n      swap2\n      swap1\n      pop\n      jump\t// out\n        /* \"#utility.yul\":3890:4038   */\n    tag_58:\n        /* \"#utility.yul\":3988:3994   */\n      dup3\n        /* \"#utility.yul\":3983:3986   */\n      dup2\n        /* \"#utility.yul\":3978:3981   */\n      dup4\n        /* \"#utility.yul\":3965:3995   */\n      calldatacopy\n        /* \"#utility.yul\":4029:4030   */\n      0x00\n        /* \"#utility.yul\":4020:4026   */\n      dup4\n        /* \"#utility.yul\":4015:4018   */\n      dup4\n        /* \"#utility.yul\":4011:4027   */\n      add\n        /* \"#utility.yul\":4004:4031   */\n      mstore\n        /* \"#utility.yul\":3890:4038   */\n      pop\n      pop\n      pop\n      jump\t// out\n        /* \"#utility.yul\":4044:4469   */\n    tag_59:\n        /* \"#utility.yul\":4122:4127   */\n      0x00\n        /* \"#utility.yul\":4147:4213   */\n      tag_124\n        /* \"#utility.yul\":4163:4212   */\n      tag_125\n        /* \"#utility.yul\":4205:4211   */\n      dup5\n        /* \"#utility.yul\":4163:4212   */\n      tag_57\n      jump\t// in\n    tag_125:\n        /* \"#utility.yul\":4147:4213   */\n      tag_56\n      jump\t// in\n    tag_124:\n        /* \"#utility.yul\":4138:4213   */\n      swap1\n      pop\n        /* \"#utility.yul\":4236:4242   */\n      dup3\n        /* \"#utility.yul\":4229:4234   */\n      dup2\n        /* \"#utility.yul\":4222:4243   */\n      mstore\n        /* \"#utility.yul\":4274:4278   */\n      0x20\n        /* \"#utility.yul\":4267:4272   */\n      dup2\n        /* \"#utility.yul\":4263:4279   */\n      add\n        /* \"#utility.yul\":4312:4315   */\n      dup5\n        /* \"#utility.yul\":4303:4309   */\n      dup5\n        /* \"#utility.yul\":4298:4301   */\n      dup5\n        /* \"#utility.yul\":4294:4310   */\n      add\n        /* \"#utility.yul\":4291:4316   */\n      gt\n        /* \"#utility.yul\":4288:4400   */\n      iszero\n      tag_126\n      jumpi\n        /* \"#utility.yul\":4319:4398   */\n      tag_127\n      tag_53\n      jump\t// in\n    tag_127:\n        /* \"#utility.yul\":4288:4400   */\n    tag_126:\n        /* \"#utility.yul\":4409:4463   */\n      tag_128\n        /* \"#utility.yul\":4456:4462   */\n      dup5\n        /* \"#utility.yul\":4451:4454   */\n      dup3\n        /* \"#utility.yul\":4446:4449   */\n      dup6\n        /* \"#utility.yul\":4409:4463   */\n      tag_58\n      jump\t// in\n    tag_128:\n        /* \"#utility.yul\":4128:4469   */\n      pop\n        /* \"#utility.yul\":4044:4469   */\n      swap4\n      swap3\n      pop\n      pop\n      pop\n      jump\t// out\n        /* \"#utility.yul\":4489:4829   */\n    tag_60:\n        /* \"#utility.yul\":4545:4550   */\n      0x00\n        /* \"#utility.yul\":4594:4597   */\n      dup3\n        /* \"#utility.yul\":4587:4591   */\n      0x1f\n        /* \"#utility.yul\":4579:4585   */\n      dup4\n        /* \"#utility.yul\":4575:4592   */\n      add\n        /* \"#utility.yul\":4571:4598   */\n      slt\n        /* \"#utility.yul\":4561:4683   */\n      tag_130\n      jumpi\n        /* \"#utility.yul\":4602:4681   */\n      tag_131\n      tag_52\n      jump\t// in\n    tag_131:\n        /* \"#utility.yul\":4561:4683   */\n    tag_130:\n        /* \"#utility.yul\":4719:4725   */\n      dup2\n        /* \"#utility.yul\":4706:4726   */\n      calldataload\n        /* \"#utility.yul\":4744:4823   */\n      tag_132\n        /* \"#utility.yul\":4819:4822   */\n      dup5\n        /* \"#utility.yul\":4811:4817   */\n      dup3\n        /* \"#utility.yul\":4804:4808   */\n      0x20\n        /* \"#utility.yul\":4796:4802   */\n      dup7\n        /* \"#utility.yul\":4792:4809   */\n      add\n        /* \"#utility.yul\":4744:4823   */\n      tag_59\n      jump\t// in\n    tag_132:\n        /* \"#utility.yul\":4735:4823   */\n      swap2\n      pop\n        /* \"#utility.yul\":4551:4829   */\n      pop\n        /* \"#utility.yul\":4489:4829   */\n      swap3\n      swap2\n      pop\n      pop\n      jump\t// out\n        /* \"#utility.yul\":4835:5344   */\n    tag_19:\n        /* \"#utility.yul\":4904:4910   */\n      0x00\n        /* \"#utility.yul\":4953:4955   */\n      0x20\n        /* \"#utility.yul\":4941:4950   */\n      dup3\n        /* \"#utility.yul\":4932:4939   */\n      dup5\n        /* \"#utility.yul\":4928:4951   */\n      sub\n        /* \"#utility.yul\":4924:4956   */\n      slt\n        /* \"#utility.yul\":4921:5040   */\n      iszero\n      tag_134\n      jumpi\n        /* \"#utility.yul\":4959:5038   */\n      tag_135\n      tag_41\n      jump\t// in\n    tag_135:\n        /* \"#utility.yul\":4921:5040   */\n    tag_134:\n        /* \"#utility.yul\":5107:5108   */\n      0x00\n        /* \"#utility.yul\":5096:5105   */\n      dup3\n        /* \"#utility.yul\":5092:5109   */\n      add\n        /* \"#utility.yul\":5079:5110   */\n      calldataload\n        /* \"#utility.yul\":5137:5155   */\n      0xffffffffffffffff\n        /* \"#utility.yul\":5129:5135   */\n      dup2\n        /* \"#utility.yul\":5126:5156   */\n      gt\n        /* \"#utility.yul\":5123:5240   */\n      iszero\n      tag_136\n      jumpi\n        /* \"#utility.yul\":5159:5238   */\n      tag_137\n      tag_42\n      jump\t// in\n    tag_137:\n        /* \"#utility.yul\":5123:5240   */\n    tag_136:\n        /* \"#utility.yul\":5264:5327   */\n      tag_138\n        /* \"#utility.yul\":5319:5326   */\n      dup5\n        /* \"#utility.yul\":5310:5316   */\n      dup3\n        /* \"#utility.yul\":5299:5308   */\n      dup6\n        /* \"#utility.yul\":5295:5317   */\n      add\n        /* \"#utility.yul\":5264:5327   */\n      tag_60\n      jump\t// in\n    tag_138:\n        /* \"#utility.yul\":5254:5327   */\n      swap2\n      pop\n        /* \"#utility.yul\":5050:5337   */\n      pop\n        /* \"#utility.yul\":4835:5344   */\n      swap3\n      swap2\n      pop\n      pop\n      jump\t// out\n        /* \"#utility.yul\":5350:5530   */\n    tag_61:\n        /* \"#utility.yul\":5398:5475   */\n      0x4e487b7100000000000000000000000000000000000000000000000000000000\n        /* \"#utility.yul\":5395:5396   */\n      0x00\n        /* \"#utility.yul\":5388:5476   */\n      mstore\n        /* \"#utility.yul\":5495:5499   */\n      0x22\n        /* \"#utility.yul\":5492:5493   */\n      0x04\n        /* \"#utility.yul\":5485:5500   */\n      mstore\n        /* \"#utility.yul\":5519:5523   */\n      0x24\n        /* \"#utility.yul\":5516:5517   */\n      0x00\n        /* \"#utility.yul\":5509:5524   */\n      revert\n        /* \"#utility.yul\":5536:5856   */\n    tag_28:\n        /* \"#utility.yul\":5580:5586   */\n      0x00\n        /* \"#utility.yul\":5617:5618   */\n      0x02\n        /* \"#utility.yul\":5611:5615   */\n      dup3\n        /* \"#utility.yul\":5607:5619   */\n      div\n        /* \"#utility.yul\":5597:5619   */\n      swap1\n      pop\n        /* \"#utility.yul\":5664:5665   */\n      0x01\n        /* \"#utility.yul\":5658:5662   */\n      dup3\n        /* \"#utility.yul\":5654:5666   */\n      and\n        /* \"#utility.yul\":5685:5703   */\n      dup1\n        /* \"#utility.yul\":5675:5756   */\n      tag_141\n      jumpi\n        /* \"#utility.yul\":5741:5745   */\n      0x7f\n        /* \"#utility.yul\":5733:5739   */\n      dup3\n        /* \"#utility.yul\":5729:5746   */\n      and\n        /* \"#utility.yul\":5719:5746   */\n      swap2\n      pop\n        /* \"#utility.yul\":5675:5756   */\n    tag_141:\n        /* \"#utility.yul\":5803:5805   */\n      0x20\n        /* \"#utility.yul\":5795:5801   */\n      dup3\n        /* \"#utility.yul\":5792:5806   */\n      lt\n        /* \"#utility.yul\":5772:5790   */\n      dup2\n        /* \"#utility.yul\":5769:5807   */\n      sub\n        /* \"#utility.yul\":5766:5850   */\n      tag_142\n      jumpi\n        /* \"#utility.yul\":5822:5840   */\n      tag_143\n      tag_61\n      jump\t// in\n    tag_143:\n        /* \"#utility.yul\":5766:5850   */\n    tag_142:\n        /* \"#utility.yul\":5587:5856   */\n      pop\n        /* \"#utility.yul\":5536:5856   */\n      swap2\n      swap1\n      pop\n      jump\t// out\n        /* \"#utility.yul\":5862:6003   */\n    tag_62:\n        /* \"#utility.yul\":5911:5915   */\n      0x00\n        /* \"#utility.yul\":5934:5937   */\n      dup2\n        /* \"#utility.yul\":5926:5937   */\n      swap1\n      pop\n        /* \"#utility.yul\":5957:5960   */\n      dup2\n        /* \"#utility.yul\":5954:5955   */\n      0x00\n        /* \"#utility.yul\":5947:5961   */\n      mstore\n        /* \"#utility.yul\":5991:5995   */\n      0x20\n        /* \"#utility.yul\":5988:5989   */\n      0x00\n        /* \"#utility.yul\":5978:5996   */\n      keccak256\n        /* \"#utility.yul\":5970:5996   */\n      swap1\n      pop\n        /* \"#utility.yul\":5862:6003   */\n      swap2\n      swap1\n      pop\n      jump\t// out\n        /* \"#utility.yul\":6009:6102   */\n    tag_63:\n        /* \"#utility.yul\":6046:6052   */\n      0x00\n        /* \"#utility.yul\":6093:6095   */\n      0x20\n        /* \"#utility.yul\":6088:6090   */\n      0x1f\n        /* \"#utility.yul\":6081:6086   */\n      dup4\n        /* \"#utility.yul\":6077:6091   */\n      add\n        /* \"#utility.yul\":6073:6096   */\n      div\n        /* \"#utility.yul\":6063:6096   */\n      swap1\n      pop\n        /* \"#utility.yul\":6009:6102   */\n      swap2\n      swap1\n      pop\n      jump\t// out\n        /* \"#utility.yul\":6108:6215   */\n    tag_64:\n        /* \"#utility.yul\":6152:6160   */\n      0x00\n        /* \"#utility.yul\":6202:6207   */\n      dup3\n        /* \"#utility.yul\":6196:6200   */\n      dup3\n        /* \"#utility.yul\":6192:6208   */\n      shl\n        /* \"#utility.yul\":6171:6208   */\n      swap1\n      pop\n        /* \"#utility.yul\":6108:6215   */\n      swap3\n      swap2\n      pop\n      pop\n      jump\t// out\n        /* \"#utility.yul\":6221:6614   */\n    tag_65:\n        /* \"#utility.yul\":6290:6296   */\n      0x00\n        /* \"#utility.yul\":6340:6341   */\n      0x08\n        /* \"#utility.yul\":6328:6338   */\n      dup4\n        /* \"#utility.yul\":6324:6342   */\n      mul\n        /* \"#utility.yul\":6363:6460   */\n      tag_148\n        /* \"#utility.yul\":6393:6459   */\n      0xffffffffffffffffffffffffffffffffffffffffffffffffffffffffffffffff\n        /* \"#utility.yul\":6382:6391   */\n      dup3\n        /* \"#utility.yul\":6363:6460   */\n      tag_64\n      jump\t// in\n    tag_148:\n        /* \"#utility.yul\":6481:6520   */\n      tag_149\n        /* \"#utility.yul\":6511:6519   */\n      dup7\n        /* \"#utility.yul\":6500:6509   */\n      dup4\n        /* \"#utility.yul\":6481:6520   */\n      tag_64\n      jump\t// in\n    tag_149:\n        /* \"#utility.yul\":6469:6520   */\n      swap6\n      pop\n        /* \"#utility.yul\":6553:6557   */\n      dup1\n        /* \"#utility.yul\":6549:6558   */\n      not\n        /* \"#utility.yul\":6542:6547   */\n      dup5\n        /* \"#utility.yul\":6538:6559   */\n      and\n        /* \"#utility.yul\":6529:6559   */\n      swap4\n      pop\n        /* \"#utility.yul\":6602:6606   */\n      dup1\n        /* \"#utility.yul\":6592:6600   */\n      dup7\n        /* \"#utility.yul\":6588:6607   */\n      and\n        /* \"#utility.yul\":6581:6586   */\n      dup5\n        /* \"#utility.yul\":6578:6608   */\n      or\n        /* \"#utility.yul\":6568:6608   */\n      swap3\n      pop\n        /* \"#utility.yul\":6297:6614   */\n      pop\n      pop\n        /* \"#utility.yul\":6221:6614   */\n      swap4\n      swap3\n      pop\n      pop\n      pop\n      jump\t// out\n        /* \"#utility.yul\":6620:6680   */\n    tag_66:\n        /* \"#utility.yul\":6648:6651   */\n      0x00\n        /* \"#utility.yul\":6669:6674   */\n      dup2\n        /* \"#utility.yul\":6662:6674   */\n      swap1\n      pop\n        /* \"#utility.yul\":6620:6680   */\n      swap2\n      swap1\n      pop\n      jump\t// out\n        /* \"#utility.yul\":6686:6828   */\n    tag_67:\n        /* \"#utility.yul\":6736:6745   */\n      0x00\n        /* \"#utility.yul\":6769:6822   */\n      tag_152\n        /* \"#utility.yul\":6787:6821   */\n      tag_153\n        /* \"#utility.yul\":6796:6820   */\n      tag_154\n        /* \"#utility.yul\":6814:6819   */\n      dup5\n        /* \"#utility.yul\":6796:6820   */\n      tag_43\n      jump\t// in\n    tag_154:\n        /* \"#utility.yul\":6787:6821   */\n      tag_66\n      jump\t// in\n    tag_153:\n        /* \"#utility.yul\":6769:6822   */\n      tag_43\n      jump\t// in\n    tag_152:\n        /* \"#utility.yul\":6756:6822   */\n      swap1\n      pop\n        /* \"#utility.yul\":6686:6828   */\n      swap2\n      swap1\n      pop\n      jump\t// out\n        /* \"#utility.yul\":6834:6909   */\n    tag_68:\n        /* \"#utility.yul\":6877:6880   */\n      0x00\n        /* \"#utility.yul\":6898:6903   */\n      dup2\n        /* \"#utility.yul\":6891:6903   */\n      swap1\n      pop\n        /* \"#utility.yul\":6834:6909   */\n      swap2\n      swap1\n      pop\n      jump\t// out\n        /* \"#utility.yul\":6915:7184   */\n    tag_69:\n        /* \"#utility.yul\":7025:7064   */\n      tag_157\n        /* \"#utility.yul\":7056:7063   */\n      dup4\n        /* \"#utility.yul\":7025:7064   */\n      tag_67\n      jump\t// in\n    tag_157:\n        /* \"#utility.yul\":7086:7177   */\n      tag_158\n        /* \"#utility.yul\":7135:7176   */\n      tag_159\n        /* \"#utility.yul\":7159:7175   */\n      dup3\n        /* \"#utility.yul\":7135:7176   */\n      tag_68\n      jump\t// in\n    tag_159:\n        /* \"#utility.yul\":7127:7133   */\n      dup5\n        /* \"#utility.yul\":7120:7124   */\n      dup5\n        /* \"#utility.yul\":7114:7125   */\n      sload\n        /* \"#utility.yul\":7086:7177   */\n      tag_65\n      jump\t// in\n    tag_158:\n        /* \"#utility.yul\":7080:7084   */\n      dup3\n        /* \"#utility.yul\":7073:7178   */\n      sstore\n        /* \"#utility.yul\":6991:7184   */\n      pop\n        /* \"#utility.yul\":6915:7184   */\n      pop\n      pop\n      pop\n      jump\t// out\n        /* \"#utility.yul\":7190:7263   */\n    tag_70:\n        /* \"#utility.yul\":7235:7238   */\n      0x00\n        /* \"#utility.yul\":7190:7263   */\n      swap1\n      jump\t// out\n        /* \"#utility.yul\":7269:7458   */\n    tag_71:\n        /* \"#utility.yul\":7346:7378   */\n      tag_162\n      tag_70\n      jump\t// in\n    tag_162:\n        /* \"#utility.yul\":7387:7452   */\n      tag_163\n        /* \"#utility.yul\":7445:7451   */\n      dup2\n        /* \"#utility.yul\":7437:7443   */\n      dup5\n        /* \"#utility.yul\":7431:7435   */\n      dup5\n        /* \"#utility.yul\":7387:7452   */\n      tag_69\n      jump\t// in\n    tag_163:\n        /* \"#utility.yul\":7322:7458   */\n      pop\n        /* \"#utility.yul\":7269:7458   */\n      pop\n      pop\n      jump\t// out\n        /* \"#utility.yul\":7464:7650   */\n    tag_72:\n        /* \"#utility.yul\":7524:7644   */\n    tag_165:\n        /* \"#utility.yul\":7541:7544   */\n      dup2\n        /* \"#utility.yul\":7534:7539   */\n      dup2\n        /* \"#utility.yul\":7531:7545   */\n      lt\n        /* \"#utility.yul\":7524:7644   */\n      iszero\n      tag_167\n      jumpi\n        /* \"#utility.yul\":7595:7634   */\n      tag_168\n        /* \"#utility.yul\":7632:7633   */\n      0x00\n        /* \"#utility.yul\":7625:7630   */\n      dup3\n        /* \"#utility.yul\":7595:7634   */\n      tag_71\n      jump\t// in\n    tag_168:\n        /* \"#utility.yul\":7568:7569   */\n      0x01\n        /* \"#utility.yul\":7561:7566   */\n      dup2\n        /* \"#utility.yul\":7557:7570   */\n      add\n        /* \"#utility.yul\":7548:7570   */\n      swap1\n      pop\n        /* \"#utility.yul\":7524:7644   */\n      jump(tag_165)\n    tag_167:\n        /* \"#utility.yul\":7464:7650   */\n      pop\n      pop\n      jump\t// out\n        /* \"#utility.yul\":7656:8199   */\n    tag_73:\n        /* \"#utility.yul\":7757:7759   */\n      0x1f\n        /* \"#utility.yul\":7752:7755   */\n      dup3\n        /* \"#utility.yul\":7749:7760   */\n      gt\n        /* \"#utility.yul\":7746:8192   */\n      iszero\n      tag_170\n      jumpi\n        /* \"#utility.yul\":7791:7829   */\n      tag_171\n        /* \"#utility.yul\":7823:7828   */\n      dup2\n        /* \"#utility.yul\":7791:7829   */\n      tag_62\n      jump\t// in\n    tag_171:\n        /* \"#utility.yul\":7875:7904   */\n      tag_172\n        /* \"#utility.yul\":7893:7903   */\n      dup5\n        /* \"#utility.yul\":7875:7904   */\n      tag_63\n      jump\t// in\n    tag_172:\n        /* \"#utility.yul\":7865:7873   */\n      dup2\n        /* \"#utility.yul\":7861:7905   */\n      add\n        /* \"#utility.yul\":8058:8060   */\n      0x20\n        /* \"#utility.yul\":8046:8056   */\n      dup6\n        /* \"#utility.yul\":8043:8061   */\n      lt\n        /* \"#utility.yul\":8040:8089   */\n      iszero\n      tag_173\n      jumpi\n        /* \"#utility.yul\":8079:8087   */\n      dup2\n        /* \"#utility.yul\":8064:8087   */\n      swap1\n      pop\n        /* \"#utility.yul\":8040:8089   */\n    tag_173:\n        /* \"#utility.yul\":8102:8182   */\n      tag_174\n        /* \"#utility.yul\":8158:8180   */\n      tag_175\n        /* \"#utility.yul\":8176:8179   */\n      dup6\n        /* \"#utility.yul\":8158:8180   */\n      tag_63\n      jump\t// in\n    tag_175:\n        /* \"#utility.yul\":8148:8156   */\n      dup4\n        /* \"#utility.yul\":8144:8181   */\n      add\n        /* \"#utility.yul\":8131:8142   */\n      dup3\n        /* \"#utility.yul\":8102:8182   */\n      tag_72\n      jump\t// in\n    tag_174:\n        /* \"#utility.yul\":7761:8192   */\n      pop\n      pop\n        /* \"#utility.yul\":7746:8192   */\n    tag_170:\n        /* \"#utility.yul\":7656:8199   */\n      pop\n      pop\n      pop\n      jump\t// out\n        /* \"#utility.yul\":8205:8322   */\n    tag_74:\n        /* \"#utility.yul\":8259:8267   */\n      0x00\n        /* \"#utility.yul\":8309:8314   */\n      dup3\n        /* \"#utility.yul\":8303:8307   */\n      dup3\n        /* \"#utility.yul\":8299:8315   */\n      shr\n        /* \"#utility.yul\":8278:8315   */\n      swap1\n      pop\n        /* \"#utility.yul\":8205:8322   */\n      swap3\n      swap2\n      pop\n      pop\n      jump\t// out\n        /* \"#utility.yul\":8328:8497   */\n    tag_75:\n        /* \"#utility.yul\":8372:8378   */\n      0x00\n        /* \"#utility.yul\":8405:8456   */\n      tag_178\n        /* \"#utility.yul\":8453:8454   */\n      0x00\n        /* \"#utility.yul\":8449:8455   */\n      not\n        /* \"#utility.yul\":8441:8446   */\n      dup5\n        /* \"#utility.yul\":8438:8439   */\n      0x08\n        /* \"#utility.yul\":8434:8447   */\n      mul\n        /* \"#utility.yul\":8405:8456   */\n      tag_74\n      jump\t// in\n    tag_178:\n        /* \"#utility.yul\":8401:8457   */\n      not\n        /* \"#utility.yul\":8486:8490   */\n      dup1\n        /* \"#utility.yul\":8480:8484   */\n      dup4\n        /* \"#utility.yul\":8476:8491   */\n      and\n        /* \"#utility.yul\":8466:8491   */\n      swap2\n      pop\n        /* \"#utility.yul\":8379:8497   */\n      pop\n        /* \"#utility.yul\":8328:8497   */\n      swap3\n      swap2\n      pop\n      pop\n      jump\t// out\n        /* \"#utility.yul\":8502:8797   */\n    tag_76:\n        /* \"#utility.yul\":8578:8582   */\n      0x00\n        /* \"#utility.yul\":8724:8753   */\n      tag_180\n        /* \"#utility.yul\":8749:8752   */\n      dup4\n        /* \"#utility.yul\":8743:8747   */\n      dup4\n        /* \"#utility.yul\":8724:8753   */\n      tag_75\n      jump\t// in\n    tag_180:\n        /* \"#utility.yul\":8716:8753   */\n      swap2\n      pop\n        /* \"#utility.yul\":8786:8789   */\n      dup3\n        /* \"#utility.yul\":8783:8784   */\n      0x02\n        /* \"#utility.yul\":8779:8790   */\n      mul\n        /* \"#utility.yul\":8773:8777   */\n      dup3\n        /* \"#utility.yul\":8770:8791   */\n      or\n        /* \"#utility.yul\":8762:8791   */\n      swap1\n      pop\n        /* \"#utility.yul\":8502:8797   */\n      swap3\n      swap2\n      pop\n      pop\n      jump\t// out\n        /* \"#utility.yul\":8802:10197   */\n    tag_36:\n        /* \"#utility.yul\":8919:8956   */\n      tag_182\n        /* \"#utility.yul\":8952:8955   */\n      dup3\n        /* \"#utility.yul\":8919:8956   */\n      tag_47\n      jump\t// in\n    tag_182:\n        /* \"#utility.yul\":9021:9039   */\n      0xffffffffffffffff\n        /* \"#utility.yul\":9013:9019   */\n      dup2\n        /* \"#utility.yul\":9010:9040   */\n      gt\n        /* \"#utility.yul\":9007:9063   */\n      iszero\n      tag_183\n      jumpi\n        /* \"#utility.yul\":9043:9061   */\n      tag_184\n      tag_54\n      jump\t// in\n    tag_184:\n        /* \"#utility.yul\":9007:9063   */\n    tag_183:\n        /* \"#utility.yul\":9087:9125   */\n      tag_185\n        /* \"#utility.yul\":9119:9123   */\n      dup3\n        /* \"#utility.yul\":9113:9124   */\n      sload\n        /* \"#utility.yul\":9087:9125   */\n      tag_28\n      jump\t// in\n    tag_185:\n        /* \"#utility.yul\":9172:9239   */\n      tag_186\n        /* \"#utility.yul\":9232:9238   */\n      dup3\n        /* \"#utility.yul\":9224:9230   */\n      dup3\n        /* \"#utility.yul\":9218:9222   */\n      dup6\n        /* \"#utility.yul\":9172:9239   */\n      tag_73\n      jump\t// in\n    tag_186:\n        /* \"#utility.yul\":9266:9267   */\n      0x00\n        /* \"#utility.yul\":9290:9294   */\n      0x20\n        /* \"#utility.yul\":9277:9294   */\n      swap1\n      pop\n        /* \"#utility.yul\":9322:9324   */\n      0x1f\n        /* \"#utility.yul\":9314:9320   */\n      dup4\n        /* \"#utility.yul\":9311:9325   */\n      gt\n        /* \"#utility.yul\":9339:9340   */\n      0x01\n        /* \"#utility.yul\":9334:9952   */\n      dup2\n      eq\n      tag_188\n      jumpi\n        /* \"#utility.yul\":9996:9997   */\n      0x00\n        /* \"#utility.yul\":10013:10019   */\n      dup5\n        /* \"#utility.yul\":10010:10087   */\n      iszero\n      tag_189\n      jumpi\n        /* \"#utility.yul\":10062:10071   */\n      dup3\n        /* \"#utility.yul\":10057:10060   */\n      dup8\n        /* \"#utility.yul\":10053:10072   */\n      add\n        /* \"#utility.yul\":10047:10073   */\n      mload\n        /* \"#utility.yul\":10038:10073   */\n      swap1\n      pop\n        /* \"#utility.yul\":10010:10087   */\n    tag_189:\n        /* \"#utility.yul\":10113:10180   */\n      tag_190\n        /* \"#utility.yul\":10173:10179   */\n      dup6\n        /* \"#utility.yul\":10166:10171   */\n      dup3\n        /* \"#utility.yul\":10113:10180   */\n      tag_76\n      jump\t// in\n    tag_190:\n        /* \"#utility.yul\":10107:10111   */\n      dup7\n        /* \"#utility.yul\":10100:10181   */\n      sstore\n        /* \"#utility.yul\":9969:10191   */\n      pop\n        /* \"#utility.yul\":9304:10191   */\n      jump(tag_187)\n        /* \"#utility.yul\":9334:9952   */\n    tag_188:\n        /* \"#utility.yul\":9386:9390   */\n      0x1f\n        /* \"#utility.yul\":9382:9391   */\n      not\n        /* \"#utility.yul\":9374:9380   */\n      dup5\n        /* \"#utility.yul\":9370:9392   */\n      and\n        /* \"#utility.yul\":9420:9457   */\n      tag_191\n        /* \"#utility.yul\":9452:9456   */\n      dup7\n        /* \"#utility.yul\":9420:9457   */\n      tag_62\n      jump\t// in\n    tag_191:\n        /* \"#utility.yul\":9479:9480   */\n      0x00\n        /* \"#utility.yul\":9493:9701   */\n    tag_192:\n        /* \"#utility.yul\":9507:9514   */\n      dup3\n        /* \"#utility.yul\":9504:9505   */\n      dup2\n        /* \"#utility.yul\":9501:9515   */\n      lt\n        /* \"#utility.yul\":9493:9701   */\n      iszero\n      tag_194\n      jumpi\n        /* \"#utility.yul\":9586:9595   */\n      dup5\n        /* \"#utility.yul\":9581:9584   */\n      dup10\n        /* \"#utility.yul\":9577:9596   */\n      add\n        /* \"#utility.yul\":9571:9597   */\n      mload\n        /* \"#utility.yul\":9563:9569   */\n      dup3\n        /* \"#utility.yul\":9556:9598   */\n      sstore\n        /* \"#utility.yul\":9637:9638   */\n      0x01\n        /* \"#utility.yul\":9629:9635   */\n      dup3\n        /* \"#utility.yul\":9625:9639   */\n      add\n        /* \"#utility.yul\":9615:9639   */\n      swap2\n      pop\n        /* \"#utility.yul\":9684:9686   */\n      0x20\n        /* \"#utility.yul\":9673:9682   */\n      dup6\n        /* \"#utility.yul\":9669:9687   */\n      add\n        /* \"#utility.yul\":9656:9687   */\n      swap5\n      pop\n        /* \"#utility.yul\":9530:9534   */\n      0x20\n        /* \"#utility.yul\":9527:9528   */\n      dup2\n        /* \"#utility.yul\":9523:9535   */\n      add\n        /* \"#utility.yul\":9518:9535   */\n      swap1\n      pop\n        /* \"#utility.yul\":9493:9701   */\n      jump(tag_192)\n    tag_194:\n        /* \"#utility.yul\":9729:9735   */\n      dup7\n        /* \"#utility.yul\":9720:9727   */\n      dup4\n        /* \"#utility.yul\":9717:9736   */\n      lt\n        /* \"#utility.yul\":9714:9893   */\n      iszero\n      tag_195\n      jumpi\n        /* \"#utility.yul\":9787:9796   */\n      dup5\n        /* \"#utility.yul\":9782:9785   */\n      dup10\n        /* \"#utility.yul\":9778:9797   */\n      add\n        /* \"#utility.yul\":9772:9798   */\n      mload\n        /* \"#utility.yul\":9830:9878   */\n      tag_196\n        /* \"#utility.yul\":9872:9876   */\n      0x1f\n        /* \"#utility.yul\":9864:9870   */\n      dup10\n        /* \"#utility.yul\":9860:9877   */\n      and\n        /* \"#utility.yul\":9849:9858   */\n      dup3\n        /* \"#utility.yul\":9830:9878   */\n      tag_75\n      jump\t// in\n    tag_196:\n        /* \"#utility.yul\":9822:9828   */\n      dup4\n        /* \"#utility.yul\":9815:9879   */\n      sstore\n        /* \"#utility.yul\":9737:9893   */\n      pop\n        /* \"#utility.yul\":9714:9893   */\n    tag_195:\n        /* \"#utility.yul\":9939:9940   */\n      0x01\n        /* \"#utility.yul\":9935:9936   */\n      0x02\n        /* \"#utility.yul\":9927:9933   */\n      dup9\n        /* \"#utility.yul\":9923:9937   */\n      mul\n        /* \"#utility.yul\":9919:9941   */\n      add\n        /* \"#utility.yul\":9913:9917   */\n      dup9\n        /* \"#utility.yul\":9906:9942   */\n      sstore\n        /* \"#utility.yul\":9341:9952   */\n      pop\n      pop\n      pop\n        /* \"#utility.yul\":9304:10191   */\n    tag_187:\n      pop\n        /* \"#utility.yul\":8894:10197   */\n      pop\n      pop\n      pop\n        /* \"#utility.yul\":8802:10197   */\n      pop\n      pop\n      jump\t// out\n        /* \"#utility.yul\":10203:10383   */\n    tag_77:\n        /* \"#utility.yul\":10251:10328   */\n      0x4e487b7100000000000000000000000000000000000000000000000000000000\n        /* \"#utility.yul\":10248:10249   */\n      0x00\n        /* \"#utility.yul\":10241:10329   */\n      mstore\n        /* \"#utility.yul\":10348:10352   */\n      0x11\n        /* \"#utility.yul\":10345:10346   */\n      0x04\n        /* \"#utility.yul\":10338:10353   */\n      mstore\n        /* \"#utility.yul\":10372:10376   */\n      0x24\n        /* \"#utility.yul\":10369:10370   */\n      0x00\n        /* \"#utility.yul\":10362:10377   */\n      revert\n        /* \"#utility.yul\":10389:10622   */\n    tag_38:\n        /* \"#utility.yul\":10428:10431   */\n      0x00\n        /* \"#utility.yul\":10451:10475   */\n      tag_199\n        /* \"#utility.yul\":10469:10474   */\n      dup3\n        /* \"#utility.yul\":10451:10475   */\n      tag_43\n      jump\t// in\n    tag_199:\n        /* \"#utility.yul\":10442:10475   */\n      swap2\n      pop\n        /* \"#utility.yul\":10497:10563   */\n      0xffffffffffffffffffffffffffffffffffffffffffffffffffffffffffffffff\n        /* \"#utility.yul\":10490:10495   */\n      dup3\n        /* \"#utility.yul\":10487:10564   */\n      sub\n        /* \"#utility.yul\":10484:10587   */\n      tag_200\n      jumpi\n        /* \"#utility.yul\":10567:10585   */\n      tag_201\n      tag_77\n      jump\t// in\n    tag_201:\n        /* \"#utility.yul\":10484:10587   */\n    tag_200:\n        /* \"#utility.yul\":10614:10615   */\n      0x01\n        /* \"#utility.yul\":10607:10612   */\n      dup3\n        /* \"#utility.yul\":10603:10616   */\n      add\n        /* \"#utility.yul\":10596:10616   */\n      swap1\n      pop\n        /* \"#utility.yul\":10389:10622   */\n      swap2\n      swap1\n      pop\n      jump\t// out\n\n    auxdata: 0xa2646970667358221220211e4dacbed0a3e6e9babb304d68e900760f62b29fd4255bf6e5590450e9c6c564736f6c634300081a0033\n}\n",
				"bytecode": {
					"linkReferences": {},
					"object": "60806040525f6001553480156012575f80fd5b5061083f806100205f395ff3fe608060405234801561000f575f80fd5b506004361061004a575f3560e01c8063365b98b21461004e57806361bc221a1461007f578063b1498e291461009d578063ed2e5a97146100b9575b5f80fd5b61006860048036038101906100639190610268565b6100ea565b604051610076929190610312565b60405180910390f35b61008761019e565b6040516100949190610340565b60405180910390f35b6100b760048036038101906100b29190610485565b6101a4565b005b6100d360048036038101906100ce9190610268565b61021c565b6040516100e1929190610312565b60405180910390f35b5f81815481106100f8575f80fd5b905f5260205f2090600202015f91509050805f01549080600101805461011d906104f9565b80601f0160208091040260200160405190810160405280929190818152602001828054610149906104f9565b80156101945780601f1061016b57610100808354040283529160200191610194565b820191905f5260205f20905b81548152906001019060200180831161017757829003601f168201915b5050505050905082565b60015481565b5f6040518060400160405280600154815260200183815250908060018154018082558091505060019003905f5260205f2090600202015f909190919091505f820151815f015560208201518160010190816101ff91906106c6565b50505060015f815480929190610214906107c2565b919050555050565b5f6060915091565b5f604051905090565b5f80fd5b5f80fd5b5f819050919050565b61024781610235565b8114610251575f80fd5b50565b5f813590506102628161023e565b92915050565b5f6020828403121561027d5761027c61022d565b5b5f61028a84828501610254565b91505092915050565b61029c81610235565b82525050565b5f81519050919050565b5f82825260208201905092915050565b8281835e5f83830152505050565b5f601f19601f8301169050919050565b5f6102e4826102a2565b6102ee81856102ac565b93506102fe8185602086016102bc565b610307816102ca565b840191505092915050565b5f6040820190506103255f830185610293565b818103602083015261033781846102da565b90509392505050565b5f6020820190506103535f830184610293565b92915050565b5f80fd5b5f80fd5b7f4e487b71000000000000000000000000000000000000000000000000000000005f52604160045260245ffd5b610397826102ca565b810181811067ffffffffffffffff821117156103b6576103b5610361565b5b80604052505050565b5f6103c8610224565b90506103d4828261038e565b919050565b5f67ffffffffffffffff8211156103f3576103f2610361565b5b6103fc826102ca565b9050602081019050919050565b828183375f83830152505050565b5f610429610424846103d9565b6103bf565b9050828152602081018484840111156104455761044461035d565b5b610450848285610409565b509392505050565b5f82601f83011261046c5761046b610359565b5b813561047c848260208601610417565b91505092915050565b5f6020828403121561049a5761049961022d565b5b5f82013567ffffffffffffffff8111156104b7576104b6610231565b5b6104c384828501610458565b91505092915050565b7f4e487b71000000000000000000000000000000000000000000000000000000005f52602260045260245ffd5b5f600282049050600182168061051057607f821691505b602082108103610523576105226104cc565b5b50919050565b5f819050815f5260205f209050919050565b5f6020601f8301049050919050565b5f82821b905092915050565b5f600883026105857fffffffffffffffffffffffffffffffffffffffffffffffffffffffffffffffff8261054a565b61058f868361054a565b95508019841693508086168417925050509392505050565b5f819050919050565b5f6105ca6105c56105c084610235565b6105a7565b610235565b9050919050565b5f819050919050565b6105e3836105b0565b6105f76105ef826105d1565b848454610556565b825550505050565b5f90565b61060b6105ff565b6106168184846105da565b505050565b5b818110156106395761062e5f82610603565b60018101905061061c565b5050565b601f82111561067e5761064f81610529565b6106588461053b565b81016020851015610667578190505b61067b6106738561053b565b83018261061b565b50505b505050565b5f82821c905092915050565b5f61069e5f1984600802610683565b1980831691505092915050565b5f6106b6838361068f565b9150826002028217905092915050565b6106cf826102a2565b67ffffffffffffffff8111156106e8576106e7610361565b5b6106f282546104f9565b6106fd82828561063d565b5f60209050601f83116001811461072e575f841561071c578287015190505b61072685826106ab565b86555061078d565b601f19841661073c86610529565b5f5b828110156107635784890151825560018201915060208501945060208101905061073e565b86831015610780578489015161077c601f89168261068f565b8355505b6001600288020188555050505b505050505050565b7f4e487b71000000000000000000000000000000000000000000000000000000005f52601160045260245ffd5b5f6107cc82610235565b91507fffffffffffffffffffffffffffffffffffffffffffffffffffffffffffffffff82036107fe576107fd610795565b5b60018201905091905056fea2646970667358221220211e4dacbed0a3e6e9babb304d68e900760f62b29fd4255bf6e5590450e9c6c564736f6c634300081a0033",
					"opcodes": "PUSH1 0x80 PUSH1 0x40 MSTORE PUSH0 PUSH1 0x1 SSTORE CALLVALUE DUP1 ISZERO PUSH1 0x12 JUMPI PUSH0 DUP1 REVERT JUMPDEST POP PUSH2 0x83F DUP1 PUSH2 0x20 PUSH0 CODECOPY PUSH0 RETURN INVALID PUSH1 0x80 PUSH1 0x40 MSTORE CALLVALUE DUP1 ISZERO PUSH2 0xF JUMPI PUSH0 DUP1 REVERT JUMPDEST POP PUSH1 0x4 CALLDATASIZE LT PUSH2 0x4A JUMPI PUSH0 CALLDATALOAD PUSH1 0xE0 SHR DUP1 PUSH4 0x365B98B2 EQ PUSH2 0x4E JUMPI DUP1 PUSH4 0x61BC221A EQ PUSH2 0x7F JUMPI DUP1 PUSH4 0xB1498E29 EQ PUSH2 0x9D JUMPI DUP1 PUSH4 0xED2E5A97 EQ PUSH2 0xB9 JUMPI JUMPDEST PUSH0 DUP1 REVERT JUMPDEST PUSH2 0x68 PUSH1 0x4 DUP1 CALLDATASIZE SUB DUP2 ADD SWAP1 PUSH2 0x63 SWAP2 SWAP1 PUSH2 0x268 JUMP JUMPDEST PUSH2 0xEA JUMP JUMPDEST PUSH1 0x40 MLOAD PUSH2 0x76 SWAP3 SWAP2 SWAP1 PUSH2 0x312 JUMP JUMPDEST PUSH1 0x40 MLOAD DUP1 SWAP2 SUB SWAP1 RETURN JUMPDEST PUSH2 0x87 PUSH2 0x19E JUMP JUMPDEST PUSH1 0x40 MLOAD PUSH2 0x94 SWAP2 SWAP1 PUSH2 0x340 JUMP JUMPDEST PUSH1 0x40 MLOAD DUP1 SWAP2 SUB SWAP1 RETURN JUMPDEST PUSH2 0xB7 PUSH1 0x4 DUP1 CALLDATASIZE SUB DUP2 ADD SWAP1 PUSH2 0xB2 SWAP2 SWAP1 PUSH2 0x485 JUMP JUMPDEST PUSH2 0x1A4 JUMP JUMPDEST STOP JUMPDEST PUSH2 0xD3 PUSH1 0x4 DUP1 CALLDATASIZE SUB DUP2 ADD SWAP1 PUSH2 0xCE SWAP2 SWAP1 PUSH2 0x268 JUMP JUMPDEST PUSH2 0x21C JUMP JUMPDEST PUSH1 0x40 MLOAD PUSH2 0xE1 SWAP3 SWAP2 SWAP1 PUSH2 0x312 JUMP JUMPDEST PUSH1 0x40 MLOAD DUP1 SWAP2 SUB SWAP1 RETURN JUMPDEST PUSH0 DUP2 DUP2 SLOAD DUP2 LT PUSH2 0xF8 JUMPI PUSH0 DUP1 REVERT JUMPDEST SWAP1 PUSH0 MSTORE PUSH1 0x20 PUSH0 KECCAK256 SWAP1 PUSH1 0x2 MUL ADD PUSH0 SWAP2 POP SWAP1 POP DUP1 PUSH0 ADD SLOAD SWAP1 DUP1 PUSH1 0x1 ADD DUP1 SLOAD PUSH2 0x11D SWAP1 PUSH2 0x4F9 JUMP JUMPDEST DUP1 PUSH1 0x1F ADD PUSH1 0x20 DUP1 SWAP2 DIV MUL PUSH1 0x20 ADD PUSH1 0x40 MLOAD SWAP1 DUP2 ADD PUSH1 0x40 MSTORE DUP1 SWAP3 SWAP2 SWAP1 DUP2 DUP2 MSTORE PUSH1 0x20 ADD DUP3 DUP1 SLOAD PUSH2 0x149 SWAP1 PUSH2 0x4F9 JUMP JUMPDEST DUP1 ISZERO PUSH2 0x194 JUMPI DUP1 PUSH1 0x1F LT PUSH2 0x16B JUMPI PUSH2 0x100 DUP1 DUP4 SLOAD DIV MUL DUP4 MSTORE SWAP2 PUSH1 0x20 ADD SWAP2 PUSH2 0x194 JUMP JUMPDEST DUP3 ADD SWAP2 SWAP1 PUSH0 MSTORE PUSH1 0x20 PUSH0 KECCAK256 SWAP1 JUMPDEST DUP2 SLOAD DUP2 MSTORE SWAP1 PUSH1 0x1 ADD SWAP1 PUSH1 0x20 ADD DUP1 DUP4 GT PUSH2 0x177 JUMPI DUP3 SWAP1 SUB PUSH1 0x1F AND DUP3 ADD SWAP2 JUMPDEST POP POP POP POP POP SWAP1 POP DUP3 JUMP JUMPDEST PUSH1 0x1 SLOAD DUP2 JUMP JUMPDEST PUSH0 PUSH1 0x40 MLOAD DUP1 PUSH1 0x40 ADD PUSH1 0x40 MSTORE DUP1 PUSH1 0x1 SLOAD DUP2 MSTORE PUSH1 0x20 ADD DUP4 DUP2 MSTORE POP SWAP1 DUP1 PUSH1 0x1 DUP2 SLOAD ADD DUP1 DUP3 SSTORE DUP1 SWAP2 POP POP PUSH1 0x1 SWAP1 SUB SWAP1 PUSH0 MSTORE PUSH1 0x20 PUSH0 KECCAK256 SWAP1 PUSH1 0x2 MUL ADD PUSH0 SWAP1 SWAP2 SWAP1 SWAP2 SWAP1 SWAP2 POP PUSH0 DUP3 ADD MLOAD DUP2 PUSH0 ADD SSTORE PUSH1 0x20 DUP3 ADD MLOAD DUP2 PUSH1 0x1 ADD SWAP1 DUP2 PUSH2 0x1FF SWAP2 SWAP1 PUSH2 0x6C6 JUMP JUMPDEST POP POP POP PUSH1 0x1 PUSH0 DUP2 SLOAD DUP1 SWAP3 SWAP2 SWAP1 PUSH2 0x214 SWAP1 PUSH2 0x7C2 JUMP JUMPDEST SWAP2 SWAP1 POP SSTORE POP POP JUMP JUMPDEST PUSH0 PUSH1 0x60 SWAP2 POP SWAP2 JUMP JUMPDEST PUSH0 PUSH1 0x40 MLOAD SWAP1 POP SWAP1 JUMP JUMPDEST PUSH0 DUP1 REVERT JUMPDEST PUSH0 DUP1 REVERT JUMPDEST PUSH0 DUP2 SWAP1 POP SWAP2 SWAP1 POP JUMP JUMPDEST PUSH2 0x247 DUP2 PUSH2 0x235 JUMP JUMPDEST DUP2 EQ PUSH2 0x251 JUMPI PUSH0 DUP1 REVERT JUMPDEST POP JUMP JUMPDEST PUSH0 DUP2 CALLDATALOAD SWAP1 POP PUSH2 0x262 DUP2 PUSH2 0x23E JUMP JUMPDEST SWAP3 SWAP2 POP POP JUMP JUMPDEST PUSH0 PUSH1 0x20 DUP3 DUP5 SUB SLT ISZERO PUSH2 0x27D JUMPI PUSH2 0x27C PUSH2 0x22D JUMP JUMPDEST JUMPDEST PUSH0 PUSH2 0x28A DUP5 DUP3 DUP6 ADD PUSH2 0x254 JUMP JUMPDEST SWAP2 POP POP SWAP3 SWAP2 POP POP JUMP JUMPDEST PUSH2 0x29C DUP2 PUSH2 0x235 JUMP JUMPDEST DUP3 MSTORE POP POP JUMP JUMPDEST PUSH0 DUP2 MLOAD SWAP1 POP SWAP2 SWAP1 POP JUMP JUMPDEST PUSH0 DUP3 DUP3 MSTORE PUSH1 0x20 DUP3 ADD SWAP1 POP SWAP3 SWAP2 POP POP JUMP JUMPDEST DUP3 DUP2 DUP4 MCOPY PUSH0 DUP4 DUP4 ADD MSTORE POP POP POP JUMP JUMPDEST PUSH0 PUSH1 0x1F NOT PUSH1 0x1F DUP4 ADD AND SWAP1 POP SWAP2 SWAP1 POP JUMP JUMPDEST PUSH0 PUSH2 0x2E4 DUP3 PUSH2 0x2A2 JUMP JUMPDEST PUSH2 0x2EE DUP2 DUP6 PUSH2 0x2AC JUMP JUMPDEST SWAP4 POP PUSH2 0x2FE DUP2 DUP6 PUSH1 0x20 DUP7 ADD PUSH2 0x2BC JUMP JUMPDEST PUSH2 0x307 DUP2 PUSH2 0x2CA JUMP JUMPDEST DUP5 ADD SWAP2 POP POP SWAP3 SWAP2 POP POP JUMP JUMPDEST PUSH0 PUSH1 0x40 DUP3 ADD SWAP1 POP PUSH2 0x325 PUSH0 DUP4 ADD DUP6 PUSH2 0x293 JUMP JUMPDEST DUP2 DUP2 SUB PUSH1 0x20 DUP4 ADD MSTORE PUSH2 0x337 DUP2 DUP5 PUSH2 0x2DA JUMP JUMPDEST SWAP1 POP SWAP4 SWAP3 POP POP POP JUMP JUMPDEST PUSH0 PUSH1 0x20 DUP3 ADD SWAP1 POP PUSH2 0x353 PUSH0 DUP4 ADD DUP5 PUSH2 0x293 JUMP JUMPDEST SWAP3 SWAP2 POP POP JUMP JUMPDEST PUSH0 DUP1 REVERT JUMPDEST PUSH0 DUP1 REVERT JUMPDEST PUSH32 0x4E487B7100000000000000000000000000000000000000000000000000000000 PUSH0 MSTORE PUSH1 0x41 PUSH1 0x4 MSTORE PUSH1 0x24 PUSH0 REVERT JUMPDEST PUSH2 0x397 DUP3 PUSH2 0x2CA JUMP JUMPDEST DUP2 ADD DUP2 DUP2 LT PUSH8 0xFFFFFFFFFFFFFFFF DUP3 GT OR ISZERO PUSH2 0x3B6 JUMPI PUSH2 0x3B5 PUSH2 0x361 JUMP JUMPDEST JUMPDEST DUP1 PUSH1 0x40 MSTORE POP POP POP JUMP JUMPDEST PUSH0 PUSH2 0x3C8 PUSH2 0x224 JUMP JUMPDEST SWAP1 POP PUSH2 0x3D4 DUP3 DUP3 PUSH2 0x38E JUMP JUMPDEST SWAP2 SWAP1 POP JUMP JUMPDEST PUSH0 PUSH8 0xFFFFFFFFFFFFFFFF DUP3 GT ISZERO PUSH2 0x3F3 JUMPI PUSH2 0x3F2 PUSH2 0x361 JUMP JUMPDEST JUMPDEST PUSH2 0x3FC DUP3 PUSH2 0x2CA JUMP JUMPDEST SWAP1 POP PUSH1 0x20 DUP2 ADD SWAP1 POP SWAP2 SWAP1 POP JUMP JUMPDEST DUP3 DUP2 DUP4 CALLDATACOPY PUSH0 DUP4 DUP4 ADD MSTORE POP POP POP JUMP JUMPDEST PUSH0 PUSH2 0x429 PUSH2 0x424 DUP5 PUSH2 0x3D9 JUMP JUMPDEST PUSH2 0x3BF JUMP JUMPDEST SWAP1 POP DUP3 DUP2 MSTORE PUSH1 0x20 DUP2 ADD DUP5 DUP5 DUP5 ADD GT ISZERO PUSH2 0x445 JUMPI PUSH2 0x444 PUSH2 0x35D JUMP JUMPDEST JUMPDEST PUSH2 0x450 DUP5 DUP3 DUP6 PUSH2 0x409 JUMP JUMPDEST POP SWAP4 SWAP3 POP POP POP JUMP JUMPDEST PUSH0 DUP3 PUSH1 0x1F DUP4 ADD SLT PUSH2 0x46C JUMPI PUSH2 0x46B PUSH2 0x359 JUMP JUMPDEST JUMPDEST DUP2 CALLDATALOAD PUSH2 0x47C DUP5 DUP3 PUSH1 0x20 DUP7 ADD PUSH2 0x417 JUMP JUMPDEST SWAP2 POP POP SWAP3 SWAP2 POP POP JUMP JUMPDEST PUSH0 PUSH1 0x20 DUP3 DUP5 SUB SLT ISZERO PUSH2 0x49A JUMPI PUSH2 0x499 PUSH2 0x22D JUMP JUMPDEST JUMPDEST PUSH0 DUP3 ADD CALLDATALOAD PUSH8 0xFFFFFFFFFFFFFFFF DUP2 GT ISZERO PUSH2 0x4B7 JUMPI PUSH2 0x4B6 PUSH2 0x231 JUMP JUMPDEST JUMPDEST PUSH2 0x4C3 DUP5 DUP3 DUP6 ADD PUSH2 0x458 JUMP JUMPDEST SWAP2 POP POP SWAP3 SWAP2 POP POP JUMP JUMPDEST PUSH32 0x4E487B7100000000000000000000000000000000000000000000000000000000 PUSH0 MSTORE PUSH1 0x22 PUSH1 0x4 MSTORE PUSH1 0x24 PUSH0 REVERT JUMPDEST PUSH0 PUSH1 0x2 DUP3 DIV SWAP1 POP PUSH1 0x1 DUP3 AND DUP1 PUSH2 0x510 JUMPI PUSH1 0x7F DUP3 AND SWAP2 POP JUMPDEST PUSH1 0x20 DUP3 LT DUP2 SUB PUSH2 0x523 JUMPI PUSH2 0x522 PUSH2 0x4CC JUMP JUMPDEST JUMPDEST POP SWAP2 SWAP1 POP JUMP JUMPDEST PUSH0 DUP2 SWAP1 POP DUP2 PUSH0 MSTORE PUSH1 0x20 PUSH0 KECCAK256 SWAP1 POP SWAP2 SWAP1 POP JUMP JUMPDEST PUSH0 PUSH1 0x20 PUSH1 0x1F DUP4 ADD DIV SWAP1 POP SWAP2 SWAP1 POP JUMP JUMPDEST PUSH0 DUP3 DUP3 SHL SWAP1 POP SWAP3 SWAP2 POP POP JUMP JUMPDEST PUSH0 PUSH1 0x8 DUP4 MUL PUSH2 0x585 PUSH32 0xFFFFFFFFFFFFFFFFFFFFFFFFFFFFFFFFFFFFFFFFFFFFFFFFFFFFFFFFFFFFFFFF DUP3 PUSH2 0x54A JUMP JUMPDEST PUSH2 0x58F DUP7 DUP4 PUSH2 0x54A JUMP JUMPDEST SWAP6 POP DUP1 NOT DUP5 AND SWAP4 POP DUP1 DUP7 AND DUP5 OR SWAP3 POP POP POP SWAP4 SWAP3 POP POP POP JUMP JUMPDEST PUSH0 DUP2 SWAP1 POP SWAP2 SWAP1 POP JUMP JUMPDEST PUSH0 PUSH2 0x5CA PUSH2 0x5C5 PUSH2 0x5C0 DUP5 PUSH2 0x235 JUMP JUMPDEST PUSH2 0x5A7 JUMP JUMPDEST PUSH2 0x235 JUMP JUMPDEST SWAP1 POP SWAP2 SWAP1 POP JUMP JUMPDEST PUSH0 DUP2 SWAP1 POP SWAP2 SWAP1 POP JUMP JUMPDEST PUSH2 0x5E3 DUP4 PUSH2 0x5B0 JUMP JUMPDEST PUSH2 0x5F7 PUSH2 0x5EF DUP3 PUSH2 0x5D1 JUMP JUMPDEST DUP5 DUP5 SLOAD PUSH2 0x556 JUMP JUMPDEST DUP3 SSTORE POP POP POP POP JUMP JUMPDEST PUSH0 SWAP1 JUMP JUMPDEST PUSH2 0x60B PUSH2 0x5FF JUMP JUMPDEST PUSH2 0x616 DUP2 DUP5 DUP5 PUSH2 0x5DA JUMP JUMPDEST POP POP POP JUMP JUMPDEST JUMPDEST DUP2 DUP2 LT ISZERO PUSH2 0x639 JUMPI PUSH2 0x62E PUSH0 DUP3 PUSH2 0x603 JUMP JUMPDEST PUSH1 0x1 DUP2 ADD SWAP1 POP PUSH2 0x61C JUMP JUMPDEST POP POP JUMP JUMPDEST PUSH1 0x1F DUP3 GT ISZERO PUSH2 0x67E JUMPI PUSH2 0x64F DUP2 PUSH2 0x529 JUMP JUMPDEST PUSH2 0x658 DUP5 PUSH2 0x53B JUMP JUMPDEST DUP2 ADD PUSH1 0x20 DUP6 LT ISZERO PUSH2 0x667 JUMPI DUP2 SWAP1 POP JUMPDEST PUSH2 0x67B PUSH2 0x673 DUP6 PUSH2 0x53B JUMP JUMPDEST DUP4 ADD DUP3 PUSH2 0x61B JUMP JUMPDEST POP POP JUMPDEST POP POP POP JUMP JUMPDEST PUSH0 DUP3 DUP3 SHR SWAP1 POP SWAP3 SWAP2 POP POP JUMP JUMPDEST PUSH0 PUSH2 0x69E PUSH0 NOT DUP5 PUSH1 0x8 MUL PUSH2 0x683 JUMP JUMPDEST NOT DUP1 DUP4 AND SWAP2 POP POP SWAP3 SWAP2 POP POP JUMP JUMPDEST PUSH0 PUSH2 0x6B6 DUP4 DUP4 PUSH2 0x68F JUMP JUMPDEST SWAP2 POP DUP3 PUSH1 0x2 MUL DUP3 OR SWAP1 POP SWAP3 SWAP2 POP POP JUMP JUMPDEST PUSH2 0x6CF DUP3 PUSH2 0x2A2 JUMP JUMPDEST PUSH8 0xFFFFFFFFFFFFFFFF DUP2 GT ISZERO PUSH2 0x6E8 JUMPI PUSH2 0x6E7 PUSH2 0x361 JUMP JUMPDEST JUMPDEST PUSH2 0x6F2 DUP3 SLOAD PUSH2 0x4F9 JUMP JUMPDEST PUSH2 0x6FD DUP3 DUP3 DUP6 PUSH2 0x63D JUMP JUMPDEST PUSH0 PUSH1 0x20 SWAP1 POP PUSH1 0x1F DUP4 GT PUSH1 0x1 DUP2 EQ PUSH2 0x72E JUMPI PUSH0 DUP5 ISZERO PUSH2 0x71C JUMPI DUP3 DUP8 ADD MLOAD SWAP1 POP JUMPDEST PUSH2 0x726 DUP6 DUP3 PUSH2 0x6AB JUMP JUMPDEST DUP7 SSTORE POP PUSH2 0x78D JUMP JUMPDEST PUSH1 0x1F NOT DUP5 AND PUSH2 0x73C DUP7 PUSH2 0x529 JUMP JUMPDEST PUSH0 JUMPDEST DUP3 DUP2 LT ISZERO PUSH2 0x763 JUMPI DUP5 DUP10 ADD MLOAD DUP3 SSTORE PUSH1 0x1 DUP3 ADD SWAP2 POP PUSH1 0x20 DUP6 ADD SWAP5 POP PUSH1 0x20 DUP2 ADD SWAP1 POP PUSH2 0x73E JUMP JUMPDEST DUP7 DUP4 LT ISZERO PUSH2 0x780 JUMPI DUP5 DUP10 ADD MLOAD PUSH2 0x77C PUSH1 0x1F DUP10 AND DUP3 PUSH2 0x68F JUMP JUMPDEST DUP4 SSTORE POP JUMPDEST PUSH1 0x1 PUSH1 0x2 DUP9 MUL ADD DUP9 SSTORE POP POP POP JUMPDEST POP POP POP POP POP POP JUMP JUMPDEST PUSH32 0x4E487B7100000000000000000000000000000000000000000000000000000000 PUSH0 MSTORE PUSH1 0x11 PUSH1 0x4 MSTORE PUSH1 0x24 PUSH0 REVERT JUMPDEST PUSH0 PUSH2 0x7CC DUP3 PUSH2 0x235 JUMP JUMPDEST SWAP2 POP PUSH32 0xFFFFFFFFFFFFFFFFFFFFFFFFFFFFFFFFFFFFFFFFFFFFFFFFFFFFFFFFFFFFFFFF DUP3 SUB PUSH2 0x7FE JUMPI PUSH2 0x7FD PUSH2 0x795 JUMP JUMPDEST JUMPDEST PUSH1 0x1 DUP3 ADD SWAP1 POP SWAP2 SWAP1 POP JUMP INVALID LOG2 PUSH5 0x6970667358 0x22 SLT KECCAK256 0x21 0x1E 0x4D 0xAC 0xBE 0xD0 LOG3 0xE6 0xE9 0xBA 0xBB ADDRESS 0x4D PUSH9 0xE900760F62B29FD425 JUMPDEST 0xF6 0xE5 MSIZE DIV POP 0xE9 0xC6 0xC5 PUSH5 0x736F6C6343 STOP ADDMOD BYTE STOP CALLER "
				},
				"gasEstimates": {
					"creation": {
						"codeDepositCost": "422200",
						"executionCost": "5458",
						"totalCost": "427658"
					},
					"external": {
						"counter()": "2425",
						"insert(string)": "infinite",
						"read(uint256)": "infinite",
						"users(uint256)": "infinite"
					}
				},
				"methodIdentifiers": {
					"counter()": "61bc221a",
					"insert(string)": "b1498e29",
					"read(uint256)": "ed2e5a97",
					"users(uint256)": "365b98b2"
				}
			},
			"storageLayout": {
				"storage": [
					{
						"astId": 10,
						"contract": "contracts/structure.sol:demo",
						"label": "users",
						"offset": 0,
						"slot": "0",
						"type": "t_array(t_struct(USER)6_storage)dyn_storage"
					},
					{
						"astId": 13,
						"contract": "contracts/structure.sol:demo",
						"label": "counter",
						"offset": 0,
						"slot": "1",
						"type": "t_uint256"
					}
				],
				"types": {
					"t_array(t_struct(USER)6_storage)dyn_storage": {
						"base": "t_struct(USER)6_storage",
						"encoding": "dynamic_array",
						"label": "struct demo.USER[]",
						"numberOfBytes": "32"
					},
					"t_string_storage": {
						"encoding": "bytes",
						"label": "string",
						"numberOfBytes": "32"
					},
					"t_struct(USER)6_storage": {
						"encoding": "inplace",
						"label": "struct demo.USER",
						"members": [
							{
								"astId": 3,
								"contract": "contracts/structure.sol:demo",
								"label": "id",
								"offset": 0,
								"slot": "0",
								"type": "t_uint256"
							},
							{
								"astId": 5,
								"contract": "contracts/structure.sol:demo",
								"label": "name",
								"offset": 0,
								"slot": "1",
								"type": "t_string_storage"
							}
						],
						"numberOfBytes": "64"
					},
					"t_uint256": {
						"encoding": "inplace",
						"label": "uint256",
						"numberOfBytes": "32"
					}
				}
			},
			"userdoc": {
				"kind": "user",
				"methods": {},
				"version": 1
			}
		}
	}
}