{
	"contracts/structure.sol": {
		"demo": {
			"abi": [
				{
					"inputs": [],
					"name": "counter",
					"outputs": [
						{
							"internalType": "uint256",
							"name": "",
							"type": "uint256"
						}
					],
					"stateMutability": "view",
					"type": "function"
				},
				{
					"inputs": [
						{
							"internalType": "uint256",
							"name": "_index",
							"type": "uint256"
						}
					],
					"name": "find",
					"outputs": [
						{
							"internalType": "string",
							"name": "",
							"type": "string"
						}
					],
					"stateMutability": "view",
					"type": "function"
				},
				{
					"inputs": [
						{
							"internalType": "string",
							"name": "_name",
							"type": "string"
						}
					],
					"name": "insert",
					"outputs": [],
					"stateMutability": "nonpayable",
					"type": "function"
				},
				{
					"inputs": [
						{
							"internalType": "uint256",
							"name": "_index",
							"type": "uint256"
						}
					],
					"name": "read",
					"outputs": [
						{
							"internalType": "uint256",
							"name": "",
							"type": "uint256"
						},
						{
							"internalType": "string",
							"name": "",
							"type": "string"
						}
					],
					"stateMutability": "view",
					"type": "function"
				},
				{
					"inputs": [
						{
							"internalType": "uint256",
							"name": "",
							"type": "uint256"
						}
					],
					"name": "users",
					"outputs": [
						{
							"internalType": "uint256",
							"name": "id",
							"type": "uint256"
						},
						{
							"internalType": "string",
							"name": "name",
							"type": "string"
						}
					],
					"stateMutability": "view",
					"type": "function"
				}
			],
			"devdoc": {
				"kind": "dev",
				"methods": {},
				"version": 1
			},
			"evm": {
				"assembly": "    /* \"contracts/structure.sol\":61:645  contract demo{... */\n  mstore(0x40, 0x80)\n    /* \"contracts/structure.sol\":200:201  0 */\n  0x00\n    /* \"contracts/structure.sol\":177:201  uint256 public counter=0 */\n  0x01\n  sstore\n    /* \"contracts/structure.sol\":61:645  contract demo{... */\n  callvalue\n  dup1\n  iszero\n  tag_1\n  jumpi\n  0x00\n  dup1\n  revert\ntag_1:\n  pop\n  dataSize(sub_0)\n  dup1\n  dataOffset(sub_0)\n  0x00\n  codecopy\n  0x00\n  return\nstop\n\nsub_0: assembly {\n        /* \"contracts/structure.sol\":61:645  contract demo{... */\n      mstore(0x40, 0x80)\n      callvalue\n      dup1\n      iszero\n      tag_1\n      jumpi\n      0x00\n      dup1\n      revert\n    tag_1:\n      pop\n      jumpi(tag_2, lt(calldatasize, 0x04))\n      shr(0xe0, calldataload(0x00))\n      dup1\n      0x365b98b2\n      eq\n      tag_3\n      jumpi\n      dup1\n      0x3e530e5b\n      eq\n      tag_4\n      jumpi\n      dup1\n      0x61bc221a\n      eq\n      tag_5\n      jumpi\n      dup1\n      0xb1498e29\n      eq\n      tag_6\n      jumpi\n      dup1\n      0xed2e5a97\n      eq\n      tag_7\n      jumpi\n    tag_2:\n      0x00\n      dup1\n      revert\n        /* \"contracts/structure.sol\":151:170  USER[] public users */\n    tag_3:\n      tag_8\n      0x04\n      dup1\n      calldatasize\n      sub\n      dup2\n      add\n      swap1\n      tag_9\n      swap2\n      swap1\n      tag_10\n      jump\t// in\n    tag_9:\n      tag_11\n      jump\t// in\n    tag_8:\n      mload(0x40)\n      tag_12\n      swap3\n      swap2\n      swap1\n      tag_13\n      jump\t// in\n    tag_12:\n      mload(0x40)\n      dup1\n      swap2\n      sub\n      swap1\n      return\n        /* \"contracts/structure.sol\":473:640  function find(uint256 _index) public view returns (string memory){... */\n    tag_4:\n      tag_14\n      0x04\n      dup1\n      calldatasize\n      sub\n      dup2\n      add\n      swap1\n      tag_15\n      swap2\n      swap1\n      tag_10\n      jump\t// in\n    tag_15:\n      tag_16\n      jump\t// in\n    tag_14:\n      mload(0x40)\n      tag_17\n      swap2\n      swap1\n      tag_18\n      jump\t// in\n    tag_17:\n      mload(0x40)\n      dup1\n      swap2\n      sub\n      swap1\n      return\n        /* \"contracts/structure.sol\":177:201  uint256 public counter=0 */\n    tag_5:\n      tag_19\n      tag_20\n      jump\t// in\n    tag_19:\n      mload(0x40)\n      tag_21\n      swap2\n      swap1\n      tag_22\n      jump\t// in\n    tag_21:\n      mload(0x40)\n      dup1\n      swap2\n      sub\n      swap1\n      return\n        /* \"contracts/structure.sol\":210:323  function insert(string memory _name) public{... */\n    tag_6:\n      tag_23\n      0x04\n      dup1\n      calldatasize\n      sub\n      dup2\n      add\n      swap1\n      tag_24\n      swap2\n      swap1\n      tag_25\n      jump\t// in\n    tag_24:\n      tag_26\n      jump\t// in\n    tag_23:\n      stop\n        /* \"contracts/structure.sol\":331:465  function read(uint256 _index) public view returns(uint, string memory){... */\n    tag_7:\n      tag_27\n      0x04\n      dup1\n      calldatasize\n      sub\n      dup2\n      add\n      swap1\n      tag_28\n      swap2\n      swap1\n      tag_10\n      jump\t// in\n    tag_28:\n      tag_29\n      jump\t// in\n    tag_27:\n      mload(0x40)\n      tag_30\n      swap3\n      swap2\n      swap1\n      tag_13\n      jump\t// in\n    tag_30:\n      mload(0x40)\n      dup1\n      swap2\n      sub\n      swap1\n      return\n        /* \"contracts/structure.sol\":151:170  USER[] public users */\n    tag_11:\n      0x00\n      dup2\n      dup2\n      sload\n      dup2\n      lt\n      tag_31\n      jumpi\n      0x00\n      dup1\n      revert\n    tag_31:\n      swap1\n      0x00\n      mstore\n      keccak256(0x00, 0x20)\n      swap1\n      0x02\n      mul\n      add\n      0x00\n      swap2\n      pop\n      swap1\n      pop\n      dup1\n      0x00\n      add\n      sload\n      swap1\n      dup1\n      0x01\n      add\n      dup1\n      sload\n      tag_33\n      swap1\n      tag_34\n      jump\t// in\n    tag_33:\n      dup1\n      0x1f\n      add\n      0x20\n      dup1\n      swap2\n      div\n      mul\n      0x20\n      add\n      mload(0x40)\n      swap1\n      dup2\n      add\n      0x40\n      mstore\n      dup1\n      swap3\n      swap2\n      swap1\n      dup2\n      dup2\n      mstore\n      0x20\n      add\n      dup3\n      dup1\n      sload\n      tag_35\n      swap1\n      tag_34\n      jump\t// in\n    tag_35:\n      dup1\n      iszero\n      tag_36\n      jumpi\n      dup1\n      0x1f\n      lt\n      tag_37\n      jumpi\n      0x0100\n      dup1\n      dup4\n      sload\n      div\n      mul\n      dup4\n      mstore\n      swap2\n      0x20\n      add\n      swap2\n      jump(tag_36)\n    tag_37:\n      dup3\n      add\n      swap2\n      swap1\n      0x00\n      mstore\n      keccak256(0x00, 0x20)\n      swap1\n    tag_38:\n      dup2\n      sload\n      dup2\n      mstore\n      swap1\n      0x01\n      add\n      swap1\n      0x20\n      add\n      dup1\n      dup4\n      gt\n      tag_38\n      jumpi\n      dup3\n      swap1\n      sub\n      0x1f\n      and\n      dup3\n      add\n      swap2\n    tag_36:\n      pop\n      pop\n      pop\n      pop\n      pop\n      swap1\n      pop\n      dup3\n      jump\t// out\n        /* \"contracts/structure.sol\":473:640  function find(uint256 _index) public view returns (string memory){... */\n    tag_16:\n        /* \"contracts/structure.sol\":524:537  string memory */\n      0x60\n        /* \"contracts/structure.sol\":564:571  counter */\n      sload(0x01)\n        /* \"contracts/structure.sol\":557:563  _index */\n      dup3\n        /* \"contracts/structure.sol\":557:571  _index<counter */\n      lt\n        /* \"contracts/structure.sol\":549:595  require(_index<counter,\"User does not exist!\") */\n      tag_40\n      jumpi\n      mload(0x40)\n      0x08c379a000000000000000000000000000000000000000000000000000000000\n      dup2\n      mstore\n      0x04\n      add\n      tag_41\n      swap1\n      tag_42\n      jump\t// in\n    tag_41:\n      mload(0x40)\n      dup1\n      swap2\n      sub\n      swap1\n      revert\n    tag_40:\n        /* \"contracts/structure.sol\":613:618  users */\n      0x00\n        /* \"contracts/structure.sol\":619:625  _index */\n      dup3\n        /* \"contracts/structure.sol\":613:626  users[_index] */\n      dup2\n      sload\n      dup2\n      lt\n      tag_43\n      jumpi\n      tag_44\n      tag_45\n      jump\t// in\n    tag_44:\n    tag_43:\n      swap1\n      0x00\n      mstore\n      keccak256(0x00, 0x20)\n      swap1\n      0x02\n      mul\n      add\n        /* \"contracts/structure.sol\":613:631  users[_index].name */\n      0x01\n      add\n        /* \"contracts/structure.sol\":606:632  return(users[_index].name) */\n      dup1\n      sload\n      tag_47\n      swap1\n      tag_34\n      jump\t// in\n    tag_47:\n      dup1\n      0x1f\n      add\n      0x20\n      dup1\n      swap2\n      div\n      mul\n      0x20\n      add\n      mload(0x40)\n      swap1\n      dup2\n      add\n      0x40\n      mstore\n      dup1\n      swap3\n      swap2\n      swap1\n      dup2\n      dup2\n      mstore\n      0x20\n      add\n      dup3\n      dup1\n      sload\n      tag_48\n      swap1\n      tag_34\n      jump\t// in\n    tag_48:\n      dup1\n      iszero\n      tag_49\n      jumpi\n      dup1\n      0x1f\n      lt\n      tag_50\n      jumpi\n      0x0100\n      dup1\n      dup4\n      sload\n      div\n      mul\n      dup4\n      mstore\n      swap2\n      0x20\n      add\n      swap2\n      jump(tag_49)\n    tag_50:\n      dup3\n      add\n      swap2\n      swap1\n      0x00\n      mstore\n      keccak256(0x00, 0x20)\n      swap1\n    tag_51:\n      dup2\n      sload\n      dup2\n      mstore\n      swap1\n      0x01\n      add\n      swap1\n      0x20\n      add\n      dup1\n      dup4\n      gt\n      tag_51\n      jumpi\n      dup3\n      swap1\n      sub\n      0x1f\n      and\n      dup3\n      add\n      swap2\n    tag_49:\n      pop\n      pop\n      pop\n      pop\n      pop\n      swap1\n      pop\n        /* \"contracts/structure.sol\":473:640  function find(uint256 _index) public view returns (string memory){... */\n      swap2\n      swap1\n      pop\n      jump\t// out\n        /* \"contracts/structure.sol\":177:201  uint256 public counter=0 */\n    tag_20:\n      sload(0x01)\n      dup2\n      jump\t// out\n        /* \"contracts/structure.sol\":210:323  function insert(string memory _name) public{... */\n    tag_26:\n        /* \"contracts/structure.sol\":264:269  users */\n      0x00\n        /* \"contracts/structure.sol\":275:294  USER(counter,_name) */\n      mload(0x40)\n      dup1\n      0x40\n      add\n      0x40\n      mstore\n      dup1\n        /* \"contracts/structure.sol\":280:287  counter */\n      sload(0x01)\n        /* \"contracts/structure.sol\":275:294  USER(counter,_name) */\n      dup2\n      mstore\n      0x20\n      add\n        /* \"contracts/structure.sol\":288:293  _name */\n      dup4\n        /* \"contracts/structure.sol\":275:294  USER(counter,_name) */\n      dup2\n      mstore\n      pop\n        /* \"contracts/structure.sol\":264:295  users.push(USER(counter,_name)) */\n      swap1\n      dup1\n      0x01\n      dup2\n      sload\n      add\n      dup1\n      dup3\n      sstore\n      dup1\n      swap2\n      pop\n      pop\n      0x01\n      swap1\n      sub\n      swap1\n      0x00\n      mstore\n      keccak256(0x00, 0x20)\n      swap1\n      0x02\n      mul\n      add\n      0x00\n      swap1\n      swap2\n      swap1\n      swap2\n      swap1\n      swap2\n      pop\n      0x00\n      dup3\n      add\n      mload\n      dup2\n      0x00\n      add\n      sstore\n      0x20\n      dup3\n      add\n      mload\n      dup2\n      0x01\n      add\n      swap1\n      dup2\n      tag_54\n      swap2\n      swap1\n      tag_55\n      jump\t// in\n    tag_54:\n      pop\n      pop\n      pop\n        /* \"contracts/structure.sol\":306:313  counter */\n      0x01\n      0x00\n        /* \"contracts/structure.sol\":306:315  counter++ */\n      dup2\n      sload\n      dup1\n      swap3\n      swap2\n      swap1\n      tag_56\n      swap1\n      tag_57\n      jump\t// in\n    tag_56:\n      swap2\n      swap1\n      pop\n      sstore\n      pop\n        /* \"contracts/structure.sol\":210:323  function insert(string memory _name) public{... */\n      pop\n      jump\t// out\n        /* \"contracts/structure.sol\":331:465  function read(uint256 _index) public view returns(uint, string memory){... */\n    tag_29:\n        /* \"contracts/structure.sol\":381:385  uint */\n      0x00\n        /* \"contracts/structure.sol\":387:400  string memory */\n      0x60\n        /* \"contracts/structure.sol\":420:425  users */\n      0x00\n        /* \"contracts/structure.sol\":426:432  _index */\n      dup4\n        /* \"contracts/structure.sol\":420:433  users[_index] */\n      dup2\n      sload\n      dup2\n      lt\n      tag_59\n      jumpi\n      tag_60\n      tag_45\n      jump\t// in\n    tag_60:\n    tag_59:\n      swap1\n      0x00\n      mstore\n      keccak256(0x00, 0x20)\n      swap1\n      0x02\n      mul\n      add\n        /* \"contracts/structure.sol\":420:436  users[_index].id */\n      0x00\n      add\n      sload\n        /* \"contracts/structure.sol\":438:443  users */\n      0x00\n        /* \"contracts/structure.sol\":444:450  _index */\n      dup5\n        /* \"contracts/structure.sol\":438:451  users[_index] */\n      dup2\n      sload\n      dup2\n      lt\n      tag_62\n      jumpi\n      tag_63\n      tag_45\n      jump\t// in\n    tag_63:\n    tag_62:\n      swap1\n      0x00\n      mstore\n      keccak256(0x00, 0x20)\n      swap1\n      0x02\n      mul\n      add\n        /* \"contracts/structure.sol\":438:456  users[_index].name */\n      0x01\n      add\n        /* \"contracts/structure.sol\":412:457  return (users[_index].id, users[_index].name) */\n      dup1\n      dup1\n      sload\n      tag_65\n      swap1\n      tag_34\n      jump\t// in\n    tag_65:\n      dup1\n      0x1f\n      add\n      0x20\n      dup1\n      swap2\n      div\n      mul\n      0x20\n      add\n      mload(0x40)\n      swap1\n      dup2\n      add\n      0x40\n      mstore\n      dup1\n      swap3\n      swap2\n      swap1\n      dup2\n      dup2\n      mstore\n      0x20\n      add\n      dup3\n      dup1\n      sload\n      tag_66\n      swap1\n      tag_34\n      jump\t// in\n    tag_66:\n      dup1\n      iszero\n      tag_67\n      jumpi\n      dup1\n      0x1f\n      lt\n      tag_68\n      jumpi\n      0x0100\n      dup1\n      dup4\n      sload\n      div\n      mul\n      dup4\n      mstore\n      swap2\n      0x20\n      add\n      swap2\n      jump(tag_67)\n    tag_68:\n      dup3\n      add\n      swap2\n      swap1\n      0x00\n      mstore\n      keccak256(0x00, 0x20)\n      swap1\n    tag_69:\n      dup2\n      sload\n      dup2\n      mstore\n      swap1\n      0x01\n      add\n      swap1\n      0x20\n      add\n      dup1\n      dup4\n      gt\n      tag_69\n      jumpi\n      dup3\n      swap1\n      sub\n      0x1f\n      and\n      dup3\n      add\n      swap2\n    tag_67:\n      pop\n      pop\n      pop\n      pop\n      pop\n      swap1\n      pop\n      swap2\n      pop\n      swap2\n      pop\n        /* \"contracts/structure.sol\":331:465  function read(uint256 _index) public view returns(uint, string memory){... */\n      swap2\n      pop\n      swap2\n      jump\t// out\n        /* \"#utility.yul\":7:82   */\n    tag_70:\n        /* \"#utility.yul\":40:46   */\n      0x00\n        /* \"#utility.yul\":73:75   */\n      0x40\n        /* \"#utility.yul\":67:76   */\n      mload\n        /* \"#utility.yul\":57:76   */\n      swap1\n      pop\n        /* \"#utility.yul\":7:82   */\n      swap1\n      jump\t// out\n        /* \"#utility.yul\":88:205   */\n    tag_71:\n        /* \"#utility.yul\":197:198   */\n      0x00\n        /* \"#utility.yul\":194:195   */\n      dup1\n        /* \"#utility.yul\":187:199   */\n      revert\n        /* \"#utility.yul\":211:328   */\n    tag_72:\n        /* \"#utility.yul\":320:321   */\n      0x00\n        /* \"#utility.yul\":317:318   */\n      dup1\n        /* \"#utility.yul\":310:322   */\n      revert\n        /* \"#utility.yul\":334:411   */\n    tag_73:\n        /* \"#utility.yul\":371:378   */\n      0x00\n        /* \"#utility.yul\":400:405   */\n      dup2\n        /* \"#utility.yul\":389:405   */\n      swap1\n      pop\n        /* \"#utility.yul\":334:411   */\n      swap2\n      swap1\n      pop\n      jump\t// out\n        /* \"#utility.yul\":417:539   */\n    tag_74:\n        /* \"#utility.yul\":490:514   */\n      tag_116\n        /* \"#utility.yul\":508:513   */\n      dup2\n        /* \"#utility.yul\":490:514   */\n      tag_73\n      jump\t// in\n    tag_116:\n        /* \"#utility.yul\":483:488   */\n      dup2\n        /* \"#utility.yul\":480:515   */\n      eq\n        /* \"#utility.yul\":470:533   */\n      tag_117\n      jumpi\n        /* \"#utility.yul\":529:530   */\n      0x00\n        /* \"#utility.yul\":526:527   */\n      dup1\n        /* \"#utility.yul\":519:531   */\n      revert\n        /* \"#utility.yul\":470:533   */\n    tag_117:\n        /* \"#utility.yul\":417:539   */\n      pop\n      jump\t// out\n        /* \"#utility.yul\":545:684   */\n    tag_75:\n        /* \"#utility.yul\":591:596   */\n      0x00\n        /* \"#utility.yul\":629:635   */\n      dup2\n        /* \"#utility.yul\":616:636   */\n      calldataload\n        /* \"#utility.yul\":607:636   */\n      swap1\n      pop\n        /* \"#utility.yul\":645:678   */\n      tag_119\n        /* \"#utility.yul\":672:677   */\n      dup2\n        /* \"#utility.yul\":645:678   */\n      tag_74\n      jump\t// in\n    tag_119:\n        /* \"#utility.yul\":545:684   */\n      swap3\n      swap2\n      pop\n      pop\n      jump\t// out\n        /* \"#utility.yul\":690:1019   */\n    tag_10:\n        /* \"#utility.yul\":749:755   */\n      0x00\n        /* \"#utility.yul\":798:800   */\n      0x20\n        /* \"#utility.yul\":786:795   */\n      dup3\n        /* \"#utility.yul\":777:784   */\n      dup5\n        /* \"#utility.yul\":773:796   */\n      sub\n        /* \"#utility.yul\":769:801   */\n      slt\n        /* \"#utility.yul\":766:885   */\n      iszero\n      tag_121\n      jumpi\n        /* \"#utility.yul\":804:883   */\n      tag_122\n      tag_71\n      jump\t// in\n    tag_122:\n        /* \"#utility.yul\":766:885   */\n    tag_121:\n        /* \"#utility.yul\":924:925   */\n      0x00\n        /* \"#utility.yul\":949:1002   */\n      tag_123\n        /* \"#utility.yul\":994:1001   */\n      dup5\n        /* \"#utility.yul\":985:991   */\n      dup3\n        /* \"#utility.yul\":974:983   */\n      dup6\n        /* \"#utility.yul\":970:992   */\n      add\n        /* \"#utility.yul\":949:1002   */\n      tag_75\n      jump\t// in\n    tag_123:\n        /* \"#utility.yul\":939:1002   */\n      swap2\n      pop\n        /* \"#utility.yul\":895:1012   */\n      pop\n        /* \"#utility.yul\":690:1019   */\n      swap3\n      swap2\n      pop\n      pop\n      jump\t// out\n        /* \"#utility.yul\":1025:1143   */\n    tag_76:\n        /* \"#utility.yul\":1112:1136   */\n      tag_125\n        /* \"#utility.yul\":1130:1135   */\n      dup2\n        /* \"#utility.yul\":1112:1136   */\n      tag_73\n      jump\t// in\n    tag_125:\n        /* \"#utility.yul\":1107:1110   */\n      dup3\n        /* \"#utility.yul\":1100:1137   */\n      mstore\n        /* \"#utility.yul\":1025:1143   */\n      pop\n      pop\n      jump\t// out\n        /* \"#utility.yul\":1149:1248   */\n    tag_77:\n        /* \"#utility.yul\":1201:1207   */\n      0x00\n        /* \"#utility.yul\":1235:1240   */\n      dup2\n        /* \"#utility.yul\":1229:1241   */\n      mload\n        /* \"#utility.yul\":1219:1241   */\n      swap1\n      pop\n        /* \"#utility.yul\":1149:1248   */\n      swap2\n      swap1\n      pop\n      jump\t// out\n        /* \"#utility.yul\":1254:1423   */\n    tag_78:\n        /* \"#utility.yul\":1338:1349   */\n      0x00\n        /* \"#utility.yul\":1372:1378   */\n      dup3\n        /* \"#utility.yul\":1367:1370   */\n      dup3\n        /* \"#utility.yul\":1360:1379   */\n      mstore\n        /* \"#utility.yul\":1412:1416   */\n      0x20\n        /* \"#utility.yul\":1407:1410   */\n      dup3\n        /* \"#utility.yul\":1403:1417   */\n      add\n        /* \"#utility.yul\":1388:1417   */\n      swap1\n      pop\n        /* \"#utility.yul\":1254:1423   */\n      swap3\n      swap2\n      pop\n      pop\n      jump\t// out\n        /* \"#utility.yul\":1429:1568   */\n    tag_79:\n        /* \"#utility.yul\":1518:1524   */\n      dup3\n        /* \"#utility.yul\":1513:1516   */\n      dup2\n        /* \"#utility.yul\":1508:1511   */\n      dup4\n        /* \"#utility.yul\":1502:1525   */\n      mcopy\n        /* \"#utility.yul\":1559:1560   */\n      0x00\n        /* \"#utility.yul\":1550:1556   */\n      dup4\n        /* \"#utility.yul\":1545:1548   */\n      dup4\n        /* \"#utility.yul\":1541:1557   */\n      add\n        /* \"#utility.yul\":1534:1561   */\n      mstore\n        /* \"#utility.yul\":1429:1568   */\n      pop\n      pop\n      pop\n      jump\t// out\n        /* \"#utility.yul\":1574:1676   */\n    tag_80:\n        /* \"#utility.yul\":1615:1621   */\n      0x00\n        /* \"#utility.yul\":1666:1668   */\n      0x1f\n        /* \"#utility.yul\":1662:1669   */\n      not\n        /* \"#utility.yul\":1657:1659   */\n      0x1f\n        /* \"#utility.yul\":1650:1655   */\n      dup4\n        /* \"#utility.yul\":1646:1660   */\n      add\n        /* \"#utility.yul\":1642:1670   */\n      and\n        /* \"#utility.yul\":1632:1670   */\n      swap1\n      pop\n        /* \"#utility.yul\":1574:1676   */\n      swap2\n      swap1\n      pop\n      jump\t// out\n        /* \"#utility.yul\":1682:2059   */\n    tag_81:\n        /* \"#utility.yul\":1770:1773   */\n      0x00\n        /* \"#utility.yul\":1798:1837   */\n      tag_131\n        /* \"#utility.yul\":1831:1836   */\n      dup3\n        /* \"#utility.yul\":1798:1837   */\n      tag_77\n      jump\t// in\n    tag_131:\n        /* \"#utility.yul\":1853:1924   */\n      tag_132\n        /* \"#utility.yul\":1917:1923   */\n      dup2\n        /* \"#utility.yul\":1912:1915   */\n      dup6\n        /* \"#utility.yul\":1853:1924   */\n      tag_78\n      jump\t// in\n    tag_132:\n        /* \"#utility.yul\":1846:1924   */\n      swap4\n      pop\n        /* \"#utility.yul\":1933:1998   */\n      tag_133\n        /* \"#utility.yul\":1991:1997   */\n      dup2\n        /* \"#utility.yul\":1986:1989   */\n      dup6\n        /* \"#utility.yul\":1979:1983   */\n      0x20\n        /* \"#utility.yul\":1972:1977   */\n      dup7\n        /* \"#utility.yul\":1968:1984   */\n      add\n        /* \"#utility.yul\":1933:1998   */\n      tag_79\n      jump\t// in\n    tag_133:\n        /* \"#utility.yul\":2023:2052   */\n      tag_134\n        /* \"#utility.yul\":2045:2051   */\n      dup2\n        /* \"#utility.yul\":2023:2052   */\n      tag_80\n      jump\t// in\n    tag_134:\n        /* \"#utility.yul\":2018:2021   */\n      dup5\n        /* \"#utility.yul\":2014:2053   */\n      add\n        /* \"#utility.yul\":2007:2053   */\n      swap2\n      pop\n        /* \"#utility.yul\":1774:2059   */\n      pop\n        /* \"#utility.yul\":1682:2059   */\n      swap3\n      swap2\n      pop\n      pop\n      jump\t// out\n        /* \"#utility.yul\":2065:2488   */\n    tag_13:\n        /* \"#utility.yul\":2206:2210   */\n      0x00\n        /* \"#utility.yul\":2244:2246   */\n      0x40\n        /* \"#utility.yul\":2233:2242   */\n      dup3\n        /* \"#utility.yul\":2229:2247   */\n      add\n        /* \"#utility.yul\":2221:2247   */\n      swap1\n      pop\n        /* \"#utility.yul\":2257:2328   */\n      tag_136\n        /* \"#utility.yul\":2325:2326   */\n      0x00\n        /* \"#utility.yul\":2314:2323   */\n      dup4\n        /* \"#utility.yul\":2310:2327   */\n      add\n        /* \"#utility.yul\":2301:2307   */\n      dup6\n        /* \"#utility.yul\":2257:2328   */\n      tag_76\n      jump\t// in\n    tag_136:\n        /* \"#utility.yul\":2375:2384   */\n      dup2\n        /* \"#utility.yul\":2369:2373   */\n      dup2\n        /* \"#utility.yul\":2365:2385   */\n      sub\n        /* \"#utility.yul\":2360:2362   */\n      0x20\n        /* \"#utility.yul\":2349:2358   */\n      dup4\n        /* \"#utility.yul\":2345:2363   */\n      add\n        /* \"#utility.yul\":2338:2386   */\n      mstore\n        /* \"#utility.yul\":2403:2481   */\n      tag_137\n        /* \"#utility.yul\":2476:2480   */\n      dup2\n        /* \"#utility.yul\":2467:2473   */\n      dup5\n        /* \"#utility.yul\":2403:2481   */\n      tag_81\n      jump\t// in\n    tag_137:\n        /* \"#utility.yul\":2395:2481   */\n      swap1\n      pop\n        /* \"#utility.yul\":2065:2488   */\n      swap4\n      swap3\n      pop\n      pop\n      pop\n      jump\t// out\n        /* \"#utility.yul\":2494:2807   */\n    tag_18:\n        /* \"#utility.yul\":2607:2611   */\n      0x00\n        /* \"#utility.yul\":2645:2647   */\n      0x20\n        /* \"#utility.yul\":2634:2643   */\n      dup3\n        /* \"#utility.yul\":2630:2648   */\n      add\n        /* \"#utility.yul\":2622:2648   */\n      swap1\n      pop\n        /* \"#utility.yul\":2694:2703   */\n      dup2\n        /* \"#utility.yul\":2688:2692   */\n      dup2\n        /* \"#utility.yul\":2684:2704   */\n      sub\n        /* \"#utility.yul\":2680:2681   */\n      0x00\n        /* \"#utility.yul\":2669:2678   */\n      dup4\n        /* \"#utility.yul\":2665:2682   */\n      add\n        /* \"#utility.yul\":2658:2705   */\n      mstore\n        /* \"#utility.yul\":2722:2800   */\n      tag_139\n        /* \"#utility.yul\":2795:2799   */\n      dup2\n        /* \"#utility.yul\":2786:2792   */\n      dup5\n        /* \"#utility.yul\":2722:2800   */\n      tag_81\n      jump\t// in\n    tag_139:\n        /* \"#utility.yul\":2714:2800   */\n      swap1\n      pop\n        /* \"#utility.yul\":2494:2807   */\n      swap3\n      swap2\n      pop\n      pop\n      jump\t// out\n        /* \"#utility.yul\":2813:3035   */\n    tag_22:\n        /* \"#utility.yul\":2906:2910   */\n      0x00\n        /* \"#utility.yul\":2944:2946   */\n      0x20\n        /* \"#utility.yul\":2933:2942   */\n      dup3\n        /* \"#utility.yul\":2929:2947   */\n      add\n        /* \"#utility.yul\":2921:2947   */\n      swap1\n      pop\n        /* \"#utility.yul\":2957:3028   */\n      tag_141\n        /* \"#utility.yul\":3025:3026   */\n      0x00\n        /* \"#utility.yul\":3014:3023   */\n      dup4\n        /* \"#utility.yul\":3010:3027   */\n      add\n        /* \"#utility.yul\":3001:3007   */\n      dup5\n        /* \"#utility.yul\":2957:3028   */\n      tag_76\n      jump\t// in\n    tag_141:\n        /* \"#utility.yul\":2813:3035   */\n      swap3\n      swap2\n      pop\n      pop\n      jump\t// out\n        /* \"#utility.yul\":3041:3158   */\n    tag_82:\n        /* \"#utility.yul\":3150:3151   */\n      0x00\n        /* \"#utility.yul\":3147:3148   */\n      dup1\n        /* \"#utility.yul\":3140:3152   */\n      revert\n        /* \"#utility.yul\":3164:3281   */\n    tag_83:\n        /* \"#utility.yul\":3273:3274   */\n      0x00\n        /* \"#utility.yul\":3270:3271   */\n      dup1\n        /* \"#utility.yul\":3263:3275   */\n      revert\n        /* \"#utility.yul\":3287:3467   */\n    tag_84:\n        /* \"#utility.yul\":3335:3412   */\n      0x4e487b7100000000000000000000000000000000000000000000000000000000\n        /* \"#utility.yul\":3332:3333   */\n      0x00\n        /* \"#utility.yul\":3325:3413   */\n      mstore\n        /* \"#utility.yul\":3432:3436   */\n      0x41\n        /* \"#utility.yul\":3429:3430   */\n      0x04\n        /* \"#utility.yul\":3422:3437   */\n      mstore\n        /* \"#utility.yul\":3456:3460   */\n      0x24\n        /* \"#utility.yul\":3453:3454   */\n      0x00\n        /* \"#utility.yul\":3446:3461   */\n      revert\n        /* \"#utility.yul\":3473:3754   */\n    tag_85:\n        /* \"#utility.yul\":3556:3583   */\n      tag_146\n        /* \"#utility.yul\":3578:3582   */\n      dup3\n        /* \"#utility.yul\":3556:3583   */\n      tag_80\n      jump\t// in\n    tag_146:\n        /* \"#utility.yul\":3548:3554   */\n      dup2\n        /* \"#utility.yul\":3544:3584   */\n      add\n        /* \"#utility.yul\":3686:3692   */\n      dup2\n        /* \"#utility.yul\":3674:3684   */\n      dup2\n        /* \"#utility.yul\":3671:3693   */\n      lt\n        /* \"#utility.yul\":3650:3668   */\n      0xffffffffffffffff\n        /* \"#utility.yul\":3638:3648   */\n      dup3\n        /* \"#utility.yul\":3635:3669   */\n      gt\n        /* \"#utility.yul\":3632:3694   */\n      or\n        /* \"#utility.yul\":3629:3717   */\n      iszero\n      tag_147\n      jumpi\n        /* \"#utility.yul\":3697:3715   */\n      tag_148\n      tag_84\n      jump\t// in\n    tag_148:\n        /* \"#utility.yul\":3629:3717   */\n    tag_147:\n        /* \"#utility.yul\":3737:3747   */\n      dup1\n        /* \"#utility.yul\":3733:3735   */\n      0x40\n        /* \"#utility.yul\":3726:3748   */\n      mstore\n        /* \"#utility.yul\":3516:3754   */\n      pop\n        /* \"#utility.yul\":3473:3754   */\n      pop\n      pop\n      jump\t// out\n        /* \"#utility.yul\":3760:3889   */\n    tag_86:\n        /* \"#utility.yul\":3794:3800   */\n      0x00\n        /* \"#utility.yul\":3821:3841   */\n      tag_150\n      tag_70\n      jump\t// in\n    tag_150:\n        /* \"#utility.yul\":3811:3841   */\n      swap1\n      pop\n        /* \"#utility.yul\":3850:3883   */\n      tag_151\n        /* \"#utility.yul\":3878:3882   */\n      dup3\n        /* \"#utility.yul\":3870:3876   */\n      dup3\n        /* \"#utility.yul\":3850:3883   */\n      tag_85\n      jump\t// in\n    tag_151:\n        /* \"#utility.yul\":3760:3889   */\n      swap2\n      swap1\n      pop\n      jump\t// out\n        /* \"#utility.yul\":3895:4203   */\n    tag_87:\n        /* \"#utility.yul\":3957:3961   */\n      0x00\n        /* \"#utility.yul\":4047:4065   */\n      0xffffffffffffffff\n        /* \"#utility.yul\":4039:4045   */\n      dup3\n        /* \"#utility.yul\":4036:4066   */\n      gt\n        /* \"#utility.yul\":4033:4089   */\n      iszero\n      tag_153\n      jumpi\n        /* \"#utility.yul\":4069:4087   */\n      tag_154\n      tag_84\n      jump\t// in\n    tag_154:\n        /* \"#utility.yul\":4033:4089   */\n    tag_153:\n        /* \"#utility.yul\":4107:4136   */\n      tag_155\n        /* \"#utility.yul\":4129:4135   */\n      dup3\n        /* \"#utility.yul\":4107:4136   */\n      tag_80\n      jump\t// in\n    tag_155:\n        /* \"#utility.yul\":4099:4136   */\n      swap1\n      pop\n        /* \"#utility.yul\":4191:4195   */\n      0x20\n        /* \"#utility.yul\":4185:4189   */\n      dup2\n        /* \"#utility.yul\":4181:4196   */\n      add\n        /* \"#utility.yul\":4173:4196   */\n      swap1\n      pop\n        /* \"#utility.yul\":3895:4203   */\n      swap2\n      swap1\n      pop\n      jump\t// out\n        /* \"#utility.yul\":4209:4357   */\n    tag_88:\n        /* \"#utility.yul\":4307:4313   */\n      dup3\n        /* \"#utility.yul\":4302:4305   */\n      dup2\n        /* \"#utility.yul\":4297:4300   */\n      dup4\n        /* \"#utility.yul\":4284:4314   */\n      calldatacopy\n        /* \"#utility.yul\":4348:4349   */\n      0x00\n        /* \"#utility.yul\":4339:4345   */\n      dup4\n        /* \"#utility.yul\":4334:4337   */\n      dup4\n        /* \"#utility.yul\":4330:4346   */\n      add\n        /* \"#utility.yul\":4323:4350   */\n      mstore\n        /* \"#utility.yul\":4209:4357   */\n      pop\n      pop\n      pop\n      jump\t// out\n        /* \"#utility.yul\":4363:4788   */\n    tag_89:\n        /* \"#utility.yul\":4441:4446   */\n      0x00\n        /* \"#utility.yul\":4466:4532   */\n      tag_158\n        /* \"#utility.yul\":4482:4531   */\n      tag_159\n        /* \"#utility.yul\":4524:4530   */\n      dup5\n        /* \"#utility.yul\":4482:4531   */\n      tag_87\n      jump\t// in\n    tag_159:\n        /* \"#utility.yul\":4466:4532   */\n      tag_86\n      jump\t// in\n    tag_158:\n        /* \"#utility.yul\":4457:4532   */\n      swap1\n      pop\n        /* \"#utility.yul\":4555:4561   */\n      dup3\n        /* \"#utility.yul\":4548:4553   */\n      dup2\n        /* \"#utility.yul\":4541:4562   */\n      mstore\n        /* \"#utility.yul\":4593:4597   */\n      0x20\n        /* \"#utility.yul\":4586:4591   */\n      dup2\n        /* \"#utility.yul\":4582:4598   */\n      add\n        /* \"#utility.yul\":4631:4634   */\n      dup5\n        /* \"#utility.yul\":4622:4628   */\n      dup5\n        /* \"#utility.yul\":4617:4620   */\n      dup5\n        /* \"#utility.yul\":4613:4629   */\n      add\n        /* \"#utility.yul\":4610:4635   */\n      gt\n        /* \"#utility.yul\":4607:4719   */\n      iszero\n      tag_160\n      jumpi\n        /* \"#utility.yul\":4638:4717   */\n      tag_161\n      tag_83\n      jump\t// in\n    tag_161:\n        /* \"#utility.yul\":4607:4719   */\n    tag_160:\n        /* \"#utility.yul\":4728:4782   */\n      tag_162\n        /* \"#utility.yul\":4775:4781   */\n      dup5\n        /* \"#utility.yul\":4770:4773   */\n      dup3\n        /* \"#utility.yul\":4765:4768   */\n      dup6\n        /* \"#utility.yul\":4728:4782   */\n      tag_88\n      jump\t// in\n    tag_162:\n        /* \"#utility.yul\":4447:4788   */\n      pop\n        /* \"#utility.yul\":4363:4788   */\n      swap4\n      swap3\n      pop\n      pop\n      pop\n      jump\t// out\n        /* \"#utility.yul\":4808:5148   */\n    tag_90:\n        /* \"#utility.yul\":4864:4869   */\n      0x00\n        /* \"#utility.yul\":4913:4916   */\n      dup3\n        /* \"#utility.yul\":4906:4910   */\n      0x1f\n        /* \"#utility.yul\":4898:4904   */\n      dup4\n        /* \"#utility.yul\":4894:4911   */\n      add\n        /* \"#utility.yul\":4890:4917   */\n      slt\n        /* \"#utility.yul\":4880:5002   */\n      tag_164\n      jumpi\n        /* \"#utility.yul\":4921:5000   */\n      tag_165\n      tag_82\n      jump\t// in\n    tag_165:\n        /* \"#utility.yul\":4880:5002   */\n    tag_164:\n        /* \"#utility.yul\":5038:5044   */\n      dup2\n        /* \"#utility.yul\":5025:5045   */\n      calldataload\n        /* \"#utility.yul\":5063:5142   */\n      tag_166\n        /* \"#utility.yul\":5138:5141   */\n      dup5\n        /* \"#utility.yul\":5130:5136   */\n      dup3\n        /* \"#utility.yul\":5123:5127   */\n      0x20\n        /* \"#utility.yul\":5115:5121   */\n      dup7\n        /* \"#utility.yul\":5111:5128   */\n      add\n        /* \"#utility.yul\":5063:5142   */\n      tag_89\n      jump\t// in\n    tag_166:\n        /* \"#utility.yul\":5054:5142   */\n      swap2\n      pop\n        /* \"#utility.yul\":4870:5148   */\n      pop\n        /* \"#utility.yul\":4808:5148   */\n      swap3\n      swap2\n      pop\n      pop\n      jump\t// out\n        /* \"#utility.yul\":5154:5663   */\n    tag_25:\n        /* \"#utility.yul\":5223:5229   */\n      0x00\n        /* \"#utility.yul\":5272:5274   */\n      0x20\n        /* \"#utility.yul\":5260:5269   */\n      dup3\n        /* \"#utility.yul\":5251:5258   */\n      dup5\n        /* \"#utility.yul\":5247:5270   */\n      sub\n        /* \"#utility.yul\":5243:5275   */\n      slt\n        /* \"#utility.yul\":5240:5359   */\n      iszero\n      tag_168\n      jumpi\n        /* \"#utility.yul\":5278:5357   */\n      tag_169\n      tag_71\n      jump\t// in\n    tag_169:\n        /* \"#utility.yul\":5240:5359   */\n    tag_168:\n        /* \"#utility.yul\":5426:5427   */\n      0x00\n        /* \"#utility.yul\":5415:5424   */\n      dup3\n        /* \"#utility.yul\":5411:5428   */\n      add\n        /* \"#utility.yul\":5398:5429   */\n      calldataload\n        /* \"#utility.yul\":5456:5474   */\n      0xffffffffffffffff\n        /* \"#utility.yul\":5448:5454   */\n      dup2\n        /* \"#utility.yul\":5445:5475   */\n      gt\n        /* \"#utility.yul\":5442:5559   */\n      iszero\n      tag_170\n      jumpi\n        /* \"#utility.yul\":5478:5557   */\n      tag_171\n      tag_72\n      jump\t// in\n    tag_171:\n        /* \"#utility.yul\":5442:5559   */\n    tag_170:\n        /* \"#utility.yul\":5583:5646   */\n      tag_172\n        /* \"#utility.yul\":5638:5645   */\n      dup5\n        /* \"#utility.yul\":5629:5635   */\n      dup3\n        /* \"#utility.yul\":5618:5627   */\n      dup6\n        /* \"#utility.yul\":5614:5636   */\n      add\n        /* \"#utility.yul\":5583:5646   */\n      tag_90\n      jump\t// in\n    tag_172:\n        /* \"#utility.yul\":5573:5646   */\n      swap2\n      pop\n        /* \"#utility.yul\":5369:5656   */\n      pop\n        /* \"#utility.yul\":5154:5663   */\n      swap3\n      swap2\n      pop\n      pop\n      jump\t// out\n        /* \"#utility.yul\":5669:5849   */\n    tag_91:\n        /* \"#utility.yul\":5717:5794   */\n      0x4e487b7100000000000000000000000000000000000000000000000000000000\n        /* \"#utility.yul\":5714:5715   */\n      0x00\n        /* \"#utility.yul\":5707:5795   */\n      mstore\n        /* \"#utility.yul\":5814:5818   */\n      0x22\n        /* \"#utility.yul\":5811:5812   */\n      0x04\n        /* \"#utility.yul\":5804:5819   */\n      mstore\n        /* \"#utility.yul\":5838:5842   */\n      0x24\n        /* \"#utility.yul\":5835:5836   */\n      0x00\n        /* \"#utility.yul\":5828:5843   */\n      revert\n        /* \"#utility.yul\":5855:6175   */\n    tag_34:\n        /* \"#utility.yul\":5899:5905   */\n      0x00\n        /* \"#utility.yul\":5936:5937   */\n      0x02\n        /* \"#utility.yul\":5930:5934   */\n      dup3\n        /* \"#utility.yul\":5926:5938   */\n      div\n        /* \"#utility.yul\":5916:5938   */\n      swap1\n      pop\n        /* \"#utility.yul\":5983:5984   */\n      0x01\n        /* \"#utility.yul\":5977:5981   */\n      dup3\n        /* \"#utility.yul\":5973:5985   */\n      and\n        /* \"#utility.yul\":6004:6022   */\n      dup1\n        /* \"#utility.yul\":5994:6075   */\n      tag_175\n      jumpi\n        /* \"#utility.yul\":6060:6064   */\n      0x7f\n        /* \"#utility.yul\":6052:6058   */\n      dup3\n        /* \"#utility.yul\":6048:6065   */\n      and\n        /* \"#utility.yul\":6038:6065   */\n      swap2\n      pop\n        /* \"#utility.yul\":5994:6075   */\n    tag_175:\n        /* \"#utility.yul\":6122:6124   */\n      0x20\n        /* \"#utility.yul\":6114:6120   */\n      dup3\n        /* \"#utility.yul\":6111:6125   */\n      lt\n        /* \"#utility.yul\":6091:6109   */\n      dup2\n        /* \"#utility.yul\":6088:6126   */\n      sub\n        /* \"#utility.yul\":6085:6169   */\n      tag_176\n      jumpi\n        /* \"#utility.yul\":6141:6159   */\n      tag_177\n      tag_91\n      jump\t// in\n    tag_177:\n        /* \"#utility.yul\":6085:6169   */\n    tag_176:\n        /* \"#utility.yul\":5906:6175   */\n      pop\n        /* \"#utility.yul\":5855:6175   */\n      swap2\n      swap1\n      pop\n      jump\t// out\n        /* \"#utility.yul\":6181:6351   */\n    tag_92:\n        /* \"#utility.yul\":6321:6343   */\n      0x5573657220646f6573206e6f7420657869737421000000000000000000000000\n        /* \"#utility.yul\":6317:6318   */\n      0x00\n        /* \"#utility.yul\":6309:6315   */\n      dup3\n        /* \"#utility.yul\":6305:6319   */\n      add\n        /* \"#utility.yul\":6298:6344   */\n      mstore\n        /* \"#utility.yul\":6181:6351   */\n      pop\n      jump\t// out\n        /* \"#utility.yul\":6357:6723   */\n    tag_93:\n        /* \"#utility.yul\":6499:6502   */\n      0x00\n        /* \"#utility.yul\":6520:6587   */\n      tag_180\n        /* \"#utility.yul\":6584:6586   */\n      0x14\n        /* \"#utility.yul\":6579:6582   */\n      dup4\n        /* \"#utility.yul\":6520:6587   */\n      tag_78\n      jump\t// in\n    tag_180:\n        /* \"#utility.yul\":6513:6587   */\n      swap2\n      pop\n        /* \"#utility.yul\":6596:6689   */\n      tag_181\n        /* \"#utility.yul\":6685:6688   */\n      dup3\n        /* \"#utility.yul\":6596:6689   */\n      tag_92\n      jump\t// in\n    tag_181:\n        /* \"#utility.yul\":6714:6716   */\n      0x20\n        /* \"#utility.yul\":6709:6712   */\n      dup3\n        /* \"#utility.yul\":6705:6717   */\n      add\n        /* \"#utility.yul\":6698:6717   */\n      swap1\n      pop\n        /* \"#utility.yul\":6357:6723   */\n      swap2\n      swap1\n      pop\n      jump\t// out\n        /* \"#utility.yul\":6729:7148   */\n    tag_42:\n        /* \"#utility.yul\":6895:6899   */\n      0x00\n        /* \"#utility.yul\":6933:6935   */\n      0x20\n        /* \"#utility.yul\":6922:6931   */\n      dup3\n        /* \"#utility.yul\":6918:6936   */\n      add\n        /* \"#utility.yul\":6910:6936   */\n      swap1\n      pop\n        /* \"#utility.yul\":6982:6991   */\n      dup2\n        /* \"#utility.yul\":6976:6980   */\n      dup2\n        /* \"#utility.yul\":6972:6992   */\n      sub\n        /* \"#utility.yul\":6968:6969   */\n      0x00\n        /* \"#utility.yul\":6957:6966   */\n      dup4\n        /* \"#utility.yul\":6953:6970   */\n      add\n        /* \"#utility.yul\":6946:6993   */\n      mstore\n        /* \"#utility.yul\":7010:7141   */\n      tag_183\n        /* \"#utility.yul\":7136:7140   */\n      dup2\n        /* \"#utility.yul\":7010:7141   */\n      tag_93\n      jump\t// in\n    tag_183:\n        /* \"#utility.yul\":7002:7141   */\n      swap1\n      pop\n        /* \"#utility.yul\":6729:7148   */\n      swap2\n      swap1\n      pop\n      jump\t// out\n        /* \"#utility.yul\":7154:7334   */\n    tag_45:\n        /* \"#utility.yul\":7202:7279   */\n      0x4e487b7100000000000000000000000000000000000000000000000000000000\n        /* \"#utility.yul\":7199:7200   */\n      0x00\n        /* \"#utility.yul\":7192:7280   */\n      mstore\n        /* \"#utility.yul\":7299:7303   */\n      0x32\n        /* \"#utility.yul\":7296:7297   */\n      0x04\n        /* \"#utility.yul\":7289:7304   */\n      mstore\n        /* \"#utility.yul\":7323:7327   */\n      0x24\n        /* \"#utility.yul\":7320:7321   */\n      0x00\n        /* \"#utility.yul\":7313:7328   */\n      revert\n        /* \"#utility.yul\":7340:7481   */\n    tag_94:\n        /* \"#utility.yul\":7389:7393   */\n      0x00\n        /* \"#utility.yul\":7412:7415   */\n      dup2\n        /* \"#utility.yul\":7404:7415   */\n      swap1\n      pop\n        /* \"#utility.yul\":7435:7438   */\n      dup2\n        /* \"#utility.yul\":7432:7433   */\n      0x00\n        /* \"#utility.yul\":7425:7439   */\n      mstore\n        /* \"#utility.yul\":7469:7473   */\n      0x20\n        /* \"#utility.yul\":7466:7467   */\n      0x00\n        /* \"#utility.yul\":7456:7474   */\n      keccak256\n        /* \"#utility.yul\":7448:7474   */\n      swap1\n      pop\n        /* \"#utility.yul\":7340:7481   */\n      swap2\n      swap1\n      pop\n      jump\t// out\n        /* \"#utility.yul\":7487:7580   */\n    tag_95:\n        /* \"#utility.yul\":7524:7530   */\n      0x00\n        /* \"#utility.yul\":7571:7573   */\n      0x20\n        /* \"#utility.yul\":7566:7568   */\n      0x1f\n        /* \"#utility.yul\":7559:7564   */\n      dup4\n        /* \"#utility.yul\":7555:7569   */\n      add\n        /* \"#utility.yul\":7551:7574   */\n      div\n        /* \"#utility.yul\":7541:7574   */\n      swap1\n      pop\n        /* \"#utility.yul\":7487:7580   */\n      swap2\n      swap1\n      pop\n      jump\t// out\n        /* \"#utility.yul\":7586:7693   */\n    tag_96:\n        /* \"#utility.yul\":7630:7638   */\n      0x00\n        /* \"#utility.yul\":7680:7685   */\n      dup3\n        /* \"#utility.yul\":7674:7678   */\n      dup3\n        /* \"#utility.yul\":7670:7686   */\n      shl\n        /* \"#utility.yul\":7649:7686   */\n      swap1\n      pop\n        /* \"#utility.yul\":7586:7693   */\n      swap3\n      swap2\n      pop\n      pop\n      jump\t// out\n        /* \"#utility.yul\":7699:8092   */\n    tag_97:\n        /* \"#utility.yul\":7768:7774   */\n      0x00\n        /* \"#utility.yul\":7818:7819   */\n      0x08\n        /* \"#utility.yul\":7806:7816   */\n      dup4\n        /* \"#utility.yul\":7802:7820   */\n      mul\n        /* \"#utility.yul\":7841:7938   */\n      tag_189\n        /* \"#utility.yul\":7871:7937   */\n      0xffffffffffffffffffffffffffffffffffffffffffffffffffffffffffffffff\n        /* \"#utility.yul\":7860:7869   */\n      dup3\n        /* \"#utility.yul\":7841:7938   */\n      tag_96\n      jump\t// in\n    tag_189:\n        /* \"#utility.yul\":7959:7998   */\n      tag_190\n        /* \"#utility.yul\":7989:7997   */\n      dup7\n        /* \"#utility.yul\":7978:7987   */\n      dup4\n        /* \"#utility.yul\":7959:7998   */\n      tag_96\n      jump\t// in\n    tag_190:\n        /* \"#utility.yul\":7947:7998   */\n      swap6\n      pop\n        /* \"#utility.yul\":8031:8035   */\n      dup1\n        /* \"#utility.yul\":8027:8036   */\n      not\n        /* \"#utility.yul\":8020:8025   */\n      dup5\n        /* \"#utility.yul\":8016:8037   */\n      and\n        /* \"#utility.yul\":8007:8037   */\n      swap4\n      pop\n        /* \"#utility.yul\":8080:8084   */\n      dup1\n        /* \"#utility.yul\":8070:8078   */\n      dup7\n        /* \"#utility.yul\":8066:8085   */\n      and\n        /* \"#utility.yul\":8059:8064   */\n      dup5\n        /* \"#utility.yul\":8056:8086   */\n      or\n        /* \"#utility.yul\":8046:8086   */\n      swap3\n      pop\n        /* \"#utility.yul\":7775:8092   */\n      pop\n      pop\n        /* \"#utility.yul\":7699:8092   */\n      swap4\n      swap3\n      pop\n      pop\n      pop\n      jump\t// out\n        /* \"#utility.yul\":8098:8158   */\n    tag_98:\n        /* \"#utility.yul\":8126:8129   */\n      0x00\n        /* \"#utility.yul\":8147:8152   */\n      dup2\n        /* \"#utility.yul\":8140:8152   */\n      swap1\n      pop\n        /* \"#utility.yul\":8098:8158   */\n      swap2\n      swap1\n      pop\n      jump\t// out\n        /* \"#utility.yul\":8164:8306   */\n    tag_99:\n        /* \"#utility.yul\":8214:8223   */\n      0x00\n        /* \"#utility.yul\":8247:8300   */\n      tag_193\n        /* \"#utility.yul\":8265:8299   */\n      tag_194\n        /* \"#utility.yul\":8274:8298   */\n      tag_195\n        /* \"#utility.yul\":8292:8297   */\n      dup5\n        /* \"#utility.yul\":8274:8298   */\n      tag_73\n      jump\t// in\n    tag_195:\n        /* \"#utility.yul\":8265:8299   */\n      tag_98\n      jump\t// in\n    tag_194:\n        /* \"#utility.yul\":8247:8300   */\n      tag_73\n      jump\t// in\n    tag_193:\n        /* \"#utility.yul\":8234:8300   */\n      swap1\n      pop\n        /* \"#utility.yul\":8164:8306   */\n      swap2\n      swap1\n      pop\n      jump\t// out\n        /* \"#utility.yul\":8312:8387   */\n    tag_100:\n        /* \"#utility.yul\":8355:8358   */\n      0x00\n        /* \"#utility.yul\":8376:8381   */\n      dup2\n        /* \"#utility.yul\":8369:8381   */\n      swap1\n      pop\n        /* \"#utility.yul\":8312:8387   */\n      swap2\n      swap1\n      pop\n      jump\t// out\n        /* \"#utility.yul\":8393:8662   */\n    tag_101:\n        /* \"#utility.yul\":8503:8542   */\n      tag_198\n        /* \"#utility.yul\":8534:8541   */\n      dup4\n        /* \"#utility.yul\":8503:8542   */\n      tag_99\n      jump\t// in\n    tag_198:\n        /* \"#utility.yul\":8564:8655   */\n      tag_199\n        /* \"#utility.yul\":8613:8654   */\n      tag_200\n        /* \"#utility.yul\":8637:8653   */\n      dup3\n        /* \"#utility.yul\":8613:8654   */\n      tag_100\n      jump\t// in\n    tag_200:\n        /* \"#utility.yul\":8605:8611   */\n      dup5\n        /* \"#utility.yul\":8598:8602   */\n      dup5\n        /* \"#utility.yul\":8592:8603   */\n      sload\n        /* \"#utility.yul\":8564:8655   */\n      tag_97\n      jump\t// in\n    tag_199:\n        /* \"#utility.yul\":8558:8562   */\n      dup3\n        /* \"#utility.yul\":8551:8656   */\n      sstore\n        /* \"#utility.yul\":8469:8662   */\n      pop\n        /* \"#utility.yul\":8393:8662   */\n      pop\n      pop\n      pop\n      jump\t// out\n        /* \"#utility.yul\":8668:8741   */\n    tag_102:\n        /* \"#utility.yul\":8713:8716   */\n      0x00\n        /* \"#utility.yul\":8668:8741   */\n      swap1\n      jump\t// out\n        /* \"#utility.yul\":8747:8936   */\n    tag_103:\n        /* \"#utility.yul\":8824:8856   */\n      tag_203\n      tag_102\n      jump\t// in\n    tag_203:\n        /* \"#utility.yul\":8865:8930   */\n      tag_204\n        /* \"#utility.yul\":8923:8929   */\n      dup2\n        /* \"#utility.yul\":8915:8921   */\n      dup5\n        /* \"#utility.yul\":8909:8913   */\n      dup5\n        /* \"#utility.yul\":8865:8930   */\n      tag_101\n      jump\t// in\n    tag_204:\n        /* \"#utility.yul\":8800:8936   */\n      pop\n        /* \"#utility.yul\":8747:8936   */\n      pop\n      pop\n      jump\t// out\n        /* \"#utility.yul\":8942:9128   */\n    tag_104:\n        /* \"#utility.yul\":9002:9122   */\n    tag_206:\n        /* \"#utility.yul\":9019:9022   */\n      dup2\n        /* \"#utility.yul\":9012:9017   */\n      dup2\n        /* \"#utility.yul\":9009:9023   */\n      lt\n        /* \"#utility.yul\":9002:9122   */\n      iszero\n      tag_208\n      jumpi\n        /* \"#utility.yul\":9073:9112   */\n      tag_209\n        /* \"#utility.yul\":9110:9111   */\n      0x00\n        /* \"#utility.yul\":9103:9108   */\n      dup3\n        /* \"#utility.yul\":9073:9112   */\n      tag_103\n      jump\t// in\n    tag_209:\n        /* \"#utility.yul\":9046:9047   */\n      0x01\n        /* \"#utility.yul\":9039:9044   */\n      dup2\n        /* \"#utility.yul\":9035:9048   */\n      add\n        /* \"#utility.yul\":9026:9048   */\n      swap1\n      pop\n        /* \"#utility.yul\":9002:9122   */\n      jump(tag_206)\n    tag_208:\n        /* \"#utility.yul\":8942:9128   */\n      pop\n      pop\n      jump\t// out\n        /* \"#utility.yul\":9134:9677   */\n    tag_105:\n        /* \"#utility.yul\":9235:9237   */\n      0x1f\n        /* \"#utility.yul\":9230:9233   */\n      dup3\n        /* \"#utility.yul\":9227:9238   */\n      gt\n        /* \"#utility.yul\":9224:9670   */\n      iszero\n      tag_211\n      jumpi\n        /* \"#utility.yul\":9269:9307   */\n      tag_212\n        /* \"#utility.yul\":9301:9306   */\n      dup2\n        /* \"#utility.yul\":9269:9307   */\n      tag_94\n      jump\t// in\n    tag_212:\n        /* \"#utility.yul\":9353:9382   */\n      tag_213\n        /* \"#utility.yul\":9371:9381   */\n      dup5\n        /* \"#utility.yul\":9353:9382   */\n      tag_95\n      jump\t// in\n    tag_213:\n        /* \"#utility.yul\":9343:9351   */\n      dup2\n        /* \"#utility.yul\":9339:9383   */\n      add\n        /* \"#utility.yul\":9536:9538   */\n      0x20\n        /* \"#utility.yul\":9524:9534   */\n      dup6\n        /* \"#utility.yul\":9521:9539   */\n      lt\n        /* \"#utility.yul\":9518:9567   */\n      iszero\n      tag_214\n      jumpi\n        /* \"#utility.yul\":9557:9565   */\n      dup2\n        /* \"#utility.yul\":9542:9565   */\n      swap1\n      pop\n        /* \"#utility.yul\":9518:9567   */\n    tag_214:\n        /* \"#utility.yul\":9580:9660   */\n      tag_215\n        /* \"#utility.yul\":9636:9658   */\n      tag_216\n        /* \"#utility.yul\":9654:9657   */\n      dup6\n        /* \"#utility.yul\":9636:9658   */\n      tag_95\n      jump\t// in\n    tag_216:\n        /* \"#utility.yul\":9626:9634   */\n      dup4\n        /* \"#utility.yul\":9622:9659   */\n      add\n        /* \"#utility.yul\":9609:9620   */\n      dup3\n        /* \"#utility.yul\":9580:9660   */\n      tag_104\n      jump\t// in\n    tag_215:\n        /* \"#utility.yul\":9239:9670   */\n      pop\n      pop\n        /* \"#utility.yul\":9224:9670   */\n    tag_211:\n        /* \"#utility.yul\":9134:9677   */\n      pop\n      pop\n      pop\n      jump\t// out\n        /* \"#utility.yul\":9683:9800   */\n    tag_106:\n        /* \"#utility.yul\":9737:9745   */\n      0x00\n        /* \"#utility.yul\":9787:9792   */\n      dup3\n        /* \"#utility.yul\":9781:9785   */\n      dup3\n        /* \"#utility.yul\":9777:9793   */\n      shr\n        /* \"#utility.yul\":9756:9793   */\n      swap1\n      pop\n        /* \"#utility.yul\":9683:9800   */\n      swap3\n      swap2\n      pop\n      pop\n      jump\t// out\n        /* \"#utility.yul\":9806:9975   */\n    tag_107:\n        /* \"#utility.yul\":9850:9856   */\n      0x00\n        /* \"#utility.yul\":9883:9934   */\n      tag_219\n        /* \"#utility.yul\":9931:9932   */\n      0x00\n        /* \"#utility.yul\":9927:9933   */\n      not\n        /* \"#utility.yul\":9919:9924   */\n      dup5\n        /* \"#utility.yul\":9916:9917   */\n      0x08\n        /* \"#utility.yul\":9912:9925   */\n      mul\n        /* \"#utility.yul\":9883:9934   */\n      tag_106\n      jump\t// in\n    tag_219:\n        /* \"#utility.yul\":9879:9935   */\n      not\n        /* \"#utility.yul\":9964:9968   */\n      dup1\n        /* \"#utility.yul\":9958:9962   */\n      dup4\n        /* \"#utility.yul\":9954:9969   */\n      and\n        /* \"#utility.yul\":9944:9969   */\n      swap2\n      pop\n        /* \"#utility.yul\":9857:9975   */\n      pop\n        /* \"#utility.yul\":9806:9975   */\n      swap3\n      swap2\n      pop\n      pop\n      jump\t// out\n        /* \"#utility.yul\":9980:10275   */\n    tag_108:\n        /* \"#utility.yul\":10056:10060   */\n      0x00\n        /* \"#utility.yul\":10202:10231   */\n      tag_221\n        /* \"#utility.yul\":10227:10230   */\n      dup4\n        /* \"#utility.yul\":10221:10225   */\n      dup4\n        /* \"#utility.yul\":10202:10231   */\n      tag_107\n      jump\t// in\n    tag_221:\n        /* \"#utility.yul\":10194:10231   */\n      swap2\n      pop\n        /* \"#utility.yul\":10264:10267   */\n      dup3\n        /* \"#utility.yul\":10261:10262   */\n      0x02\n        /* \"#utility.yul\":10257:10268   */\n      mul\n        /* \"#utility.yul\":10251:10255   */\n      dup3\n        /* \"#utility.yul\":10248:10269   */\n      or\n        /* \"#utility.yul\":10240:10269   */\n      swap1\n      pop\n        /* \"#utility.yul\":9980:10275   */\n      swap3\n      swap2\n      pop\n      pop\n      jump\t// out\n        /* \"#utility.yul\":10280:11675   */\n    tag_55:\n        /* \"#utility.yul\":10397:10434   */\n      tag_223\n        /* \"#utility.yul\":10430:10433   */\n      dup3\n        /* \"#utility.yul\":10397:10434   */\n      tag_77\n      jump\t// in\n    tag_223:\n        /* \"#utility.yul\":10499:10517   */\n      0xffffffffffffffff\n        /* \"#utility.yul\":10491:10497   */\n      dup2\n        /* \"#utility.yul\":10488:10518   */\n      gt\n        /* \"#utility.yul\":10485:10541   */\n      iszero\n      tag_224\n      jumpi\n        /* \"#utility.yul\":10521:10539   */\n      tag_225\n      tag_84\n      jump\t// in\n    tag_225:\n        /* \"#utility.yul\":10485:10541   */\n    tag_224:\n        /* \"#utility.yul\":10565:10603   */\n      tag_226\n        /* \"#utility.yul\":10597:10601   */\n      dup3\n        /* \"#utility.yul\":10591:10602   */\n      sload\n        /* \"#utility.yul\":10565:10603   */\n      tag_34\n      jump\t// in\n    tag_226:\n        /* \"#utility.yul\":10650:10717   */\n      tag_227\n        /* \"#utility.yul\":10710:10716   */\n      dup3\n        /* \"#utility.yul\":10702:10708   */\n      dup3\n        /* \"#utility.yul\":10696:10700   */\n      dup6\n        /* \"#utility.yul\":10650:10717   */\n      tag_105\n      jump\t// in\n    tag_227:\n        /* \"#utility.yul\":10744:10745   */\n      0x00\n        /* \"#utility.yul\":10768:10772   */\n      0x20\n        /* \"#utility.yul\":10755:10772   */\n      swap1\n      pop\n        /* \"#utility.yul\":10800:10802   */\n      0x1f\n        /* \"#utility.yul\":10792:10798   */\n      dup4\n        /* \"#utility.yul\":10789:10803   */\n      gt\n        /* \"#utility.yul\":10817:10818   */\n      0x01\n        /* \"#utility.yul\":10812:11430   */\n      dup2\n      eq\n      tag_229\n      jumpi\n        /* \"#utility.yul\":11474:11475   */\n      0x00\n        /* \"#utility.yul\":11491:11497   */\n      dup5\n        /* \"#utility.yul\":11488:11565   */\n      iszero\n      tag_230\n      jumpi\n        /* \"#utility.yul\":11540:11549   */\n      dup3\n        /* \"#utility.yul\":11535:11538   */\n      dup8\n        /* \"#utility.yul\":11531:11550   */\n      add\n        /* \"#utility.yul\":11525:11551   */\n      mload\n        /* \"#utility.yul\":11516:11551   */\n      swap1\n      pop\n        /* \"#utility.yul\":11488:11565   */\n    tag_230:\n        /* \"#utility.yul\":11591:11658   */\n      tag_231\n        /* \"#utility.yul\":11651:11657   */\n      dup6\n        /* \"#utility.yul\":11644:11649   */\n      dup3\n        /* \"#utility.yul\":11591:11658   */\n      tag_108\n      jump\t// in\n    tag_231:\n        /* \"#utility.yul\":11585:11589   */\n      dup7\n        /* \"#utility.yul\":11578:11659   */\n      sstore\n        /* \"#utility.yul\":11447:11669   */\n      pop\n        /* \"#utility.yul\":10782:11669   */\n      jump(tag_228)\n        /* \"#utility.yul\":10812:11430   */\n    tag_229:\n        /* \"#utility.yul\":10864:10868   */\n      0x1f\n        /* \"#utility.yul\":10860:10869   */\n      not\n        /* \"#utility.yul\":10852:10858   */\n      dup5\n        /* \"#utility.yul\":10848:10870   */\n      and\n        /* \"#utility.yul\":10898:10935   */\n      tag_232\n        /* \"#utility.yul\":10930:10934   */\n      dup7\n        /* \"#utility.yul\":10898:10935   */\n      tag_94\n      jump\t// in\n    tag_232:\n        /* \"#utility.yul\":10957:10958   */\n      0x00\n        /* \"#utility.yul\":10971:11179   */\n    tag_233:\n        /* \"#utility.yul\":10985:10992   */\n      dup3\n        /* \"#utility.yul\":10982:10983   */\n      dup2\n        /* \"#utility.yul\":10979:10993   */\n      lt\n        /* \"#utility.yul\":10971:11179   */\n      iszero\n      tag_235\n      jumpi\n        /* \"#utility.yul\":11064:11073   */\n      dup5\n        /* \"#utility.yul\":11059:11062   */\n      dup10\n        /* \"#utility.yul\":11055:11074   */\n      add\n        /* \"#utility.yul\":11049:11075   */\n      mload\n        /* \"#utility.yul\":11041:11047   */\n      dup3\n        /* \"#utility.yul\":11034:11076   */\n      sstore\n        /* \"#utility.yul\":11115:11116   */\n      0x01\n        /* \"#utility.yul\":11107:11113   */\n      dup3\n        /* \"#utility.yul\":11103:11117   */\n      add\n        /* \"#utility.yul\":11093:11117   */\n      swap2\n      pop\n        /* \"#utility.yul\":11162:11164   */\n      0x20\n        /* \"#utility.yul\":11151:11160   */\n      dup6\n        /* \"#utility.yul\":11147:11165   */\n      add\n        /* \"#utility.yul\":11134:11165   */\n      swap5\n      pop\n        /* \"#utility.yul\":11008:11012   */\n      0x20\n        /* \"#utility.yul\":11005:11006   */\n      dup2\n        /* \"#utility.yul\":11001:11013   */\n      add\n        /* \"#utility.yul\":10996:11013   */\n      swap1\n      pop\n        /* \"#utility.yul\":10971:11179   */\n      jump(tag_233)\n    tag_235:\n        /* \"#utility.yul\":11207:11213   */\n      dup7\n        /* \"#utility.yul\":11198:11205   */\n      dup4\n        /* \"#utility.yul\":11195:11214   */\n      lt\n        /* \"#utility.yul\":11192:11371   */\n      iszero\n      tag_236\n      jumpi\n        /* \"#utility.yul\":11265:11274   */\n      dup5\n        /* \"#utility.yul\":11260:11263   */\n      dup10\n        /* \"#utility.yul\":11256:11275   */\n      add\n        /* \"#utility.yul\":11250:11276   */\n      mload\n        /* \"#utility.yul\":11308:11356   */\n      tag_237\n        /* \"#utility.yul\":11350:11354   */\n      0x1f\n        /* \"#utility.yul\":11342:11348   */\n      dup10\n        /* \"#utility.yul\":11338:11355   */\n      and\n        /* \"#utility.yul\":11327:11336   */\n      dup3\n        /* \"#utility.yul\":11308:11356   */\n      tag_107\n      jump\t// in\n    tag_237:\n        /* \"#utility.yul\":11300:11306   */\n      dup4\n        /* \"#utility.yul\":11293:11357   */\n      sstore\n        /* \"#utility.yul\":11215:11371   */\n      pop\n        /* \"#utility.yul\":11192:11371   */\n    tag_236:\n        /* \"#utility.yul\":11417:11418   */\n      0x01\n        /* \"#utility.yul\":11413:11414   */\n      0x02\n        /* \"#utility.yul\":11405:11411   */\n      dup9\n        /* \"#utility.yul\":11401:11415   */\n      mul\n        /* \"#utility.yul\":11397:11419   */\n      add\n        /* \"#utility.yul\":11391:11395   */\n      dup9\n        /* \"#utility.yul\":11384:11420   */\n      sstore\n        /* \"#utility.yul\":10819:11430   */\n      pop\n      pop\n      pop\n        /* \"#utility.yul\":10782:11669   */\n    tag_228:\n      pop\n        /* \"#utility.yul\":10372:11675   */\n      pop\n      pop\n      pop\n        /* \"#utility.yul\":10280:11675   */\n      pop\n      pop\n      jump\t// out\n        /* \"#utility.yul\":11681:11861   */\n    tag_109:\n        /* \"#utility.yul\":11729:11806   */\n      0x4e487b7100000000000000000000000000000000000000000000000000000000\n        /* \"#utility.yul\":11726:11727   */\n      0x00\n        /* \"#utility.yul\":11719:11807   */\n      mstore\n        /* \"#utility.yul\":11826:11830   */\n      0x11\n        /* \"#utility.yul\":11823:11824   */\n      0x04\n        /* \"#utility.yul\":11816:11831   */\n      mstore\n        /* \"#utility.yul\":11850:11854   */\n      0x24\n        /* \"#utility.yul\":11847:11848   */\n      0x00\n        /* \"#utility.yul\":11840:11855   */\n      revert\n        /* \"#utility.yul\":11867:12100   */\n    tag_57:\n        /* \"#utility.yul\":11906:11909   */\n      0x00\n        /* \"#utility.yul\":11929:11953   */\n      tag_240\n        /* \"#utility.yul\":11947:11952   */\n      dup3\n        /* \"#utility.yul\":11929:11953   */\n      tag_73\n      jump\t// in\n    tag_240:\n        /* \"#utility.yul\":11920:11953   */\n      swap2\n      pop\n        /* \"#utility.yul\":11975:12041   */\n      0xffffffffffffffffffffffffffffffffffffffffffffffffffffffffffffffff\n        /* \"#utility.yul\":11968:11973   */\n      dup3\n        /* \"#utility.yul\":11965:12042   */\n      sub\n        /* \"#utility.yul\":11962:12065   */\n      tag_241\n      jumpi\n        /* \"#utility.yul\":12045:12063   */\n      tag_242\n      tag_109\n      jump\t// in\n    tag_242:\n        /* \"#utility.yul\":11962:12065   */\n    tag_241:\n        /* \"#utility.yul\":12092:12093   */\n      0x01\n        /* \"#utility.yul\":12085:12090   */\n      dup3\n        /* \"#utility.yul\":12081:12094   */\n      add\n        /* \"#utility.yul\":12074:12094   */\n      swap1\n      pop\n        /* \"#utility.yul\":11867:12100   */\n      swap2\n      swap1\n      pop\n      jump\t// out\n\n    auxdata: 0xa26469706673582212208c834e2632b2dab9782afbe21ce241aa4e15a2f45f45d31efa5243122c07e11d64736f6c634300081a0033\n}\n",
				"bytecode": {
					"linkReferences": {},
					"object": "60806040525f6001553480156012575f80fd5b50610af7806100205f395ff3fe608060405234801561000f575f80fd5b5060043610610055575f3560e01c8063365b98b2146100595780633e530e5b1461008a57806361bc221a146100ba578063b1498e29146100d8578063ed2e5a97146100f4575b5f80fd5b610073600480360381019061006e919061046b565b610125565b604051610081929190610515565b60405180910390f35b6100a4600480360381019061009f919061046b565b6101d9565b6040516100b19190610543565b60405180910390f35b6100c26102cf565b6040516100cf9190610563565b60405180910390f35b6100f260048036038101906100ed91906106a8565b6102d5565b005b61010e6004803603810190610109919061046b565b61034d565b60405161011c929190610515565b60405180910390f35b5f8181548110610133575f80fd5b905f5260205f2090600202015f91509050805f0154908060010180546101589061071c565b80601f01602080910402602001604051908101604052809291908181526020018280546101849061071c565b80156101cf5780601f106101a6576101008083540402835291602001916101cf565b820191905f5260205f20905b8154815290600101906020018083116101b257829003601f168201915b5050505050905082565b6060600154821061021f576040517f08c379a000000000000000000000000000000000000000000000000000000000815260040161021690610796565b60405180910390fd5b5f8281548110610232576102316107b4565b5b905f5260205f209060020201600101805461024c9061071c565b80601f01602080910402602001604051908101604052809291908181526020018280546102789061071c565b80156102c35780601f1061029a576101008083540402835291602001916102c3565b820191905f5260205f20905b8154815290600101906020018083116102a657829003601f168201915b50505050509050919050565b60015481565b5f6040518060400160405280600154815260200183815250908060018154018082558091505060019003905f5260205f2090600202015f909190919091505f820151815f01556020820151816001019081610330919061097e565b50505060015f81548092919061034590610a7a565b919050555050565b5f60605f8381548110610363576103626107b4565b5b905f5260205f2090600202015f01545f8481548110610385576103846107b4565b5b905f5260205f2090600202016001018080546103a09061071c565b80601f01602080910402602001604051908101604052809291908181526020018280546103cc9061071c565b80156104175780601f106103ee57610100808354040283529160200191610417565b820191905f5260205f20905b8154815290600101906020018083116103fa57829003601f168201915b5050505050905091509150915091565b5f604051905090565b5f80fd5b5f80fd5b5f819050919050565b61044a81610438565b8114610454575f80fd5b50565b5f8135905061046581610441565b92915050565b5f602082840312156104805761047f610430565b5b5f61048d84828501610457565b91505092915050565b61049f81610438565b82525050565b5f81519050919050565b5f82825260208201905092915050565b8281835e5f83830152505050565b5f601f19601f8301169050919050565b5f6104e7826104a5565b6104f181856104af565b93506105018185602086016104bf565b61050a816104cd565b840191505092915050565b5f6040820190506105285f830185610496565b818103602083015261053a81846104dd565b90509392505050565b5f6020820190508181035f83015261055b81846104dd565b905092915050565b5f6020820190506105765f830184610496565b92915050565b5f80fd5b5f80fd5b7f4e487b71000000000000000000000000000000000000000000000000000000005f52604160045260245ffd5b6105ba826104cd565b810181811067ffffffffffffffff821117156105d9576105d8610584565b5b80604052505050565b5f6105eb610427565b90506105f782826105b1565b919050565b5f67ffffffffffffffff82111561061657610615610584565b5b61061f826104cd565b9050602081019050919050565b828183375f83830152505050565b5f61064c610647846105fc565b6105e2565b90508281526020810184848401111561066857610667610580565b5b61067384828561062c565b509392505050565b5f82601f83011261068f5761068e61057c565b5b813561069f84826020860161063a565b91505092915050565b5f602082840312156106bd576106bc610430565b5b5f82013567ffffffffffffffff8111156106da576106d9610434565b5b6106e68482850161067b565b91505092915050565b7f4e487b71000000000000000000000000000000000000000000000000000000005f52602260045260245ffd5b5f600282049050600182168061073357607f821691505b602082108103610746576107456106ef565b5b50919050565b7f5573657220646f6573206e6f74206578697374210000000000000000000000005f82015250565b5f6107806014836104af565b915061078b8261074c565b602082019050919050565b5f6020820190508181035f8301526107ad81610774565b9050919050565b7f4e487b71000000000000000000000000000000000000000000000000000000005f52603260045260245ffd5b5f819050815f5260205f209050919050565b5f6020601f8301049050919050565b5f82821b905092915050565b5f6008830261083d7fffffffffffffffffffffffffffffffffffffffffffffffffffffffffffffffff82610802565b6108478683610802565b95508019841693508086168417925050509392505050565b5f819050919050565b5f61088261087d61087884610438565b61085f565b610438565b9050919050565b5f819050919050565b61089b83610868565b6108af6108a782610889565b84845461080e565b825550505050565b5f90565b6108c36108b7565b6108ce818484610892565b505050565b5b818110156108f1576108e65f826108bb565b6001810190506108d4565b5050565b601f82111561093657610907816107e1565b610910846107f3565b8101602085101561091f578190505b61093361092b856107f3565b8301826108d3565b50505b505050565b5f82821c905092915050565b5f6109565f198460080261093b565b1980831691505092915050565b5f61096e8383610947565b9150826002028217905092915050565b610987826104a5565b67ffffffffffffffff8111156109a05761099f610584565b5b6109aa825461071c565b6109b58282856108f5565b5f60209050601f8311600181146109e6575f84156109d4578287015190505b6109de8582610963565b865550610a45565b601f1984166109f4866107e1565b5f5b82811015610a1b578489015182556001820191506020850194506020810190506109f6565b86831015610a385784890151610a34601f891682610947565b8355505b6001600288020188555050505b505050505050565b7f4e487b71000000000000000000000000000000000000000000000000000000005f52601160045260245ffd5b5f610a8482610438565b91507fffffffffffffffffffffffffffffffffffffffffffffffffffffffffffffffff8203610ab657610ab5610a4d565b5b60018201905091905056fea26469706673582212208c834e2632b2dab9782afbe21ce241aa4e15a2f45f45d31efa5243122c07e11d64736f6c634300081a0033",
					"opcodes": "PUSH1 0x80 PUSH1 0x40 MSTORE PUSH0 PUSH1 0x1 SSTORE CALLVALUE DUP1 ISZERO PUSH1 0x12 JUMPI PUSH0 DUP1 REVERT JUMPDEST POP PUSH2 0xAF7 DUP1 PUSH2 0x20 PUSH0 CODECOPY PUSH0 RETURN INVALID PUSH1 0x80 PUSH1 0x40 MSTORE CALLVALUE DUP1 ISZERO PUSH2 0xF JUMPI PUSH0 DUP1 REVERT JUMPDEST POP PUSH1 0x4 CALLDATASIZE LT PUSH2 0x55 JUMPI PUSH0 CALLDATALOAD PUSH1 0xE0 SHR DUP1 PUSH4 0x365B98B2 EQ PUSH2 0x59 JUMPI DUP1 PUSH4 0x3E530E5B EQ PUSH2 0x8A JUMPI DUP1 PUSH4 0x61BC221A EQ PUSH2 0xBA JUMPI DUP1 PUSH4 0xB1498E29 EQ PUSH2 0xD8 JUMPI DUP1 PUSH4 0xED2E5A97 EQ PUSH2 0xF4 JUMPI JUMPDEST PUSH0 DUP1 REVERT JUMPDEST PUSH2 0x73 PUSH1 0x4 DUP1 CALLDATASIZE SUB DUP2 ADD SWAP1 PUSH2 0x6E SWAP2 SWAP1 PUSH2 0x46B JUMP JUMPDEST PUSH2 0x125 JUMP JUMPDEST PUSH1 0x40 MLOAD PUSH2 0x81 SWAP3 SWAP2 SWAP1 PUSH2 0x515 JUMP JUMPDEST PUSH1 0x40 MLOAD DUP1 SWAP2 SUB SWAP1 RETURN JUMPDEST PUSH2 0xA4 PUSH1 0x4 DUP1 CALLDATASIZE SUB DUP2 ADD SWAP1 PUSH2 0x9F SWAP2 SWAP1 PUSH2 0x46B JUMP JUMPDEST PUSH2 0x1D9 JUMP JUMPDEST PUSH1 0x40 MLOAD PUSH2 0xB1 SWAP2 SWAP1 PUSH2 0x543 JUMP JUMPDEST PUSH1 0x40 MLOAD DUP1 SWAP2 SUB SWAP1 RETURN JUMPDEST PUSH2 0xC2 PUSH2 0x2CF JUMP JUMPDEST PUSH1 0x40 MLOAD PUSH2 0xCF SWAP2 SWAP1 PUSH2 0x563 JUMP JUMPDEST PUSH1 0x40 MLOAD DUP1 SWAP2 SUB SWAP1 RETURN JUMPDEST PUSH2 0xF2 PUSH1 0x4 DUP1 CALLDATASIZE SUB DUP2 ADD SWAP1 PUSH2 0xED SWAP2 SWAP1 PUSH2 0x6A8 JUMP JUMPDEST PUSH2 0x2D5 JUMP JUMPDEST STOP JUMPDEST PUSH2 0x10E PUSH1 0x4 DUP1 CALLDATASIZE SUB DUP2 ADD SWAP1 PUSH2 0x109 SWAP2 SWAP1 PUSH2 0x46B JUMP JUMPDEST PUSH2 0x34D JUMP JUMPDEST PUSH1 0x40 MLOAD PUSH2 0x11C SWAP3 SWAP2 SWAP1 PUSH2 0x515 JUMP JUMPDEST PUSH1 0x40 MLOAD DUP1 SWAP2 SUB SWAP1 RETURN JUMPDEST PUSH0 DUP2 DUP2 SLOAD DUP2 LT PUSH2 0x133 JUMPI PUSH0 DUP1 REVERT JUMPDEST SWAP1 PUSH0 MSTORE PUSH1 0x20 PUSH0 KECCAK256 SWAP1 PUSH1 0x2 MUL ADD PUSH0 SWAP2 POP SWAP1 POP DUP1 PUSH0 ADD SLOAD SWAP1 DUP1 PUSH1 0x1 ADD DUP1 SLOAD PUSH2 0x158 SWAP1 PUSH2 0x71C JUMP JUMPDEST DUP1 PUSH1 0x1F ADD PUSH1 0x20 DUP1 SWAP2 DIV MUL PUSH1 0x20 ADD PUSH1 0x40 MLOAD SWAP1 DUP2 ADD PUSH1 0x40 MSTORE DUP1 SWAP3 SWAP2 SWAP1 DUP2 DUP2 MSTORE PUSH1 0x20 ADD DUP3 DUP1 SLOAD PUSH2 0x184 SWAP1 PUSH2 0x71C JUMP JUMPDEST DUP1 ISZERO PUSH2 0x1CF JUMPI DUP1 PUSH1 0x1F LT PUSH2 0x1A6 JUMPI PUSH2 0x100 DUP1 DUP4 SLOAD DIV MUL DUP4 MSTORE SWAP2 PUSH1 0x20 ADD SWAP2 PUSH2 0x1CF JUMP JUMPDEST DUP3 ADD SWAP2 SWAP1 PUSH0 MSTORE PUSH1 0x20 PUSH0 KECCAK256 SWAP1 JUMPDEST DUP2 SLOAD DUP2 MSTORE SWAP1 PUSH1 0x1 ADD SWAP1 PUSH1 0x20 ADD DUP1 DUP4 GT PUSH2 0x1B2 JUMPI DUP3 SWAP1 SUB PUSH1 0x1F AND DUP3 ADD SWAP2 JUMPDEST POP POP POP POP POP SWAP1 POP DUP3 JUMP JUMPDEST PUSH1 0x60 PUSH1 0x1 SLOAD DUP3 LT PUSH2 0x21F JUMPI PUSH1 0x40 MLOAD PUSH32 0x8C379A000000000000000000000000000000000000000000000000000000000 DUP2 MSTORE PUSH1 0x4 ADD PUSH2 0x216 SWAP1 PUSH2 0x796 JUMP JUMPDEST PUSH1 0x40 MLOAD DUP1 SWAP2 SUB SWAP1 REVERT JUMPDEST PUSH0 DUP3 DUP2 SLOAD DUP2 LT PUSH2 0x232 JUMPI PUSH2 0x231 PUSH2 0x7B4 JUMP JUMPDEST JUMPDEST SWAP1 PUSH0 MSTORE PUSH1 0x20 PUSH0 KECCAK256 SWAP1 PUSH1 0x2 MUL ADD PUSH1 0x1 ADD DUP1 SLOAD PUSH2 0x24C SWAP1 PUSH2 0x71C JUMP JUMPDEST DUP1 PUSH1 0x1F ADD PUSH1 0x20 DUP1 SWAP2 DIV MUL PUSH1 0x20 ADD PUSH1 0x40 MLOAD SWAP1 DUP2 ADD PUSH1 0x40 MSTORE DUP1 SWAP3 SWAP2 SWAP1 DUP2 DUP2 MSTORE PUSH1 0x20 ADD DUP3 DUP1 SLOAD PUSH2 0x278 SWAP1 PUSH2 0x71C JUMP JUMPDEST DUP1 ISZERO PUSH2 0x2C3 JUMPI DUP1 PUSH1 0x1F LT PUSH2 0x29A JUMPI PUSH2 0x100 DUP1 DUP4 SLOAD DIV MUL DUP4 MSTORE SWAP2 PUSH1 0x20 ADD SWAP2 PUSH2 0x2C3 JUMP JUMPDEST DUP3 ADD SWAP2 SWAP1 PUSH0 MSTORE PUSH1 0x20 PUSH0 KECCAK256 SWAP1 JUMPDEST DUP2 SLOAD DUP2 MSTORE SWAP1 PUSH1 0x1 ADD SWAP1 PUSH1 0x20 ADD DUP1 DUP4 GT PUSH2 0x2A6 JUMPI DUP3 SWAP1 SUB PUSH1 0x1F AND DUP3 ADD SWAP2 JUMPDEST POP POP POP POP POP SWAP1 POP SWAP2 SWAP1 POP JUMP JUMPDEST PUSH1 0x1 SLOAD DUP2 JUMP JUMPDEST PUSH0 PUSH1 0x40 MLOAD DUP1 PUSH1 0x40 ADD PUSH1 0x40 MSTORE DUP1 PUSH1 0x1 SLOAD DUP2 MSTORE PUSH1 0x20 ADD DUP4 DUP2 MSTORE POP SWAP1 DUP1 PUSH1 0x1 DUP2 SLOAD ADD DUP1 DUP3 SSTORE DUP1 SWAP2 POP POP PUSH1 0x1 SWAP1 SUB SWAP1 PUSH0 MSTORE PUSH1 0x20 PUSH0 KECCAK256 SWAP1 PUSH1 0x2 MUL ADD PUSH0 SWAP1 SWAP2 SWAP1 SWAP2 SWAP1 SWAP2 POP PUSH0 DUP3 ADD MLOAD DUP2 PUSH0 ADD SSTORE PUSH1 0x20 DUP3 ADD MLOAD DUP2 PUSH1 0x1 ADD SWAP1 DUP2 PUSH2 0x330 SWAP2 SWAP1 PUSH2 0x97E JUMP JUMPDEST POP POP POP PUSH1 0x1 PUSH0 DUP2 SLOAD DUP1 SWAP3 SWAP2 SWAP1 PUSH2 0x345 SWAP1 PUSH2 0xA7A JUMP JUMPDEST SWAP2 SWAP1 POP SSTORE POP POP JUMP JUMPDEST PUSH0 PUSH1 0x60 PUSH0 DUP4 DUP2 SLOAD DUP2 LT PUSH2 0x363 JUMPI PUSH2 0x362 PUSH2 0x7B4 JUMP JUMPDEST JUMPDEST SWAP1 PUSH0 MSTORE PUSH1 0x20 PUSH0 KECCAK256 SWAP1 PUSH1 0x2 MUL ADD PUSH0 ADD SLOAD PUSH0 DUP5 DUP2 SLOAD DUP2 LT PUSH2 0x385 JUMPI PUSH2 0x384 PUSH2 0x7B4 JUMP JUMPDEST JUMPDEST SWAP1 PUSH0 MSTORE PUSH1 0x20 PUSH0 KECCAK256 SWAP1 PUSH1 0x2 MUL ADD PUSH1 0x1 ADD DUP1 DUP1 SLOAD PUSH2 0x3A0 SWAP1 PUSH2 0x71C JUMP JUMPDEST DUP1 PUSH1 0x1F ADD PUSH1 0x20 DUP1 SWAP2 DIV MUL PUSH1 0x20 ADD PUSH1 0x40 MLOAD SWAP1 DUP2 ADD PUSH1 0x40 MSTORE DUP1 SWAP3 SWAP2 SWAP1 DUP2 DUP2 MSTORE PUSH1 0x20 ADD DUP3 DUP1 SLOAD PUSH2 0x3CC SWAP1 PUSH2 0x71C JUMP JUMPDEST DUP1 ISZERO PUSH2 0x417 JUMPI DUP1 PUSH1 0x1F LT PUSH2 0x3EE JUMPI PUSH2 0x100 DUP1 DUP4 SLOAD DIV MUL DUP4 MSTORE SWAP2 PUSH1 0x20 ADD SWAP2 PUSH2 0x417 JUMP JUMPDEST DUP3 ADD SWAP2 SWAP1 PUSH0 MSTORE PUSH1 0x20 PUSH0 KECCAK256 SWAP1 JUMPDEST DUP2 SLOAD DUP2 MSTORE SWAP1 PUSH1 0x1 ADD SWAP1 PUSH1 0x20 ADD DUP1 DUP4 GT PUSH2 0x3FA JUMPI DUP3 SWAP1 SUB PUSH1 0x1F AND DUP3 ADD SWAP2 JUMPDEST POP POP POP POP POP SWAP1 POP SWAP2 POP SWAP2 POP SWAP2 POP SWAP2 JUMP JUMPDEST PUSH0 PUSH1 0x40 MLOAD SWAP1 POP SWAP1 JUMP JUMPDEST PUSH0 DUP1 REVERT JUMPDEST PUSH0 DUP1 REVERT JUMPDEST PUSH0 DUP2 SWAP1 POP SWAP2 SWAP1 POP JUMP JUMPDEST PUSH2 0x44A DUP2 PUSH2 0x438 JUMP JUMPDEST DUP2 EQ PUSH2 0x454 JUMPI PUSH0 DUP1 REVERT JUMPDEST POP JUMP JUMPDEST PUSH0 DUP2 CALLDATALOAD SWAP1 POP PUSH2 0x465 DUP2 PUSH2 0x441 JUMP JUMPDEST SWAP3 SWAP2 POP POP JUMP JUMPDEST PUSH0 PUSH1 0x20 DUP3 DUP5 SUB SLT ISZERO PUSH2 0x480 JUMPI PUSH2 0x47F PUSH2 0x430 JUMP JUMPDEST JUMPDEST PUSH0 PUSH2 0x48D DUP5 DUP3 DUP6 ADD PUSH2 0x457 JUMP JUMPDEST SWAP2 POP POP SWAP3 SWAP2 POP POP JUMP JUMPDEST PUSH2 0x49F DUP2 PUSH2 0x438 JUMP JUMPDEST DUP3 MSTORE POP POP JUMP JUMPDEST PUSH0 DUP2 MLOAD SWAP1 POP SWAP2 SWAP1 POP JUMP JUMPDEST PUSH0 DUP3 DUP3 MSTORE PUSH1 0x20 DUP3 ADD SWAP1 POP SWAP3 SWAP2 POP POP JUMP JUMPDEST DUP3 DUP2 DUP4 MCOPY PUSH0 DUP4 DUP4 ADD MSTORE POP POP POP JUMP JUMPDEST PUSH0 PUSH1 0x1F NOT PUSH1 0x1F DUP4 ADD AND SWAP1 POP SWAP2 SWAP1 POP JUMP JUMPDEST PUSH0 PUSH2 0x4E7 DUP3 PUSH2 0x4A5 JUMP JUMPDEST PUSH2 0x4F1 DUP2 DUP6 PUSH2 0x4AF JUMP JUMPDEST SWAP4 POP PUSH2 0x501 DUP2 DUP6 PUSH1 0x20 DUP7 ADD PUSH2 0x4BF JUMP JUMPDEST PUSH2 0x50A DUP2 PUSH2 0x4CD JUMP JUMPDEST DUP5 ADD SWAP2 POP POP SWAP3 SWAP2 POP POP JUMP JUMPDEST PUSH0 PUSH1 0x40 DUP3 ADD SWAP1 POP PUSH2 0x528 PUSH0 DUP4 ADD DUP6 PUSH2 0x496 JUMP JUMPDEST DUP2 DUP2 SUB PUSH1 0x20 DUP4 ADD MSTORE PUSH2 0x53A DUP2 DUP5 PUSH2 0x4DD JUMP JUMPDEST SWAP1 POP SWAP4 SWAP3 POP POP POP JUMP JUMPDEST PUSH0 PUSH1 0x20 DUP3 ADD SWAP1 POP DUP2 DUP2 SUB PUSH0 DUP4 ADD MSTORE PUSH2 0x55B DUP2 DUP5 PUSH2 0x4DD JUMP JUMPDEST SWAP1 POP SWAP3 SWAP2 POP POP JUMP JUMPDEST PUSH0 PUSH1 0x20 DUP3 ADD SWAP1 POP PUSH2 0x576 PUSH0 DUP4 ADD DUP5 PUSH2 0x496 JUMP JUMPDEST SWAP3 SWAP2 POP POP JUMP JUMPDEST PUSH0 DUP1 REVERT JUMPDEST PUSH0 DUP1 REVERT JUMPDEST PUSH32 0x4E487B7100000000000000000000000000000000000000000000000000000000 PUSH0 MSTORE PUSH1 0x41 PUSH1 0x4 MSTORE PUSH1 0x24 PUSH0 REVERT JUMPDEST PUSH2 0x5BA DUP3 PUSH2 0x4CD JUMP JUMPDEST DUP2 ADD DUP2 DUP2 LT PUSH8 0xFFFFFFFFFFFFFFFF DUP3 GT OR ISZERO PUSH2 0x5D9 JUMPI PUSH2 0x5D8 PUSH2 0x584 JUMP JUMPDEST JUMPDEST DUP1 PUSH1 0x40 MSTORE POP POP POP JUMP JUMPDEST PUSH0 PUSH2 0x5EB PUSH2 0x427 JUMP JUMPDEST SWAP1 POP PUSH2 0x5F7 DUP3 DUP3 PUSH2 0x5B1 JUMP JUMPDEST SWAP2 SWAP1 POP JUMP JUMPDEST PUSH0 PUSH8 0xFFFFFFFFFFFFFFFF DUP3 GT ISZERO PUSH2 0x616 JUMPI PUSH2 0x615 PUSH2 0x584 JUMP JUMPDEST JUMPDEST PUSH2 0x61F DUP3 PUSH2 0x4CD JUMP JUMPDEST SWAP1 POP PUSH1 0x20 DUP2 ADD SWAP1 POP SWAP2 SWAP1 POP JUMP JUMPDEST DUP3 DUP2 DUP4 CALLDATACOPY PUSH0 DUP4 DUP4 ADD MSTORE POP POP POP JUMP JUMPDEST PUSH0 PUSH2 0x64C PUSH2 0x647 DUP5 PUSH2 0x5FC JUMP JUMPDEST PUSH2 0x5E2 JUMP JUMPDEST SWAP1 POP DUP3 DUP2 MSTORE PUSH1 0x20 DUP2 ADD DUP5 DUP5 DUP5 ADD GT ISZERO PUSH2 0x668 JUMPI PUSH2 0x667 PUSH2 0x580 JUMP JUMPDEST JUMPDEST PUSH2 0x673 DUP5 DUP3 DUP6 PUSH2 0x62C JUMP JUMPDEST POP SWAP4 SWAP3 POP POP POP JUMP JUMPDEST PUSH0 DUP3 PUSH1 0x1F DUP4 ADD SLT PUSH2 0x68F JUMPI PUSH2 0x68E PUSH2 0x57C JUMP JUMPDEST JUMPDEST DUP2 CALLDATALOAD PUSH2 0x69F DUP5 DUP3 PUSH1 0x20 DUP7 ADD PUSH2 0x63A JUMP JUMPDEST SWAP2 POP POP SWAP3 SWAP2 POP POP JUMP JUMPDEST PUSH0 PUSH1 0x20 DUP3 DUP5 SUB SLT ISZERO PUSH2 0x6BD JUMPI PUSH2 0x6BC PUSH2 0x430 JUMP JUMPDEST JUMPDEST PUSH0 DUP3 ADD CALLDATALOAD PUSH8 0xFFFFFFFFFFFFFFFF DUP2 GT ISZERO PUSH2 0x6DA JUMPI PUSH2 0x6D9 PUSH2 0x434 JUMP JUMPDEST JUMPDEST PUSH2 0x6E6 DUP5 DUP3 DUP6 ADD PUSH2 0x67B JUMP JUMPDEST SWAP2 POP POP SWAP3 SWAP2 POP POP JUMP JUMPDEST PUSH32 0x4E487B7100000000000000000000000000000000000000000000000000000000 PUSH0 MSTORE PUSH1 0x22 PUSH1 0x4 MSTORE PUSH1 0x24 PUSH0 REVERT JUMPDEST PUSH0 PUSH1 0x2 DUP3 DIV SWAP1 POP PUSH1 0x1 DUP3 AND DUP1 PUSH2 0x733 JUMPI PUSH1 0x7F DUP3 AND SWAP2 POP JUMPDEST PUSH1 0x20 DUP3 LT DUP2 SUB PUSH2 0x746 JUMPI PUSH2 0x745 PUSH2 0x6EF JUMP JUMPDEST JUMPDEST POP SWAP2 SWAP1 POP JUMP JUMPDEST PUSH32 0x5573657220646F6573206E6F7420657869737421000000000000000000000000 PUSH0 DUP3 ADD MSTORE POP JUMP JUMPDEST PUSH0 PUSH2 0x780 PUSH1 0x14 DUP4 PUSH2 0x4AF JUMP JUMPDEST SWAP2 POP PUSH2 0x78B DUP3 PUSH2 0x74C JUMP JUMPDEST PUSH1 0x20 DUP3 ADD SWAP1 POP SWAP2 SWAP1 POP JUMP JUMPDEST PUSH0 PUSH1 0x20 DUP3 ADD SWAP1 POP DUP2 DUP2 SUB PUSH0 DUP4 ADD MSTORE PUSH2 0x7AD DUP2 PUSH2 0x774 JUMP JUMPDEST SWAP1 POP SWAP2 SWAP1 POP JUMP JUMPDEST PUSH32 0x4E487B7100000000000000000000000000000000000000000000000000000000 PUSH0 MSTORE PUSH1 0x32 PUSH1 0x4 MSTORE PUSH1 0x24 PUSH0 REVERT JUMPDEST PUSH0 DUP2 SWAP1 POP DUP2 PUSH0 MSTORE PUSH1 0x20 PUSH0 KECCAK256 SWAP1 POP SWAP2 SWAP1 POP JUMP JUMPDEST PUSH0 PUSH1 0x20 PUSH1 0x1F DUP4 ADD DIV SWAP1 POP SWAP2 SWAP1 POP JUMP JUMPDEST PUSH0 DUP3 DUP3 SHL SWAP1 POP SWAP3 SWAP2 POP POP JUMP JUMPDEST PUSH0 PUSH1 0x8 DUP4 MUL PUSH2 0x83D PUSH32 0xFFFFFFFFFFFFFFFFFFFFFFFFFFFFFFFFFFFFFFFFFFFFFFFFFFFFFFFFFFFFFFFF DUP3 PUSH2 0x802 JUMP JUMPDEST PUSH2 0x847 DUP7 DUP4 PUSH2 0x802 JUMP JUMPDEST SWAP6 POP DUP1 NOT DUP5 AND SWAP4 POP DUP1 DUP7 AND DUP5 OR SWAP3 POP POP POP SWAP4 SWAP3 POP POP POP JUMP JUMPDEST PUSH0 DUP2 SWAP1 POP SWAP2 SWAP1 POP JUMP JUMPDEST PUSH0 PUSH2 0x882 PUSH2 0x87D PUSH2 0x878 DUP5 PUSH2 0x438 JUMP JUMPDEST PUSH2 0x85F JUMP JUMPDEST PUSH2 0x438 JUMP JUMPDEST SWAP1 POP SWAP2 SWAP1 POP JUMP JUMPDEST PUSH0 DUP2 SWAP1 POP SWAP2 SWAP1 POP JUMP JUMPDEST PUSH2 0x89B DUP4 PUSH2 0x868 JUMP JUMPDEST PUSH2 0x8AF PUSH2 0x8A7 DUP3 PUSH2 0x889 JUMP JUMPDEST DUP5 DUP5 SLOAD PUSH2 0x80E JUMP JUMPDEST DUP3 SSTORE POP POP POP POP JUMP JUMPDEST PUSH0 SWAP1 JUMP JUMPDEST PUSH2 0x8C3 PUSH2 0x8B7 JUMP JUMPDEST PUSH2 0x8CE DUP2 DUP5 DUP5 PUSH2 0x892 JUMP JUMPDEST POP POP POP JUMP JUMPDEST JUMPDEST DUP2 DUP2 LT ISZERO PUSH2 0x8F1 JUMPI PUSH2 0x8E6 PUSH0 DUP3 PUSH2 0x8BB JUMP JUMPDEST PUSH1 0x1 DUP2 ADD SWAP1 POP PUSH2 0x8D4 JUMP JUMPDEST POP POP JUMP JUMPDEST PUSH1 0x1F DUP3 GT ISZERO PUSH2 0x936 JUMPI PUSH2 0x907 DUP2 PUSH2 0x7E1 JUMP JUMPDEST PUSH2 0x910 DUP5 PUSH2 0x7F3 JUMP JUMPDEST DUP2 ADD PUSH1 0x20 DUP6 LT ISZERO PUSH2 0x91F JUMPI DUP2 SWAP1 POP JUMPDEST PUSH2 0x933 PUSH2 0x92B DUP6 PUSH2 0x7F3 JUMP JUMPDEST DUP4 ADD DUP3 PUSH2 0x8D3 JUMP JUMPDEST POP POP JUMPDEST POP POP POP JUMP JUMPDEST PUSH0 DUP3 DUP3 SHR SWAP1 POP SWAP3 SWAP2 POP POP JUMP JUMPDEST PUSH0 PUSH2 0x956 PUSH0 NOT DUP5 PUSH1 0x8 MUL PUSH2 0x93B JUMP JUMPDEST NOT DUP1 DUP4 AND SWAP2 POP POP SWAP3 SWAP2 POP POP JUMP JUMPDEST PUSH0 PUSH2 0x96E DUP4 DUP4 PUSH2 0x947 JUMP JUMPDEST SWAP2 POP DUP3 PUSH1 0x2 MUL DUP3 OR SWAP1 POP SWAP3 SWAP2 POP POP JUMP JUMPDEST PUSH2 0x987 DUP3 PUSH2 0x4A5 JUMP JUMPDEST PUSH8 0xFFFFFFFFFFFFFFFF DUP2 GT ISZERO PUSH2 0x9A0 JUMPI PUSH2 0x99F PUSH2 0x584 JUMP JUMPDEST JUMPDEST PUSH2 0x9AA DUP3 SLOAD PUSH2 0x71C JUMP JUMPDEST PUSH2 0x9B5 DUP3 DUP3 DUP6 PUSH2 0x8F5 JUMP JUMPDEST PUSH0 PUSH1 0x20 SWAP1 POP PUSH1 0x1F DUP4 GT PUSH1 0x1 DUP2 EQ PUSH2 0x9E6 JUMPI PUSH0 DUP5 ISZERO PUSH2 0x9D4 JUMPI DUP3 DUP8 ADD MLOAD SWAP1 POP JUMPDEST PUSH2 0x9DE DUP6 DUP3 PUSH2 0x963 JUMP JUMPDEST DUP7 SSTORE POP PUSH2 0xA45 JUMP JUMPDEST PUSH1 0x1F NOT DUP5 AND PUSH2 0x9F4 DUP7 PUSH2 0x7E1 JUMP JUMPDEST PUSH0 JUMPDEST DUP3 DUP2 LT ISZERO PUSH2 0xA1B JUMPI DUP5 DUP10 ADD MLOAD DUP3 SSTORE PUSH1 0x1 DUP3 ADD SWAP2 POP PUSH1 0x20 DUP6 ADD SWAP5 POP PUSH1 0x20 DUP2 ADD SWAP1 POP PUSH2 0x9F6 JUMP JUMPDEST DUP7 DUP4 LT ISZERO PUSH2 0xA38 JUMPI DUP5 DUP10 ADD MLOAD PUSH2 0xA34 PUSH1 0x1F DUP10 AND DUP3 PUSH2 0x947 JUMP JUMPDEST DUP4 SSTORE POP JUMPDEST PUSH1 0x1 PUSH1 0x2 DUP9 MUL ADD DUP9 SSTORE POP POP POP JUMPDEST POP POP POP POP POP POP JUMP JUMPDEST PUSH32 0x4E487B7100000000000000000000000000000000000000000000000000000000 PUSH0 MSTORE PUSH1 0x11 PUSH1 0x4 MSTORE PUSH1 0x24 PUSH0 REVERT JUMPDEST PUSH0 PUSH2 0xA84 DUP3 PUSH2 0x438 JUMP JUMPDEST SWAP2 POP PUSH32 0xFFFFFFFFFFFFFFFFFFFFFFFFFFFFFFFFFFFFFFFFFFFFFFFFFFFFFFFFFFFFFFFF DUP3 SUB PUSH2 0xAB6 JUMPI PUSH2 0xAB5 PUSH2 0xA4D JUMP JUMPDEST JUMPDEST PUSH1 0x1 DUP3 ADD SWAP1 POP SWAP2 SWAP1 POP JUMP INVALID LOG2 PUSH5 0x6970667358 0x22 SLT KECCAK256 DUP13 DUP4 0x4E 0x26 ORIGIN 0xB2 0xDA 0xB9 PUSH25 0x2AFBE21CE241AA4E15A2F45F45D31EFA5243122C07E11D6473 PUSH16 0x6C634300081A00330000000000000000 "
				},
				"gasEstimates": {
					"creation": {
						"codeDepositCost": "561400",
						"executionCost": "5597",
						"totalCost": "566997"
					},
					"external": {
						"counter()": "2447",
						"find(uint256)": "infinite",
						"insert(string)": "infinite",
						"read(uint256)": "infinite",
						"users(uint256)": "infinite"
					}
				},
				"methodIdentifiers": {
					"counter()": "61bc221a",
					"find(uint256)": "3e530e5b",
					"insert(string)": "b1498e29",
					"read(uint256)": "ed2e5a97",
					"users(uint256)": "365b98b2"
				}
			},
			"storageLayout": {
				"storage": [
					{
						"astId": 10,
						"contract": "contracts/structure.sol:demo",
						"label": "users",
						"offset": 0,
						"slot": "0",
						"type": "t_array(t_struct(USER)6_storage)dyn_storage"
					},
					{
						"astId": 13,
						"contract": "contracts/structure.sol:demo",
						"label": "counter",
						"offset": 0,
						"slot": "1",
						"type": "t_uint256"
					}
				],
				"types": {
					"t_array(t_struct(USER)6_storage)dyn_storage": {
						"base": "t_struct(USER)6_storage",
						"encoding": "dynamic_array",
						"label": "struct demo.USER[]",
						"numberOfBytes": "32"
					},
					"t_string_storage": {
						"encoding": "bytes",
						"label": "string",
						"numberOfBytes": "32"
					},
					"t_struct(USER)6_storage": {
						"encoding": "inplace",
						"label": "struct demo.USER",
						"members": [
							{
								"astId": 3,
								"contract": "contracts/structure.sol:demo",
								"label": "id",
								"offset": 0,
								"slot": "0",
								"type": "t_uint256"
							},
							{
								"astId": 5,
								"contract": "contracts/structure.sol:demo",
								"label": "name",
								"offset": 0,
								"slot": "1",
								"type": "t_string_storage"
							}
						],
						"numberOfBytes": "64"
					},
					"t_uint256": {
						"encoding": "inplace",
						"label": "uint256",
						"numberOfBytes": "32"
					}
				}
			},
			"userdoc": {
				"kind": "user",
				"methods": {},
				"version": 1
			}
		}
	}
}